{
  "_format": "hh-sol-artifact-1",
  "contractName": "HealthCareLite",
  "sourceName": "contracts/plans/HealthCareLite.sol",
  "abi": [
    {
      "inputs": [
        {
          "internalType": "address",
          "name": "_trustedSigner",
          "type": "address"
        },
        {
          "internalType": "address payable",
          "name": "_vaultAddress",
          "type": "address"
        }
      ],
      "stateMutability": "nonpayable",
      "type": "constructor"
    },
    {
      "inputs": [],
      "name": "AccessControlBadConfirmation",
      "type": "error"
    },
    {
      "inputs": [
        {
          "internalType": "address",
          "name": "account",
          "type": "address"
        },
        {
          "internalType": "bytes32",
          "name": "neededRole",
          "type": "bytes32"
        }
      ],
      "name": "AccessControlUnauthorizedAccount",
      "type": "error"
    },
    {
      "inputs": [],
      "name": "ECDSAInvalidSignature",
      "type": "error"
    },
    {
      "inputs": [
        {
          "internalType": "uint256",
          "name": "length",
          "type": "uint256"
        }
      ],
      "name": "ECDSAInvalidSignatureLength",
      "type": "error"
    },
    {
      "inputs": [
        {
          "internalType": "bytes32",
          "name": "s",
          "type": "bytes32"
        }
      ],
      "name": "ECDSAInvalidSignatureS",
      "type": "error"
    },
    {
      "anonymous": false,
      "inputs": [
        {
          "indexed": true,
          "internalType": "address",
          "name": "admin",
          "type": "address"
        }
      ],
      "name": "AdminGranted",
      "type": "event"
    },
    {
      "anonymous": false,
      "inputs": [
        {
          "indexed": true,
          "internalType": "bytes32",
          "name": "policyId",
          "type": "bytes32"
        },
        {
          "indexed": true,
          "internalType": "address",
          "name": "owner",
          "type": "address"
        },
        {
          "indexed": false,
          "internalType": "uint256",
          "name": "amount",
          "type": "uint256"
        }
      ],
      "name": "ClaimApproved",
      "type": "event"
    },
    {
      "anonymous": false,
      "inputs": [
        {
          "indexed": false,
          "internalType": "uint256",
          "name": "oldPeriod",
          "type": "uint256"
        },
        {
          "indexed": false,
          "internalType": "uint256",
          "name": "newPeriod",
          "type": "uint256"
        }
      ],
      "name": "ClaimExpiryPeriodUpdated",
      "type": "event"
    },
    {
      "anonymous": false,
      "inputs": [
        {
          "indexed": true,
          "internalType": "bytes32",
          "name": "policyId",
          "type": "bytes32"
        },
        {
          "indexed": true,
          "internalType": "address",
          "name": "owner",
          "type": "address"
        },
        {
          "indexed": false,
          "internalType": "uint256",
          "name": "amount",
          "type": "uint256"
        },
        {
          "indexed": false,
          "internalType": "string",
          "name": "documentHash",
          "type": "string"
        }
      ],
      "name": "ClaimFiled",
      "type": "event"
    },
    {
      "anonymous": false,
      "inputs": [
        {
          "indexed": true,
          "internalType": "bytes32",
          "name": "policyId",
          "type": "bytes32"
        },
        {
          "indexed": true,
          "internalType": "address",
          "name": "beneficiary",
          "type": "address"
        },
        {
          "indexed": false,
          "internalType": "uint256",
          "name": "amount",
          "type": "uint256"
        }
      ],
      "name": "ClaimTransferred",
      "type": "event"
    },
    {
      "anonymous": false,
      "inputs": [
        {
          "indexed": true,
          "internalType": "bytes32",
          "name": "policyId",
          "type": "bytes32"
        },
        {
          "indexed": true,
          "internalType": "address",
          "name": "owner",
          "type": "address"
        },
        {
          "indexed": false,
          "internalType": "uint256",
          "name": "refundAmount",
          "type": "uint256"
        }
      ],
      "name": "PolicyCancelled",
      "type": "event"
    },
    {
      "anonymous": false,
      "inputs": [
        {
          "indexed": true,
          "internalType": "bytes32",
          "name": "policyId",
          "type": "bytes32"
        },
        {
          "indexed": true,
          "internalType": "address",
          "name": "owner",
          "type": "address"
        }
      ],
      "name": "PolicyExpired",
      "type": "event"
    },
    {
      "anonymous": false,
      "inputs": [
        {
          "indexed": true,
          "internalType": "bytes32",
          "name": "policyId",
          "type": "bytes32"
        },
        {
          "indexed": true,
          "internalType": "address",
          "name": "owner",
          "type": "address"
        },
        {
          "indexed": false,
          "internalType": "uint256",
          "name": "premium",
          "type": "uint256"
        },
        {
          "indexed": false,
          "internalType": "uint256",
          "name": "sumAssured",
          "type": "uint256"
        },
        {
          "indexed": false,
          "internalType": "uint256",
          "name": "expiry",
          "type": "uint256"
        }
      ],
      "name": "PolicyPurchased",
      "type": "event"
    },
    {
      "anonymous": false,
      "inputs": [
        {
          "indexed": true,
          "internalType": "bytes32",
          "name": "policyId",
          "type": "bytes32"
        },
        {
          "indexed": true,
          "internalType": "address",
          "name": "owner",
          "type": "address"
        },
        {
          "indexed": false,
          "internalType": "uint256",
          "name": "refundAmount",
          "type": "uint256"
        }
      ],
      "name": "PolicyRefunded",
      "type": "event"
    },
    {
      "anonymous": false,
      "inputs": [
        {
          "indexed": true,
          "internalType": "bytes32",
          "name": "policyId",
          "type": "bytes32"
        },
        {
          "indexed": true,
          "internalType": "address",
          "name": "owner",
          "type": "address"
        },
        {
          "indexed": false,
          "internalType": "uint256",
          "name": "premium",
          "type": "uint256"
        },
        {
          "indexed": false,
          "internalType": "uint256",
          "name": "newExpiry",
          "type": "uint256"
        }
      ],
      "name": "PolicyRenewed",
      "type": "event"
    },
    {
      "anonymous": false,
      "inputs": [
        {
          "indexed": true,
          "internalType": "bytes32",
          "name": "policyId",
          "type": "bytes32"
        },
        {
          "indexed": true,
          "internalType": "address",
          "name": "user",
          "type": "address"
        },
        {
          "indexed": false,
          "internalType": "uint256",
          "name": "premium",
          "type": "uint256"
        }
      ],
      "name": "PremiumCalculated",
      "type": "event"
    },
    {
      "anonymous": false,
      "inputs": [
        {
          "indexed": true,
          "internalType": "bytes32",
          "name": "policyId",
          "type": "bytes32"
        },
        {
          "indexed": true,
          "internalType": "address",
          "name": "owner",
          "type": "address"
        },
        {
          "indexed": false,
          "internalType": "uint256",
          "name": "amount",
          "type": "uint256"
        }
      ],
      "name": "RefundIssued",
      "type": "event"
    },
    {
      "anonymous": false,
      "inputs": [
        {
          "indexed": true,
          "internalType": "bytes32",
          "name": "role",
          "type": "bytes32"
        },
        {
          "indexed": true,
          "internalType": "bytes32",
          "name": "previousAdminRole",
          "type": "bytes32"
        },
        {
          "indexed": true,
          "internalType": "bytes32",
          "name": "newAdminRole",
          "type": "bytes32"
        }
      ],
      "name": "RoleAdminChanged",
      "type": "event"
    },
    {
      "anonymous": false,
      "inputs": [
        {
          "indexed": true,
          "internalType": "bytes32",
          "name": "role",
          "type": "bytes32"
        },
        {
          "indexed": true,
          "internalType": "address",
          "name": "account",
          "type": "address"
        },
        {
          "indexed": true,
          "internalType": "address",
          "name": "sender",
          "type": "address"
        }
      ],
      "name": "RoleGranted",
      "type": "event"
    },
    {
      "anonymous": false,
      "inputs": [
        {
          "indexed": true,
          "internalType": "bytes32",
          "name": "role",
          "type": "bytes32"
        },
        {
          "indexed": true,
          "internalType": "address",
          "name": "account",
          "type": "address"
        },
        {
          "indexed": true,
          "internalType": "address",
          "name": "sender",
          "type": "address"
        }
      ],
      "name": "RoleRevoked",
      "type": "event"
    },
    {
      "anonymous": false,
      "inputs": [
        {
          "indexed": true,
          "internalType": "address",
          "name": "oldSigner",
          "type": "address"
        },
        {
          "indexed": true,
          "internalType": "address",
          "name": "newSigner",
          "type": "address"
        }
      ],
      "name": "TrustedSignerUpdated",
      "type": "event"
    },
    {
      "anonymous": false,
      "inputs": [
        {
          "indexed": true,
          "internalType": "address",
          "name": "oldVault",
          "type": "address"
        },
        {
          "indexed": true,
          "internalType": "address",
          "name": "newVault",
          "type": "address"
        }
      ],
      "name": "VaultUpdated",
      "type": "event"
    },
    {
      "inputs": [],
      "name": "ADMIN_ROLE",
      "outputs": [
        {
          "internalType": "bytes32",
          "name": "",
          "type": "bytes32"
        }
      ],
      "stateMutability": "view",
      "type": "function"
    },
    {
      "inputs": [],
      "name": "DEFAULT_ADMIN_ROLE",
      "outputs": [
        {
          "internalType": "bytes32",
          "name": "",
          "type": "bytes32"
        }
      ],
      "stateMutability": "view",
      "type": "function"
    },
    {
      "inputs": [
        {
          "internalType": "bytes32",
          "name": "policyId",
          "type": "bytes32"
        }
      ],
      "name": "approveClaim",
      "outputs": [
        {
          "internalType": "uint256",
          "name": "",
          "type": "uint256"
        }
      ],
      "stateMutability": "nonpayable",
      "type": "function"
    },
    {
      "inputs": [
        {
          "internalType": "bytes32",
          "name": "policyId",
          "type": "bytes32"
        }
      ],
      "name": "calculateRefund",
      "outputs": [
        {
          "internalType": "uint256",
          "name": "",
          "type": "uint256"
        }
      ],
      "stateMutability": "view",
      "type": "function"
    },
    {
      "inputs": [
        {
          "internalType": "bytes32",
          "name": "policyId",
          "type": "bytes32"
        },
        {
          "internalType": "uint256",
          "name": "refundAmount",
          "type": "uint256"
        },
        {
          "internalType": "bytes",
          "name": "signature",
          "type": "bytes"
        }
      ],
      "name": "cancelPolicy",
      "outputs": [],
      "stateMutability": "nonpayable",
      "type": "function"
    },
    {
      "inputs": [],
      "name": "claimExpiryPeriod",
      "outputs": [
        {
          "internalType": "uint256",
          "name": "",
          "type": "uint256"
        }
      ],
      "stateMutability": "view",
      "type": "function"
    },
    {
      "inputs": [
        {
          "internalType": "uint256",
          "name": "amount",
          "type": "uint256"
        }
      ],
      "name": "emergencyWithdraw",
      "outputs": [],
      "stateMutability": "nonpayable",
      "type": "function"
    },
    {
      "inputs": [
        {
          "internalType": "bytes32",
          "name": "policyId",
          "type": "bytes32"
        },
        {
          "internalType": "uint256",
          "name": "amount",
          "type": "uint256"
        },
        {
          "internalType": "string",
          "name": "documentHash",
          "type": "string"
        },
        {
          "internalType": "bytes",
          "name": "signature",
          "type": "bytes"
        }
      ],
      "name": "fileClaim",
      "outputs": [],
      "stateMutability": "nonpayable",
      "type": "function"
    },
    {
      "inputs": [
        {
          "internalType": "bytes32",
          "name": "policyId",
          "type": "bytes32"
        }
      ],
      "name": "getClaim",
      "outputs": [
        {
          "components": [
            {
              "internalType": "bytes32",
              "name": "policyId",
              "type": "bytes32"
            },
            {
              "internalType": "uint256",
              "name": "amount",
              "type": "uint256"
            },
            {
              "internalType": "string",
              "name": "documentHash",
              "type": "string"
            },
            {
              "internalType": "bool",
              "name": "isPending",
              "type": "bool"
            },
            {
              "internalType": "uint256",
              "name": "createdAt",
              "type": "uint256"
            },
            {
              "internalType": "uint256",
              "name": "expiryTimestamp",
              "type": "uint256"
            }
          ],
          "internalType": "struct PolicyBase.ClaimRequest",
          "name": "",
          "type": "tuple"
        }
      ],
      "stateMutability": "view",
      "type": "function"
    },
    {
      "inputs": [
        {
          "internalType": "bytes32",
          "name": "policyId",
          "type": "bytes32"
        }
      ],
      "name": "getPolicy",
      "outputs": [
        {
          "components": [
            {
              "internalType": "bytes32",
              "name": "policyId",
              "type": "bytes32"
            },
            {
              "internalType": "address",
              "name": "owner",
              "type": "address"
            },
            {
              "internalType": "uint256",
              "name": "premium",
              "type": "uint256"
            },
            {
              "internalType": "uint256",
              "name": "sumAssured",
              "type": "uint256"
            },
            {
              "internalType": "uint256",
              "name": "expiry",
              "type": "uint256"
            },
            {
              "internalType": "bool",
              "name": "isActive",
              "type": "bool"
            },
            {
              "internalType": "bool",
              "name": "isClaimed",
              "type": "bool"
            },
            {
              "internalType": "uint256",
              "name": "createdAt",
              "type": "uint256"
            }
          ],
          "internalType": "struct PolicyBase.Policy",
          "name": "",
          "type": "tuple"
        }
      ],
      "stateMutability": "view",
      "type": "function"
    },
    {
      "inputs": [
        {
          "internalType": "bytes32",
          "name": "policyId",
          "type": "bytes32"
        }
      ],
      "name": "getRemainingCoverage",
      "outputs": [
        {
          "internalType": "uint256",
          "name": "",
          "type": "uint256"
        }
      ],
      "stateMutability": "view",
      "type": "function"
    },
    {
      "inputs": [
        {
          "internalType": "bytes32",
          "name": "role",
          "type": "bytes32"
        }
      ],
      "name": "getRoleAdmin",
      "outputs": [
        {
          "internalType": "bytes32",
          "name": "",
          "type": "bytes32"
        }
      ],
      "stateMutability": "view",
      "type": "function"
    },
    {
      "inputs": [
        {
          "internalType": "address",
          "name": "newAdmin",
          "type": "address"
        }
      ],
      "name": "grantAdminRole",
      "outputs": [],
      "stateMutability": "nonpayable",
      "type": "function"
    },
    {
      "inputs": [
        {
          "internalType": "bytes32",
          "name": "role",
          "type": "bytes32"
        },
        {
          "internalType": "address",
          "name": "account",
          "type": "address"
        }
      ],
      "name": "grantRole",
      "outputs": [],
      "stateMutability": "nonpayable",
      "type": "function"
    },
    {
      "inputs": [
        {
          "internalType": "bytes32",
          "name": "role",
          "type": "bytes32"
        },
        {
          "internalType": "address",
          "name": "account",
          "type": "address"
        }
      ],
      "name": "hasRole",
      "outputs": [
        {
          "internalType": "bool",
          "name": "",
          "type": "bool"
        }
      ],
      "stateMutability": "view",
      "type": "function"
    },
    {
      "inputs": [
        {
          "internalType": "bytes32",
          "name": "policyId",
          "type": "bytes32"
        }
      ],
      "name": "markExpiredPolicy",
      "outputs": [],
      "stateMutability": "nonpayable",
      "type": "function"
    },
    {
      "inputs": [
        {
          "internalType": "address",
          "name": "owner",
          "type": "address"
        },
        {
          "internalType": "uint256",
          "name": "premium",
          "type": "uint256"
        },
        {
          "internalType": "uint256",
          "name": "sumAssured",
          "type": "uint256"
        },
        {
          "internalType": "uint256",
          "name": "",
          "type": "uint256"
        },
        {
          "internalType": "bytes",
          "name": "signature",
          "type": "bytes"
        }
      ],
      "name": "purchaseHealthPolicy",
      "outputs": [],
      "stateMutability": "payable",
      "type": "function"
    },
    {
      "inputs": [
        {
          "internalType": "address",
          "name": "owner",
          "type": "address"
        },
        {
          "internalType": "uint256",
          "name": "premium",
          "type": "uint256"
        },
        {
          "internalType": "uint256",
          "name": "sumAssured",
          "type": "uint256"
        },
        {
          "internalType": "uint256",
          "name": "duration",
          "type": "uint256"
        },
        {
          "internalType": "bytes",
          "name": "signature",
          "type": "bytes"
        }
      ],
      "name": "purchasePolicy",
      "outputs": [
        {
          "internalType": "bytes32",
          "name": "",
          "type": "bytes32"
        }
      ],
      "stateMutability": "payable",
      "type": "function"
    },
    {
      "inputs": [
        {
          "internalType": "bytes32",
          "name": "policyId",
          "type": "bytes32"
        },
        {
          "internalType": "uint256",
          "name": "premium",
          "type": "uint256"
        },
        {
          "internalType": "uint256",
          "name": "",
          "type": "uint256"
        },
        {
          "internalType": "bytes",
          "name": "signature",
          "type": "bytes"
        }
      ],
      "name": "renewPolicy",
      "outputs": [],
      "stateMutability": "payable",
      "type": "function"
    },
    {
      "inputs": [
        {
          "internalType": "bytes32",
          "name": "role",
          "type": "bytes32"
        },
        {
          "internalType": "address",
          "name": "callerConfirmation",
          "type": "address"
        }
      ],
      "name": "renounceRole",
      "outputs": [],
      "stateMutability": "nonpayable",
      "type": "function"
    },
    {
      "inputs": [
        {
          "internalType": "address",
          "name": "admin",
          "type": "address"
        }
      ],
      "name": "revokeAdminRole",
      "outputs": [],
      "stateMutability": "nonpayable",
      "type": "function"
    },
    {
      "inputs": [
        {
          "internalType": "bytes32",
          "name": "role",
          "type": "bytes32"
        },
        {
          "internalType": "address",
          "name": "account",
          "type": "address"
        }
      ],
      "name": "revokeRole",
      "outputs": [],
      "stateMutability": "nonpayable",
      "type": "function"
    },
    {
      "inputs": [
        {
          "internalType": "uint256",
          "name": "periodInDays",
          "type": "uint256"
        }
      ],
      "name": "setClaimExpiryPeriod",
      "outputs": [],
      "stateMutability": "nonpayable",
      "type": "function"
    },
    {
      "inputs": [
        {
          "internalType": "address",
          "name": "newSigner",
          "type": "address"
        }
      ],
      "name": "setTrustedSigner",
      "outputs": [],
      "stateMutability": "nonpayable",
      "type": "function"
    },
    {
      "inputs": [
        {
          "internalType": "address payable",
          "name": "newVault",
          "type": "address"
        }
      ],
      "name": "setVault",
      "outputs": [],
      "stateMutability": "nonpayable",
      "type": "function"
    },
    {
      "inputs": [
        {
          "internalType": "bytes4",
          "name": "interfaceId",
          "type": "bytes4"
        }
      ],
      "name": "supportsInterface",
      "outputs": [
        {
          "internalType": "bool",
          "name": "",
          "type": "bool"
        }
      ],
      "stateMutability": "view",
      "type": "function"
    },
    {
      "inputs": [],
      "name": "trustedSigner",
      "outputs": [
        {
          "internalType": "address",
          "name": "",
          "type": "address"
        }
      ],
      "stateMutability": "view",
      "type": "function"
    },
    {
      "inputs": [],
      "name": "vault",
      "outputs": [
        {
          "internalType": "contract InsuranceVault",
          "name": "",
          "type": "address"
        }
      ],
      "stateMutability": "view",
      "type": "function"
    },
    {
      "stateMutability": "payable",
      "type": "receive"
    }
  ],
  "bytecode": "0x608060405262093a806004553480156200001857600080fd5b5060405162002d8d38038062002d8d8339810160408190526200003b916200022c565b81816001600160a01b038216620000995760405162461bcd60e51b815260206004820152601660248201527f496e76616c6964207369676e657220616464726573730000000000000000000060448201526064015b60405180910390fd5b6001600160a01b038116620000f15760405162461bcd60e51b815260206004820152601560248201527f496e76616c6964207661756c7420616464726573730000000000000000000000604482015260640162000090565b620000fe60003362000164565b506200012b7fa49807205ce4d355092ef5a8a18f56e8913cf4a201fbe287825b095693c217753362000164565b50600280546001600160a01b039384166001600160a01b031991821617909155600380549290931691161790555050600180556200026b565b6000828152602081815260408083206001600160a01b038516845290915281205460ff1662000209576000838152602081815260408083206001600160a01b03861684529091529020805460ff19166001179055620001c03390565b6001600160a01b0316826001600160a01b0316847f2f8788117e7eff1d82e926ec794901d17c78024a50270940304540a733656f0d60405160405180910390a45060016200020d565b5060005b92915050565b6001600160a01b03811681146200022957600080fd5b50565b600080604083850312156200024057600080fd5b82516200024d8162000213565b6020840151909250620002608162000213565b809150509250929050565b612b12806200027b6000396000f3fe6080604052600436106101bb5760003560e01c80638c51f60f116100ec578063b87fb65c1161008a578063cb80486011610064578063cb80486014610697578063d547741f146106b7578063f74d5480146106d7578063fbfa77cf1461070f57600080fd5b8063b87fb65c14610637578063c634b78e1461064a578063c9100bcb1461066a57600080fd5b8063a217fddf116100c6578063a217fddf146104ad578063a3f685f9146104c2578063aa04cd1414610604578063b0529da21461061757600080fd5b80638c51f60f1461044d57806391d148541461046d5780639a19c7b01461048d57600080fd5b80633719f096116101595780635312ea8e116101335780635312ea8e146103cb57806356a1c701146103eb5780636817031b1461040b57806375b238fc1461042b57600080fd5b80633719f096146103785780634059442d146103985780634e494b7c146103b857600080fd5b80632f2ff15d116101955780632f2ff15d146103025780632fe1814c1461032257806330d95b531461034257806336568abe1461035857600080fd5b806301ffc9a71461026f57806319c0d1fa146102a4578063248a9ca3146102c457600080fd5b3661026a576003546040516000916001600160a01b03169034908381818185875af1925050503d806000811461020d576040519150601f19603f3d011682016040523d82523d6000602084013e610212565b606091505b50509050806102685760405162461bcd60e51b815260206004820152601e60248201527f45544820666f7277617264696e6720746f207661756c74206661696c6564000060448201526064015b60405180910390fd5b005b600080fd5b34801561027b57600080fd5b5061028f61028a366004612442565b61072f565b60405190151581526020015b60405180910390f35b3480156102b057600080fd5b506102686102bf366004612473565b610766565b3480156102d057600080fd5b506102f46102df366004612473565b60009081526020819052604090206001015490565b60405190815260200161029b565b34801561030e57600080fd5b5061026861031d3660046124a1565b610815565b34801561032e57600080fd5b5061026861033d36600461257d565b610840565b34801561034e57600080fd5b506102f460045481565b34801561036457600080fd5b506102686103733660046124a1565b610aad565b34801561038457600080fd5b506102f4610393366004612473565b610ae5565b3480156103a457600080fd5b506102686103b33660046125cd565b610d51565b6102686103c636600461265b565b61106a565b3480156103d757600080fd5b506102686103e6366004612473565b6113a5565b3480156103f757600080fd5b506102686104063660046126a9565b611443565b34801561041757600080fd5b506102686104263660046126a9565b6114f0565b34801561043757600080fd5b506102f4600080516020612abd83398151915281565b34801561045957600080fd5b506102f4610468366004612473565b61159c565b34801561047957600080fd5b5061028f6104883660046124a1565b611698565b34801561049957600080fd5b506102686104a83660046126a9565b6116c1565b3480156104b957600080fd5b506102f4600081565b3480156104ce57600080fd5b5061059b6104dd366004612473565b6040805161010081018252600080825260208201819052918101829052606081018290526080810182905260a0810182905260c0810182905260e081019190915250600090815260056020818152604092839020835161010080820186528254825260018301546001600160a01b03169382019390935260028201549481019490945260038101546060850152600481015460808501529182015460ff808216151560a086015291900416151560c08301526006015460e082015290565b60405161029b9190815181526020808301516001600160a01b03169082015260408083015190820152606080830151908201526080808301519082015260a08083015115159082015260c08083015115159082015260e091820151918101919091526101000190565b6102686106123660046126c6565b61177f565b34801561062357600080fd5b50610268610632366004612473565b6117d1565b6102f46106453660046126c6565b61189e565b34801561065657600080fd5b506102686106653660046126a9565b611d84565b34801561067657600080fd5b5061068a610685366004612473565b611e2e565b60405161029b9190612783565b3480156106a357600080fd5b506102f46106b2366004612473565b611f5a565b3480156106c357600080fd5b506102686106d23660046124a1565b612020565b3480156106e357600080fd5b506002546106f7906001600160a01b031681565b6040516001600160a01b03909116815260200161029b565b34801561071b57600080fd5b506003546106f7906001600160a01b031681565b60006001600160e01b03198216637965db0b60e01b148061076057506301ffc9a760e01b6001600160e01b03198316145b92915050565b600061077181612045565b600082116107c15760405162461bcd60e51b815260206004820152601760248201527f506572696f64206d75737420626520706f736974697665000000000000000000604482015260640161025f565b6004546107d183620151806127f5565b60048190556040805183815260208101929092527fb792057619e1a3b0e2768725ef4cb4fc3cbf647c992d306e6876522e3fc0cdbc910160405180910390a1505050565b60008281526020819052604090206001015461083081612045565b61083a8383612052565b50505050565b600080516020612abd83398151915261085881612045565b60008481526005602081905260409091200154849060ff1661088c5760405162461bcd60e51b815260040161025f9061280c565b60008581526005602081905260409091209081015460ff166108c05760405162461bcd60e51b815260040161025f9061280c565b6005810154610100900460ff16156109135760405162461bcd60e51b8152602060048201526016602482015275141bdb1a58de48185b1c9958591e4818db185a5b595960521b604482015260640161025f565b600181015460405160009161093c9189916001600160a01b031690899085904690602001612837565b60405160208183030381529060405280519060200120905061095e81866120e4565b61097a5760405162461bcd60e51b815260040161025f90612867565b8451602080870191909120600090815260079091526040908190208054600160ff1991821681179092556005850180549091169055600354908401549151631f9cab4760e21b81526001600160a01b03928316600482015260248101899052911690637e72ad1c90604401600060405180830381600087803b1580156109ff57600080fd5b505af1158015610a13573d6000803e3d6000fd5b5050505060018201546040518781526001600160a01b039091169088907fae2eb9a5ff7e26865940377aafb8a569997727d3bc48028ed88199eed260087f9060200160405180910390a360018201546040518781526001600160a01b039091169088907feffda959fad3422ef4e602f1642198e56536dbbf192da630dcbc451b5b5c203d906020015b60405180910390a350505050505050565b6001600160a01b0381163314610ad65760405163334bd91960e11b815260040160405180910390fd5b610ae0828261219b565b505050565b6000600080516020612abd833981519152610aff81612045565b60008381526005602081905260409091200154839060ff16610b335760405162461bcd60e51b815260040161025f9061280c565b60008481526006602090815260408083206005909252909120600382015460ff16610b935760405162461bcd60e51b815260206004820152601060248201526f4e6f2070656e64696e6720636c61696d60801b604482015260640161025f565b8160050154421115610bdf5760405162461bcd60e51b815260206004820152601560248201527410db185a5b481c995c5d595cdd08195e1c1a5c9959605a1b604482015260640161025f565b60038201805460ff19169055600182015460008781526008602052604081208054909190610c0e908490612892565b9091555050600381015460008781526008602052604090205410610c3e5760058101805461ffff19166101001790555b60035460018281015490840154604051631e55af2160e31b81526001600160a01b039283166004820152602481019190915291169063f2ad790890604401600060405180830381600087803b158015610c9657600080fd5b505af1158015610caa573d6000803e3d6000fd5b50505050600181810154908301546040519081526001600160a01b039091169087907f636494174e4a0f872de31b104ec14fb50edb1bdc4b1db9f006eaa68a61610f9c9060200160405180910390a3600181810154908301546040519081526001600160a01b039091169087907f957a909a771d0c1c8b37c8f5c6c9df37d8d7c521d3d99445839ede9153d063589060200160405180910390a35060010154949350505050565b600260015403610d735760405162461bcd60e51b815260040161025f906128a5565b600260015560008481526005602081905260409091200154849060ff16610dac5760405162461bcd60e51b815260040161025f9061280c565b600085815260056020526040902060018101546001600160a01b03163314610e0d5760405162461bcd60e51b81526020600482015260146024820152732737ba103a3432903837b634b1bc9037bbb732b960611b604482015260640161025f565b8060030154851115610e615760405162461bcd60e51b815260206004820152601960248201527f436c61696d20657863656564732073756d206173737572656400000000000000604482015260640161025f565b6005810154610100900460ff1615610eb45760405162461bcd60e51b8152602060048201526016602482015275141bdb1a58de48185b1c9958591e4818db185a5b595960521b604482015260640161025f565b80600401544210610ef85760405162461bcd60e51b815260206004820152600e60248201526d141bdb1a58de48195e1c1a5c995960921b604482015260640161025f565b600086868646604051602001610f1194939291906128dc565b604051602081830303815290604052805190602001209050610f3381856120e4565b610f4f5760405162461bcd60e51b815260040161025f90612867565b8351602080860191909120600090815260078252604090819020805460ff19166001908117909155815160c0810183528a81529283018990529082018790526060820152426080820181905260045460a0830191610fad9190612892565b905260008881526006602090815260409182902083518155908301516001820155908201516002820190610fe19082612998565b50606082015160038201805460ff19169115159190911790556080820151600482015560a09091015160059091015560018201546040516001600160a01b039091169088907fc96b2a45efdafddb0d702bd3f580b163b3de51eaf6181152b2625544b7d0e43e90611055908a908a90612a58565b60405180910390a35050600180555050505050565b600084815260056020526040902060018101546001600160a01b031633146110cb5760405162461bcd60e51b81526020600482015260146024820152732737ba103a3432903837b634b1bc9037bbb732b960611b604482015260640161025f565b600581015460ff166110ef5760405162461bcd60e51b815260040161025f9061280c565b6005810154610100900460ff16156111405760405162461bcd60e51b8152602060048201526014602482015273141bdb1a58de48199d5b1b1e4818db185a5b595960621b604482015260640161025f565b83341461118a5760405162461bcd60e51b8152602060048201526018602482015277125b98dbdc9c9958dd081c1c995b5a5d5b48185b5bdd5b9d60421b604482015260640161025f565b8060040154421015806111af575062278d004282600401546111ac9190612a71565b11155b6111f05760405162461bcd60e51b8152602060048201526012602482015271546f6f206561726c7920746f2072656e657760701b604482015260640161025f565b60018101546040516301e13380916000916112219189916001600160a01b0390911690899086904690602001612837565b60405160208183030381529060405280519060200120905061124381856120e4565b61125f5760405162461bcd60e51b815260040161025f90612867565b8351602080860191909120600090815260079091526040808220805460ff1916600117905560035490516001600160a01b039091169034908381818185875af1925050503d80600081146112cf576040519150601f19603f3d011682016040523d82523d6000602084013e6112d4565b606091505b505090508061131d5760405162461bcd60e51b815260206004820152601560248201527415985d5b1d081d1c985b9cd9995c8819985a5b1959605a1b604482015260640161025f565b6002840187905560008881526008602052604081205561133d8342612892565b60048501819055600185015460028601546040516001600160a01b03909216928b927f16fe3aa381de20cb3e0fb3f9ae8d20168747df7e26dbc2b381ad5025ee5ca0869261139392908252602082015260400190565b60405180910390a35050505050505050565b60006113b081612045565b6002600154036113d25760405162461bcd60e51b815260040161025f906128a5565b600260015560035460405163c107532960e01b8152336004820152602481018490526001600160a01b039091169063c107532990604401600060405180830381600087803b15801561142357600080fd5b505af1158015611437573d6000803e3d6000fd5b50506001805550505050565b600061144e81612045565b6001600160a01b03821661149d5760405162461bcd60e51b8152602060048201526016602482015275496e76616c6964207369676e6572206164647265737360501b604482015260640161025f565b600280546001600160a01b038481166001600160a01b0319831681179093556040519116919082907f4a297cf5d32586f80d2b0708a39d2da1f46e6ae7722171e1c51dfd685b5b8aa890600090a3505050565b60006114fb81612045565b6001600160a01b0382166115495760405162461bcd60e51b8152602060048201526015602482015274496e76616c6964207661756c74206164647265737360581b604482015260640161025f565b600380546001600160a01b038481166001600160a01b0319831681179093556040519116919082907f483bdedaaf23706a9800ac1af0d852b34927780d79f9d6ba60a80c7cad75ea3990600090a3505050565b6000818152600560208181526040808420815161010080820184528254825260018301546001600160a01b03169482019490945260028201549281019290925260038101546060830152600481015460808301529283015460ff80821615801560a08501529390910416151560c082015260069092015460e083015280611627575080608001514210155b156116355750600092915050565b60004282608001516116479190612a71565b905060008260e00151836080015161165f9190612a71565b90508060000361167457506000949350505050565b8082846040015161168591906127f5565b61168f9190612a84565b95945050505050565b6000918252602082815260408084206001600160a01b0393909316845291905290205460ff1690565b60006116cc81612045565b6001600160a01b03821661171a5760405162461bcd60e51b8152602060048201526015602482015274496e76616c69642061646d696e206164647265737360581b604482015260640161025f565b336001600160a01b038316036117675760405162461bcd60e51b815260206004820152601260248201527121b0b73737ba103932bb37b5b29039b2b63360711b604482015260640161025f565b610ae0600080516020612abd8339815191528361219b565b6301e133806000611793878787858761189e565b9050866001600160a01b0316817fb1efb5a54d173a08f1d7ae00e21150da481ac80d259826760104a5ba97be6fa888604051610a9c91815260200190565b60008181526005602081905260409091209081015460ff166118055760405162461bcd60e51b815260040161025f9061280c565b80600401544210156118525760405162461bcd60e51b8152602060048201526016602482015275141bdb1a58de481b9bdd08195e1c1a5c9959081e595d60521b604482015260640161025f565b60058101805460ff1916905560018101546040516001600160a01b039091169083907f8629ba1a018e1397c942e8dcf53afb2cfd0f250c02bc785e041010dfe6bbe00290600090a35050565b60006002600154036118c25760405162461bcd60e51b815260040161025f906128a5565b60026001556001600160a01b0386166119155760405162461bcd60e51b8152602060048201526015602482015274496e76616c6964206f776e6572206164647265737360581b604482015260640161025f565b600085116119655760405162461bcd60e51b815260206004820152601860248201527f5072656d69756d206d75737420626520706f7369746976650000000000000000604482015260640161025f565b600084116119b55760405162461bcd60e51b815260206004820152601c60248201527f53756d2061737375726564206d75737420626520706f73697469766500000000604482015260640161025f565b60008311611a055760405162461bcd60e51b815260206004820152601960248201527f4475726174696f6e206d75737420626520706f73697469766500000000000000604482015260640161025f565b843414611a4f5760405162461bcd60e51b8152602060048201526018602482015277125b98dbdc9c9958dd081c1c995b5a5d5b48185b5bdd5b9d60421b604482015260640161025f565b6040516001600160601b0319606088901b16602082015260348101869052605481018590526074810184905246609482015260009060b401604051602081830303815290604052805190602001209050611aa981846120e4565b611ac55760405162461bcd60e51b815260040161025f90612867565b82516020808501919091206000908152600790915260408120805460ff19166001179055611b3088426040516001600160601b0319606084901b1660208201526034810182905260009060540160405160208183030381529060405280519060200120905092915050565b6000818152600560208190526040909120015490915060ff1615611b8e5760405162461bcd60e51b8152602060048201526015602482015274506f6c69637920616c72656164792065786973747360581b604482015260640161025f565b604051806101000160405280828152602001896001600160a01b031681526020018881526020018781526020018642611bc79190612892565b81526001602080830182905260006040808501829052426060958601528682526005808452818320875181558785015195810180546001600160a01b039097166001600160a01b0319909716969096179095558682015160028601559486015160038501556080860151600485015560a0860151948401805460c088015115156101000261ff00199715159790971661ffff19909116179590951790945560e090940151600690920191909155600890528120556003546040516000916001600160a01b03169089908381818185875af1925050503d8060008114611cc8576040519150601f19603f3d011682016040523d82523d6000602084013e611ccd565b606091505b5050905080611d1e5760405162461bcd60e51b815260206004820181905260248201527f5072656d69756d207472616e7366657220746f207661756c74206661696c6564604482015260640161025f565b6001600160a01b038916827f105d821f4999dd4d79a889f0a0b1a1f6a5366615d06b4b7aef9e0a42a1de8cff8a8a611d568b42612892565b6040805193845260208401929092529082015260600160405180910390a35060018055979650505050505050565b6000611d8f81612045565b6001600160a01b038216611ddd5760405162461bcd60e51b8152602060048201526015602482015274496e76616c69642061646d696e206164647265737360581b604482015260640161025f565b611df5600080516020612abd83398151915283612052565b506040516001600160a01b038316907f1c4e23de8d72c94b22992bd4d7b6786b215ba876af214ff63e6a0ca38fc97af490600090a25050565b611e6c6040518060c0016040528060008019168152602001600081526020016060815260200160001515815260200160008152602001600081525090565b600660008381526020019081526020016000206040518060c00160405290816000820154815260200160018201548152602001600282018054611eae90612910565b80601f0160208091040260200160405190810160405280929190818152602001828054611eda90612910565b8015611f275780601f10611efc57610100808354040283529160200191611f27565b820191906000526020600020905b815481529060010190602001808311611f0a57829003601f168201915b5050509183525050600382015460ff16151560208201526004820154604082015260059091015460609091015292915050565b6000818152600560208181526040808420815161010080820184528254825260018301546001600160a01b03169482019490945260028201549281019290925260038101546060830152600481015460808301529283015460ff808216151560a084018190529390910416151560c082015260069092015460e0830152611fe45750600092915050565b60008381526008602052604090205460608201518110612008575060009392505050565b8082606001516120189190612a71565b949350505050565b60008281526020819052604090206001015461203b81612045565b61083a838361219b565b61204f8133612206565b50565b600061205e8383611698565b6120dc576000838152602081815260408083206001600160a01b03861684529091529020805460ff191660011790556120943390565b6001600160a01b0316826001600160a01b0316847f2f8788117e7eff1d82e926ec794901d17c78024a50270940304540a733656f0d60405160405180910390a4506001610760565b506000610760565b805160208083019190912060009081526007909152604081205460ff16156121475760405162461bcd60e51b815260206004820152601660248201527514da59db985d1d5c9948185b1c9958591e481d5cd95960521b604482015260640161025f565b7f19457468657265756d205369676e6564204d6573736167653a0a3332000000006000908152601c849052603c8120906121818285612243565b6002546001600160a01b0390811691161495945050505050565b60006121a78383611698565b156120dc576000838152602081815260408083206001600160a01b0386168085529252808320805460ff1916905551339286917ff6391f5c32d9c69d2a47ea670b442974b53935d1edc7fd64eb21e047a839171b9190a4506001610760565b6122108282611698565b61223f5760405163e2517d3f60e01b81526001600160a01b03821660048201526024810183905260440161025f565b5050565b600080600080612253868661226d565b92509250925061226382826122ba565b5090949350505050565b600080600083516041036122a75760208401516040850151606086015160001a61229988828585612373565b9550955095505050506122b3565b50508151600091506002905b9250925092565b60008260038111156122ce576122ce612aa6565b036122d7575050565b60018260038111156122eb576122eb612aa6565b036123095760405163f645eedf60e01b815260040160405180910390fd5b600282600381111561231d5761231d612aa6565b0361233e5760405163fce698f760e01b81526004810182905260240161025f565b600382600381111561235257612352612aa6565b0361223f576040516335e2f38360e21b81526004810182905260240161025f565b600080807f7fffffffffffffffffffffffffffffff5d576e7357a4501ddfe92f46681b20a08411156123ae5750600091506003905082612438565b604080516000808252602082018084528a905260ff891692820192909252606081018790526080810186905260019060a0016020604051602081039080840390855afa158015612402573d6000803e3d6000fd5b5050604051601f1901519150506001600160a01b03811661242e57506000925060019150829050612438565b9250600091508190505b9450945094915050565b60006020828403121561245457600080fd5b81356001600160e01b03198116811461246c57600080fd5b9392505050565b60006020828403121561248557600080fd5b5035919050565b6001600160a01b038116811461204f57600080fd5b600080604083850312156124b457600080fd5b8235915060208301356124c68161248c565b809150509250929050565b634e487b7160e01b600052604160045260246000fd5b600067ffffffffffffffff80841115612502576125026124d1565b604051601f8501601f19908116603f0116810190828211818310171561252a5761252a6124d1565b8160405280935085815286868601111561254357600080fd5b858560208301376000602087830101525050509392505050565b600082601f83011261256e57600080fd5b61246c838335602085016124e7565b60008060006060848603121561259257600080fd5b8335925060208401359150604084013567ffffffffffffffff8111156125b757600080fd5b6125c38682870161255d565b9150509250925092565b600080600080608085870312156125e357600080fd5b8435935060208501359250604085013567ffffffffffffffff8082111561260957600080fd5b818701915087601f83011261261d57600080fd5b61262c888335602085016124e7565b9350606087013591508082111561264257600080fd5b5061264f8782880161255d565b91505092959194509250565b6000806000806080858703121561267157600080fd5b843593506020850135925060408501359150606085013567ffffffffffffffff81111561269d57600080fd5b61264f8782880161255d565b6000602082840312156126bb57600080fd5b813561246c8161248c565b600080600080600060a086880312156126de57600080fd5b85356126e98161248c565b9450602086013593506040860135925060608601359150608086013567ffffffffffffffff81111561271a57600080fd5b6127268882890161255d565b9150509295509295909350565b60005b8381101561274e578181015183820152602001612736565b50506000910152565b6000815180845261276f816020860160208601612733565b601f01601f19169290920160200192915050565b6020815281516020820152602082015160408201526000604083015160c060608401526127b360e0840182612757565b9050606084015115156080840152608084015160a084015260a084015160c08401528091505092915050565b634e487b7160e01b600052601160045260246000fd5b8082028115828204841417610760576107606127df565b602080825260119082015270506f6c696379206e6f742061637469766560781b604082015260600190565b94855260609390931b6001600160601b031916602085015260348401919091526054830152607482015260940190565b602080825260119082015270496e76616c6964207369676e617475726560781b604082015260600190565b80820180821115610760576107606127df565b6020808252601f908201527f5265656e7472616e637947756172643a207265656e7472616e742063616c6c00604082015260600190565b848152836020820152600083516128fa816040850160208801612733565b6040920191820192909252606001949350505050565b600181811c9082168061292457607f821691505b60208210810361294457634e487b7160e01b600052602260045260246000fd5b50919050565b601f821115610ae057600081815260208120601f850160051c810160208610156129715750805b601f850160051c820191505b818110156129905782815560010161297d565b505050505050565b815167ffffffffffffffff8111156129b2576129b26124d1565b6129c6816129c08454612910565b8461294a565b602080601f8311600181146129fb57600084156129e35750858301515b600019600386901b1c1916600185901b178555612990565b600085815260208120601f198616915b82811015612a2a57888601518255948401946001909101908401612a0b565b5085821015612a485787850151600019600388901b60f8161c191681555b5050505050600190811b01905550565b8281526040602082015260006120186040830184612757565b81810381811115610760576107606127df565b600082612aa157634e487b7160e01b600052601260045260246000fd5b500490565b634e487b7160e01b600052602160045260246000fdfea49807205ce4d355092ef5a8a18f56e8913cf4a201fbe287825b095693c21775a26469706673582212204f58b6b2e31bfa1552df88fab33e0ef043cdd96d7623774692c456ff5f75b1ec64736f6c63430008140033",
  "linkReferences": {},
  "deployedLinkReferences": {}
}