{
  "_format": "hh-sol-artifact-1",
  "contractName": "HealthCareLite",
  "sourceName": "contracts/plans/HealthCareLite.sol",
  "abi": [
    {
      "inputs": [
        {
          "internalType": "address",
          "name": "_trustedSigner",
          "type": "address"
        },
        {
          "internalType": "address",
          "name": "_vault",
          "type": "address"
        }
      ],
      "stateMutability": "nonpayable",
      "type": "constructor"
    },
    {
      "inputs": [],
      "name": "AccessControlBadConfirmation",
      "type": "error"
    },
    {
      "inputs": [
        {
          "internalType": "address",
          "name": "account",
          "type": "address"
        },
        {
          "internalType": "bytes32",
          "name": "neededRole",
          "type": "bytes32"
        }
      ],
      "name": "AccessControlUnauthorizedAccount",
      "type": "error"
    },
    {
      "anonymous": false,
      "inputs": [
        {
          "indexed": true,
          "internalType": "address",
          "name": "admin",
          "type": "address"
        }
      ],
      "name": "AdminGranted",
      "type": "event"
    },
    {
      "anonymous": false,
      "inputs": [
        {
          "indexed": true,
          "internalType": "bytes32",
          "name": "policyId",
          "type": "bytes32"
        },
        {
          "indexed": true,
          "internalType": "address",
          "name": "owner",
          "type": "address"
        },
        {
          "indexed": false,
          "internalType": "uint256",
          "name": "amount",
          "type": "uint256"
        }
      ],
      "name": "ClaimApproved",
      "type": "event"
    },
    {
      "anonymous": false,
      "inputs": [
        {
          "indexed": false,
          "internalType": "uint256",
          "name": "oldPeriod",
          "type": "uint256"
        },
        {
          "indexed": false,
          "internalType": "uint256",
          "name": "newPeriod",
          "type": "uint256"
        }
      ],
      "name": "ClaimExpiryPeriodUpdated",
      "type": "event"
    },
    {
      "anonymous": false,
      "inputs": [
        {
          "indexed": true,
          "internalType": "bytes32",
          "name": "policyId",
          "type": "bytes32"
        },
        {
          "indexed": true,
          "internalType": "address",
          "name": "owner",
          "type": "address"
        },
        {
          "indexed": false,
          "internalType": "uint256",
          "name": "amount",
          "type": "uint256"
        },
        {
          "indexed": false,
          "internalType": "string",
          "name": "documentHash",
          "type": "string"
        }
      ],
      "name": "ClaimFiled",
      "type": "event"
    },
    {
      "anonymous": false,
      "inputs": [
        {
          "indexed": true,
          "internalType": "bytes32",
          "name": "policyId",
          "type": "bytes32"
        },
        {
          "indexed": true,
          "internalType": "address",
          "name": "beneficiary",
          "type": "address"
        },
        {
          "indexed": false,
          "internalType": "uint256",
          "name": "amount",
          "type": "uint256"
        }
      ],
      "name": "ClaimTransferred",
      "type": "event"
    },
    {
      "anonymous": false,
      "inputs": [
        {
          "indexed": true,
          "internalType": "bytes32",
          "name": "policyId",
          "type": "bytes32"
        },
        {
          "indexed": true,
          "internalType": "address",
          "name": "owner",
          "type": "address"
        },
        {
          "indexed": false,
          "internalType": "uint256",
          "name": "refundAmount",
          "type": "uint256"
        }
      ],
      "name": "PolicyCancelled",
      "type": "event"
    },
    {
      "anonymous": false,
      "inputs": [
        {
          "indexed": true,
          "internalType": "bytes32",
          "name": "policyId",
          "type": "bytes32"
        },
        {
          "indexed": true,
          "internalType": "address",
          "name": "owner",
          "type": "address"
        }
      ],
      "name": "PolicyExpired",
      "type": "event"
    },
    {
      "anonymous": false,
      "inputs": [
        {
          "indexed": true,
          "internalType": "bytes32",
          "name": "policyId",
          "type": "bytes32"
        },
        {
          "indexed": true,
          "internalType": "address",
          "name": "owner",
          "type": "address"
        },
        {
          "indexed": false,
          "internalType": "uint256",
          "name": "premium",
          "type": "uint256"
        },
        {
          "indexed": false,
          "internalType": "uint256",
          "name": "sumAssured",
          "type": "uint256"
        },
        {
          "indexed": false,
          "internalType": "uint256",
          "name": "expiry",
          "type": "uint256"
        }
      ],
      "name": "PolicyPurchased",
      "type": "event"
    },
    {
      "anonymous": false,
      "inputs": [
        {
          "indexed": true,
          "internalType": "bytes32",
          "name": "policyId",
          "type": "bytes32"
        },
        {
          "indexed": true,
          "internalType": "address",
          "name": "owner",
          "type": "address"
        },
        {
          "indexed": false,
          "internalType": "uint256",
          "name": "refundAmount",
          "type": "uint256"
        }
      ],
      "name": "PolicyRefunded",
      "type": "event"
    },
    {
      "anonymous": false,
      "inputs": [
        {
          "indexed": true,
          "internalType": "bytes32",
          "name": "policyId",
          "type": "bytes32"
        },
        {
          "indexed": true,
          "internalType": "address",
          "name": "owner",
          "type": "address"
        },
        {
          "indexed": false,
          "internalType": "uint256",
          "name": "premium",
          "type": "uint256"
        },
        {
          "indexed": false,
          "internalType": "uint256",
          "name": "newExpiry",
          "type": "uint256"
        }
      ],
      "name": "PolicyRenewed",
      "type": "event"
    },
    {
      "anonymous": false,
      "inputs": [
        {
          "indexed": true,
          "internalType": "bytes32",
          "name": "policyId",
          "type": "bytes32"
        },
        {
          "indexed": true,
          "internalType": "address",
          "name": "owner",
          "type": "address"
        },
        {
          "indexed": false,
          "internalType": "uint256",
          "name": "newExpiry",
          "type": "uint256"
        }
      ],
      "name": "PolicyRenewed",
      "type": "event"
    },
    {
      "anonymous": false,
      "inputs": [
        {
          "indexed": true,
          "internalType": "bytes32",
          "name": "policyId",
          "type": "bytes32"
        },
        {
          "indexed": true,
          "internalType": "address",
          "name": "user",
          "type": "address"
        },
        {
          "indexed": false,
          "internalType": "uint256",
          "name": "premium",
          "type": "uint256"
        }
      ],
      "name": "PremiumCalculated",
      "type": "event"
    },
    {
      "anonymous": false,
      "inputs": [
        {
          "indexed": true,
          "internalType": "bytes32",
          "name": "policyId",
          "type": "bytes32"
        },
        {
          "indexed": true,
          "internalType": "address",
          "name": "owner",
          "type": "address"
        },
        {
          "indexed": false,
          "internalType": "uint256",
          "name": "amount",
          "type": "uint256"
        }
      ],
      "name": "RefundIssued",
      "type": "event"
    },
    {
      "anonymous": false,
      "inputs": [
        {
          "indexed": true,
          "internalType": "bytes32",
          "name": "role",
          "type": "bytes32"
        },
        {
          "indexed": true,
          "internalType": "bytes32",
          "name": "previousAdminRole",
          "type": "bytes32"
        },
        {
          "indexed": true,
          "internalType": "bytes32",
          "name": "newAdminRole",
          "type": "bytes32"
        }
      ],
      "name": "RoleAdminChanged",
      "type": "event"
    },
    {
      "anonymous": false,
      "inputs": [
        {
          "indexed": true,
          "internalType": "bytes32",
          "name": "role",
          "type": "bytes32"
        },
        {
          "indexed": true,
          "internalType": "address",
          "name": "account",
          "type": "address"
        },
        {
          "indexed": true,
          "internalType": "address",
          "name": "sender",
          "type": "address"
        }
      ],
      "name": "RoleGranted",
      "type": "event"
    },
    {
      "anonymous": false,
      "inputs": [
        {
          "indexed": true,
          "internalType": "bytes32",
          "name": "role",
          "type": "bytes32"
        },
        {
          "indexed": true,
          "internalType": "address",
          "name": "account",
          "type": "address"
        },
        {
          "indexed": true,
          "internalType": "address",
          "name": "sender",
          "type": "address"
        }
      ],
      "name": "RoleRevoked",
      "type": "event"
    },
    {
      "anonymous": false,
      "inputs": [
        {
          "indexed": true,
          "internalType": "address",
          "name": "oldSigner",
          "type": "address"
        },
        {
          "indexed": true,
          "internalType": "address",
          "name": "newSigner",
          "type": "address"
        }
      ],
      "name": "TrustedSignerUpdated",
      "type": "event"
    },
    {
      "anonymous": false,
      "inputs": [
        {
          "indexed": false,
          "internalType": "address",
          "name": "newVault",
          "type": "address"
        }
      ],
      "name": "VaultUpdated",
      "type": "event"
    },
    {
      "inputs": [],
      "name": "ADMIN_ROLE",
      "outputs": [
        {
          "internalType": "bytes32",
          "name": "",
          "type": "bytes32"
        }
      ],
      "stateMutability": "view",
      "type": "function"
    },
    {
      "inputs": [],
      "name": "DEFAULT_ADMIN_ROLE",
      "outputs": [
        {
          "internalType": "bytes32",
          "name": "",
          "type": "bytes32"
        }
      ],
      "stateMutability": "view",
      "type": "function"
    },
    {
      "inputs": [
        {
          "internalType": "bytes32",
          "name": "policyId",
          "type": "bytes32"
        }
      ],
      "name": "approveClaim",
      "outputs": [
        {
          "internalType": "uint256",
          "name": "",
          "type": "uint256"
        }
      ],
      "stateMutability": "nonpayable",
      "type": "function"
    },
    {
      "inputs": [
        {
          "internalType": "bytes32",
          "name": "policyId",
          "type": "bytes32"
        }
      ],
      "name": "calculateRefund",
      "outputs": [
        {
          "internalType": "uint256",
          "name": "",
          "type": "uint256"
        }
      ],
      "stateMutability": "view",
      "type": "function"
    },
    {
      "inputs": [
        {
          "internalType": "bytes32",
          "name": "policyId",
          "type": "bytes32"
        },
        {
          "internalType": "uint256",
          "name": "refundAmount",
          "type": "uint256"
        },
        {
          "internalType": "bytes",
          "name": "signature",
          "type": "bytes"
        }
      ],
      "name": "cancelPolicy",
      "outputs": [],
      "stateMutability": "nonpayable",
      "type": "function"
    },
    {
      "inputs": [],
      "name": "claimExpiryPeriod",
      "outputs": [
        {
          "internalType": "uint256",
          "name": "",
          "type": "uint256"
        }
      ],
      "stateMutability": "view",
      "type": "function"
    },
    {
      "inputs": [
        {
          "internalType": "uint256",
          "name": "amount",
          "type": "uint256"
        }
      ],
      "name": "emergencyWithdraw",
      "outputs": [],
      "stateMutability": "nonpayable",
      "type": "function"
    },
    {
      "inputs": [
        {
          "internalType": "bytes32",
          "name": "policyId",
          "type": "bytes32"
        },
        {
          "internalType": "uint256",
          "name": "amount",
          "type": "uint256"
        },
        {
          "internalType": "string",
          "name": "documentHash",
          "type": "string"
        },
        {
          "internalType": "bytes",
          "name": "signature",
          "type": "bytes"
        }
      ],
      "name": "fileClaim",
      "outputs": [],
      "stateMutability": "nonpayable",
      "type": "function"
    },
    {
      "inputs": [
        {
          "internalType": "bytes32",
          "name": "policyId",
          "type": "bytes32"
        }
      ],
      "name": "getClaim",
      "outputs": [
        {
          "components": [
            {
              "internalType": "bytes32",
              "name": "policyId",
              "type": "bytes32"
            },
            {
              "internalType": "uint256",
              "name": "amount",
              "type": "uint256"
            },
            {
              "internalType": "string",
              "name": "documentHash",
              "type": "string"
            },
            {
              "internalType": "bool",
              "name": "isPending",
              "type": "bool"
            },
            {
              "internalType": "uint256",
              "name": "createdAt",
              "type": "uint256"
            },
            {
              "internalType": "uint256",
              "name": "expiryTimestamp",
              "type": "uint256"
            }
          ],
          "internalType": "struct PolicyBase.ClaimRequest",
          "name": "",
          "type": "tuple"
        }
      ],
      "stateMutability": "view",
      "type": "function"
    },
    {
      "inputs": [
        {
          "internalType": "bytes32",
          "name": "policyId",
          "type": "bytes32"
        }
      ],
      "name": "getPolicy",
      "outputs": [
        {
          "components": [
            {
              "internalType": "bytes32",
              "name": "policyId",
              "type": "bytes32"
            },
            {
              "internalType": "address",
              "name": "owner",
              "type": "address"
            },
            {
              "internalType": "uint256",
              "name": "premium",
              "type": "uint256"
            },
            {
              "internalType": "uint256",
              "name": "sumAssured",
              "type": "uint256"
            },
            {
              "internalType": "uint256",
              "name": "expiry",
              "type": "uint256"
            },
            {
              "internalType": "bool",
              "name": "isActive",
              "type": "bool"
            },
            {
              "internalType": "bool",
              "name": "isClaimed",
              "type": "bool"
            },
            {
              "internalType": "uint256",
              "name": "createdAt",
              "type": "uint256"
            }
          ],
          "internalType": "struct PolicyBase.Policy",
          "name": "",
          "type": "tuple"
        }
      ],
      "stateMutability": "view",
      "type": "function"
    },
    {
      "inputs": [
        {
          "internalType": "bytes32",
          "name": "policyId",
          "type": "bytes32"
        }
      ],
      "name": "getRemainingCoverage",
      "outputs": [
        {
          "internalType": "uint256",
          "name": "",
          "type": "uint256"
        }
      ],
      "stateMutability": "view",
      "type": "function"
    },
    {
      "inputs": [
        {
          "internalType": "bytes32",
          "name": "role",
          "type": "bytes32"
        }
      ],
      "name": "getRoleAdmin",
      "outputs": [
        {
          "internalType": "bytes32",
          "name": "",
          "type": "bytes32"
        }
      ],
      "stateMutability": "view",
      "type": "function"
    },
    {
      "inputs": [
        {
          "internalType": "address",
          "name": "newAdmin",
          "type": "address"
        }
      ],
      "name": "grantAdminRole",
      "outputs": [],
      "stateMutability": "nonpayable",
      "type": "function"
    },
    {
      "inputs": [
        {
          "internalType": "bytes32",
          "name": "role",
          "type": "bytes32"
        },
        {
          "internalType": "address",
          "name": "account",
          "type": "address"
        }
      ],
      "name": "grantRole",
      "outputs": [],
      "stateMutability": "nonpayable",
      "type": "function"
    },
    {
      "inputs": [
        {
          "internalType": "bytes32",
          "name": "role",
          "type": "bytes32"
        },
        {
          "internalType": "address",
          "name": "account",
          "type": "address"
        }
      ],
      "name": "hasRole",
      "outputs": [
        {
          "internalType": "bool",
          "name": "",
          "type": "bool"
        }
      ],
      "stateMutability": "view",
      "type": "function"
    },
    {
      "inputs": [
        {
          "internalType": "bytes32",
          "name": "policyId",
          "type": "bytes32"
        }
      ],
      "name": "markExpiredPolicy",
      "outputs": [],
      "stateMutability": "nonpayable",
      "type": "function"
    },
    {
      "inputs": [
        {
          "internalType": "address",
          "name": "owner",
          "type": "address"
        },
        {
          "internalType": "bytes",
          "name": "policyData",
          "type": "bytes"
        },
        {
          "internalType": "uint256",
          "name": "premium",
          "type": "uint256"
        },
        {
          "internalType": "uint256",
          "name": "sumAssured",
          "type": "uint256"
        },
        {
          "internalType": "uint256",
          "name": "",
          "type": "uint256"
        },
        {
          "internalType": "bytes",
          "name": "signature",
          "type": "bytes"
        }
      ],
      "name": "purchaseHealthPolicy",
      "outputs": [],
      "stateMutability": "payable",
      "type": "function"
    },
    {
      "inputs": [
        {
          "internalType": "address",
          "name": "owner",
          "type": "address"
        },
        {
          "internalType": "bytes",
          "name": "policyData",
          "type": "bytes"
        },
        {
          "internalType": "uint256",
          "name": "premium",
          "type": "uint256"
        },
        {
          "internalType": "uint256",
          "name": "sumAssured",
          "type": "uint256"
        },
        {
          "internalType": "uint256",
          "name": "duration",
          "type": "uint256"
        },
        {
          "internalType": "bytes",
          "name": "signature",
          "type": "bytes"
        }
      ],
      "name": "purchasePolicy",
      "outputs": [],
      "stateMutability": "payable",
      "type": "function"
    },
    {
      "inputs": [
        {
          "internalType": "bytes32",
          "name": "policyId",
          "type": "bytes32"
        },
        {
          "internalType": "uint256",
          "name": "premium",
          "type": "uint256"
        },
        {
          "internalType": "uint256",
          "name": "",
          "type": "uint256"
        },
        {
          "internalType": "bytes",
          "name": "signature",
          "type": "bytes"
        }
      ],
      "name": "renewPolicy",
      "outputs": [],
      "stateMutability": "payable",
      "type": "function"
    },
    {
      "inputs": [
        {
          "internalType": "bytes32",
          "name": "role",
          "type": "bytes32"
        },
        {
          "internalType": "address",
          "name": "callerConfirmation",
          "type": "address"
        }
      ],
      "name": "renounceRole",
      "outputs": [],
      "stateMutability": "nonpayable",
      "type": "function"
    },
    {
      "inputs": [
        {
          "internalType": "address",
          "name": "admin",
          "type": "address"
        }
      ],
      "name": "revokeAdminRole",
      "outputs": [],
      "stateMutability": "nonpayable",
      "type": "function"
    },
    {
      "inputs": [
        {
          "internalType": "bytes32",
          "name": "role",
          "type": "bytes32"
        },
        {
          "internalType": "address",
          "name": "account",
          "type": "address"
        }
      ],
      "name": "revokeRole",
      "outputs": [],
      "stateMutability": "nonpayable",
      "type": "function"
    },
    {
      "inputs": [
        {
          "internalType": "uint256",
          "name": "periodInDays",
          "type": "uint256"
        }
      ],
      "name": "setClaimExpiryPeriod",
      "outputs": [],
      "stateMutability": "nonpayable",
      "type": "function"
    },
    {
      "inputs": [
        {
          "internalType": "address",
          "name": "newSigner",
          "type": "address"
        }
      ],
      "name": "setTrustedSigner",
      "outputs": [],
      "stateMutability": "nonpayable",
      "type": "function"
    },
    {
      "inputs": [
        {
          "internalType": "address",
          "name": "_vault",
          "type": "address"
        }
      ],
      "name": "setVault",
      "outputs": [],
      "stateMutability": "nonpayable",
      "type": "function"
    },
    {
      "inputs": [
        {
          "internalType": "bytes4",
          "name": "interfaceId",
          "type": "bytes4"
        }
      ],
      "name": "supportsInterface",
      "outputs": [
        {
          "internalType": "bool",
          "name": "",
          "type": "bool"
        }
      ],
      "stateMutability": "view",
      "type": "function"
    },
    {
      "inputs": [],
      "name": "trustedSigner",
      "outputs": [
        {
          "internalType": "address",
          "name": "",
          "type": "address"
        }
      ],
      "stateMutability": "view",
      "type": "function"
    },
    {
      "inputs": [],
      "name": "vault",
      "outputs": [
        {
          "internalType": "contract InsuranceVault",
          "name": "",
          "type": "address"
        }
      ],
      "stateMutability": "view",
      "type": "function"
    },
    {
      "stateMutability": "payable",
      "type": "receive"
    }
  ],
  "bytecode": "0x608060405262093a806003553480156200001857600080fd5b5060405162002d7138038062002d718339810160408190526200003b9162000236565b816001600160a01b038116620000985760405162461bcd60e51b815260206004820152601660248201527f496e76616c6964207369676e657220616464726573730000000000000000000060448201526064015b60405180910390fd5b620000a56000336200016a565b50620000d27fa49807205ce4d355092ef5a8a18f56e8913cf4a201fbe287825b095693c21775336200016a565b50600280546001600160a01b0319166001600160a01b03928316179055600180558116620001435760405162461bcd60e51b815260206004820152601560248201527f496e76616c6964207661756c742061646472657373000000000000000000000060448201526064016200008f565b600780546001600160a01b0319166001600160a01b0392909216919091179055506200026e565b6000828152602081815260408083206001600160a01b038516845290915281205460ff166200020f576000838152602081815260408083206001600160a01b03861684529091529020805460ff19166001179055620001c63390565b6001600160a01b0316826001600160a01b0316847f2f8788117e7eff1d82e926ec794901d17c78024a50270940304540a733656f0d60405160405180910390a450600162000213565b5060005b92915050565b80516001600160a01b03811681146200023157600080fd5b919050565b600080604083850312156200024a57600080fd5b620002558362000219565b9150620002656020840162000219565b90509250929050565b612af3806200027e6000396000f3fe6080604052600436106101bb5760003560e01c80638c51f60f116100ec578063b7d67c721161008a578063cb80486011610064578063cb804860146105f1578063d547741f14610611578063f74d548014610631578063fbfa77cf1461066957600080fd5b8063b7d67c7214610591578063c634b78e146105a4578063c9100bcb146105c457600080fd5b8063a217fddf116100c6578063a217fddf14610407578063a3f685f91461041c578063b0529da21461055e578063b0aa49271461057e57600080fd5b80638c51f60f146103a757806391d14854146103c75780639a19c7b0146103e757600080fd5b80633719f096116101595780635312ea8e116101335780635312ea8e1461032557806356a1c701146103455780636817031b1461036557806375b238fc1461038557600080fd5b80633719f096146102d25780634059442d146102f25780634e494b7c1461031257600080fd5b80632f2ff15d116101955780632f2ff15d1461025c5780632fe1814c1461027c57806330d95b531461029c57806336568abe146102b257600080fd5b806301ffc9a7146101c757806319c0d1fa146101fc578063248a9ca31461021e57600080fd5b366101c257005b600080fd5b3480156101d357600080fd5b506101e76101e23660046123db565b610689565b60405190151581526020015b60405180910390f35b34801561020857600080fd5b5061021c61021736600461240c565b6106c0565b005b34801561022a57600080fd5b5061024e61023936600461240c565b60009081526020819052604090206001015490565b6040519081526020016101f3565b34801561026857600080fd5b5061021c610277366004612441565b610774565b34801561028857600080fd5b5061021c610297366004612519565b61079f565b3480156102a857600080fd5b5061024e60035481565b3480156102be57600080fd5b5061021c6102cd366004612441565b6109fc565b3480156102de57600080fd5b5061024e6102ed36600461240c565b610a34565b3480156102fe57600080fd5b5061021c61030d366004612569565b610c9f565b61021c6103203660046125f7565b610fb7565b34801561033157600080fd5b5061021c61034036600461240c565b6112d8565b34801561035157600080fd5b5061021c610360366004612645565b611431565b34801561037157600080fd5b5061021c610380366004612645565b6114de565b34801561039157600080fd5b5061024e600080516020612a9e83398151915281565b3480156103b357600080fd5b5061024e6103c236600461240c565b611599565b3480156103d357600080fd5b506101e76103e2366004612441565b611695565b3480156103f357600080fd5b5061021c610402366004612645565b6116be565b34801561041357600080fd5b5061024e600081565b34801561042857600080fd5b506104f561043736600461240c565b6040805161010081018252600080825260208201819052918101829052606081018290526080810182905260a0810182905260c0810182905260e081019190915250600090815260046020818152604092839020835161010080820186528254825260018301546001600160a01b03169382019390935260028201549481019490945260038101546060850152918201546080840152600582015460ff808216151560a086015291900416151560c08301526006015460e082015290565b6040516101f39190815181526020808301516001600160a01b03169082015260408083015190820152606080830151908201526080808301519082015260a08083015115159082015260c08083015115159082015260e091820151918101919091526101000190565b34801561056a57600080fd5b5061021c61057936600461240c565b61177c565b61021c61058c366004612660565b611847565b61021c61059f366004612660565b611c7a565b3480156105b057600080fd5b5061021c6105bf366004612645565b611db7565b3480156105d057600080fd5b506105e46105df36600461240c565b611e61565b6040516101f39190612740565b3480156105fd57600080fd5b5061024e61060c36600461240c565b611f8d565b34801561061d57600080fd5b5061021c61062c366004612441565b612053565b34801561063d57600080fd5b50600254610651906001600160a01b031681565b6040516001600160a01b0390911681526020016101f3565b34801561067557600080fd5b50600754610651906001600160a01b031681565b60006001600160e01b03198216637965db0b60e01b14806106ba57506301ffc9a760e01b6001600160e01b03198316145b92915050565b60006106cb81612078565b600082116107205760405162461bcd60e51b815260206004820152601760248201527f506572696f64206d75737420626520706f73697469766500000000000000000060448201526064015b60405180910390fd5b60035461073083620151806127b2565b60038190556040805183815260208101929092527fb792057619e1a3b0e2768725ef4cb4fc3cbf647c992d306e6876522e3fc0cdbc910160405180910390a1505050565b60008281526020819052604090206001015461078f81612078565b6107998383612085565b50505050565b600080516020612a9e8339815191526107b781612078565b600084815260046020526040902060050154849060ff166107ea5760405162461bcd60e51b8152600401610717906127c9565b6000858152600460205260409020600581015460ff1661081c5760405162461bcd60e51b8152600401610717906127c9565b6005810154610100900460ff161561086f5760405162461bcd60e51b8152602060048201526016602482015275141bdb1a58de48185b1c9958591e4818db185a5b595960521b6044820152606401610717565b60408051602081018890529081018690524660608201526000906080016040516020818303038152906040528051906020012090506108ae8186612117565b6108ca5760405162461bcd60e51b8152600401610717906127f4565b8451602080870191909120600090815260069091526040908190208054600160ff1991821681179092556005850180549091169055600754908401549151631f9cab4760e21b81526001600160a01b03928316600482015260248101899052911690637e72ad1c90604401600060405180830381600087803b15801561094f57600080fd5b505af1158015610963573d6000803e3d6000fd5b5050505060018201546040518781526001600160a01b039091169088907fae2eb9a5ff7e26865940377aafb8a569997727d3bc48028ed88199eed260087f9060200160405180910390a360018201546040518781526001600160a01b039091169088907feffda959fad3422ef4e602f1642198e56536dbbf192da630dcbc451b5b5c203d9060200160405180910390a350505050505050565b6001600160a01b0381163314610a255760405163334bd91960e11b815260040160405180910390fd5b610a2f82826121ee565b505050565b6000600080516020612a9e833981519152610a4e81612078565b600083815260046020526040902060050154839060ff16610a815760405162461bcd60e51b8152600401610717906127c9565b60008481526005602090815260408083206004909252909120600382015460ff16610ae15760405162461bcd60e51b815260206004820152601060248201526f4e6f2070656e64696e6720636c61696d60801b6044820152606401610717565b8160050154421115610b2d5760405162461bcd60e51b815260206004820152601560248201527410db185a5b481c995c5d595cdd08195e1c1a5c9959605a1b6044820152606401610717565b60038201805460ff19169055600182015460008781526008602052604081208054909190610b5c90849061281f565b9091555050600381015460008781526008602052604090205410610b8c5760058101805461ffff19166101001790555b60075460018281015490840154604051631e55af2160e31b81526001600160a01b039283166004820152602481019190915291169063f2ad790890604401600060405180830381600087803b158015610be457600080fd5b505af1158015610bf8573d6000803e3d6000fd5b50505050600181810154908301546040519081526001600160a01b039091169087907f636494174e4a0f872de31b104ec14fb50edb1bdc4b1db9f006eaa68a61610f9c9060200160405180910390a3600181810154908301546040519081526001600160a01b039091169087907f957a909a771d0c1c8b37c8f5c6c9df37d8d7c521d3d99445839ede9153d063589060200160405180910390a35060010154949350505050565b600260015403610cc15760405162461bcd60e51b815260040161071790612832565b6002600155600084815260046020526040902060050154849060ff16610cf95760405162461bcd60e51b8152600401610717906127c9565b600085815260046020526040902060018101546001600160a01b03163314610d5a5760405162461bcd60e51b81526020600482015260146024820152732737ba103a3432903837b634b1bc9037bbb732b960611b6044820152606401610717565b8060030154851115610dae5760405162461bcd60e51b815260206004820152601960248201527f436c61696d20657863656564732073756d2061737375726564000000000000006044820152606401610717565b6005810154610100900460ff1615610e015760405162461bcd60e51b8152602060048201526016602482015275141bdb1a58de48185b1c9958591e4818db185a5b595960521b6044820152606401610717565b80600401544210610e455760405162461bcd60e51b815260206004820152600e60248201526d141bdb1a58de48195e1c1a5c995960921b6044820152606401610717565b600086868646604051602001610e5e9493929190612869565b604051602081830303815290604052805190602001209050610e808185612117565b610e9c5760405162461bcd60e51b8152600401610717906127f4565b8351602080860191909120600090815260068252604090819020805460ff19166001908117909155815160c0810183528a81529283018990529082018790526060820152426080820181905260035460a0830191610efa919061281f565b905260008881526005602090815260409182902083518155908301516001820155908201516002820190610f2e9082612925565b50606082015160038201805460ff19169115159190911790556080820151600482015560a09091015160059091015560018201546040516001600160a01b039091169088907fc96b2a45efdafddb0d702bd3f580b163b3de51eaf6181152b2625544b7d0e43e90610fa2908a908a906129e5565b60405180910390a35050600180555050505050565b600084815260046020526040902060018101546001600160a01b031633146110185760405162461bcd60e51b81526020600482015260146024820152732737ba103a3432903837b634b1bc9037bbb732b960611b6044820152606401610717565b600581015460ff1661103c5760405162461bcd60e51b8152600401610717906127c9565b6005810154610100900460ff161561108d5760405162461bcd60e51b8152602060048201526014602482015273141bdb1a58de48199d5b1b1e4818db185a5b595960621b6044820152606401610717565b8334146110d75760405162461bcd60e51b8152602060048201526018602482015277125b98dbdc9c9958dd081c1c995b5a5d5b48185b5bdd5b9d60421b6044820152606401610717565b8060040154421015806110fc575062278d004282600401546110f991906129fe565b11155b61113d5760405162461bcd60e51b8152602060048201526012602482015271546f6f206561726c7920746f2072656e657760701b6044820152606401610717565b60408051602081018790529081018590526301e13380606082018190524660808301529060009060a0016040516020818303038152906040528051906020012090506111898185612117565b6111a55760405162461bcd60e51b8152600401610717906127f4565b8351602080860191909120600090815260069091526040808220805460ff1916600117905560075490516001600160a01b039091169034908381818185875af1925050503d8060008114611215576040519150601f19603f3d011682016040523d82523d6000602084013e61121a565b606091505b50509050806112635760405162461bcd60e51b815260206004820152601560248201527415985d5b1d081d1c985b9cd9995c8819985a5b1959605a1b6044820152606401610717565b60028401879055600088815260086020526040812055611283834261281f565b6004850181905560018501546040519182526001600160a01b03169089907fd76c10c04050183a8756b263683f10cad1b81e31626133344aa7749329d1a0fd9060200160405180910390a35050505050505050565b60006112e381612078565b6002600154036113055760405162461bcd60e51b815260040161071790612832565b6002600155816113575760405162461bcd60e51b815260206004820152601760248201527f416d6f756e74206d75737420626520706f7369746976650000000000000000006044820152606401610717565b4782111561139e5760405162461bcd60e51b8152602060048201526014602482015273496e73756666696369656e742062616c616e636560601b6044820152606401610717565b604051600090339084908381818185875af1925050503d80600081146113e0576040519150601f19603f3d011682016040523d82523d6000602084013e6113e5565b606091505b50509050806114285760405162461bcd60e51b815260206004820152600f60248201526e15da5d1a191c985dc819985a5b1959608a1b6044820152606401610717565b50506001805550565b600061143c81612078565b6001600160a01b03821661148b5760405162461bcd60e51b8152602060048201526016602482015275496e76616c6964207369676e6572206164647265737360501b6044820152606401610717565b600280546001600160a01b038481166001600160a01b0319831681179093556040519116919082907f4a297cf5d32586f80d2b0708a39d2da1f46e6ae7722171e1c51dfd685b5b8aa890600090a3505050565b600080516020612a9e8339815191526114f681612078565b6001600160a01b0382166115445760405162461bcd60e51b8152602060048201526015602482015274496e76616c6964207661756c74206164647265737360581b6044820152606401610717565b600780546001600160a01b0319166001600160a01b0384169081179091556040519081527f161584aed96e7f34998117c9ad67e2d21ff46d2a42775c22b11ed282f3c7b2cd9060200160405180910390a15050565b6000818152600460208181526040808420815161010080820184528254825260018301546001600160a01b03169482019490945260028201549281019290925260038101546060830152928301546080820152600583015460ff80821615801560a08501529390910416151560c082015260069092015460e083015280611624575080608001514210155b156116325750600092915050565b600042826080015161164491906129fe565b905060008260e00151836080015161165c91906129fe565b90508060000361167157506000949350505050565b8082846040015161168291906127b2565b61168c9190612a11565b95945050505050565b6000918252602082815260408084206001600160a01b0393909316845291905290205460ff1690565b60006116c981612078565b6001600160a01b0382166117175760405162461bcd60e51b8152602060048201526015602482015274496e76616c69642061646d696e206164647265737360581b6044820152606401610717565b336001600160a01b038316036117645760405162461bcd60e51b815260206004820152601260248201527121b0b73737ba103932bb37b5b29039b2b63360711b6044820152606401610717565b610a2f600080516020612a9e833981519152836121ee565b6000818152600460205260409020600581015460ff166117ae5760405162461bcd60e51b8152600401610717906127c9565b80600401544210156117fb5760405162461bcd60e51b8152602060048201526016602482015275141bdb1a58de481b9bdd08195e1c1a5c9959081e595d60521b6044820152606401610717565b60058101805460ff1916905560018101546040516001600160a01b039091169083907f8629ba1a018e1397c942e8dcf53afb2cfd0f250c02bc785e041010dfe6bbe00290600090a35050565b6002600154036118695760405162461bcd60e51b815260040161071790612832565b60026001556001600160a01b0386166118bc5760405162461bcd60e51b8152602060048201526015602482015274496e76616c6964206f776e6572206164647265737360581b6044820152606401610717565b6000841161190c5760405162461bcd60e51b815260206004820152601860248201527f5072656d69756d206d75737420626520706f73697469766500000000000000006044820152606401610717565b6000831161195c5760405162461bcd60e51b815260206004820152601c60248201527f53756d2061737375726564206d75737420626520706f736974697665000000006044820152606401610717565b600082116119ac5760405162461bcd60e51b815260206004820152601960248201527f4475726174696f6e206d75737420626520706f736974697665000000000000006044820152606401610717565b8334146119f65760405162461bcd60e51b8152602060048201526018602482015277125b98dbdc9c9958dd081c1c995b5a5d5b48185b5bdd5b9d60421b6044820152606401610717565b6000868686868646604051602001611a1396959493929190612a33565b604051602081830303815290604052805190602001209050611a358183612117565b611a515760405162461bcd60e51b8152600401610717906127f4565b81516020808401919091206000908152600690915260408120805460ff19166001179055611ac188426040516bffffffffffffffffffffffff19606084901b1660208201526034810182905260009060540160405160208183030381529060405280519060200120905092915050565b60008181526004602052604090206005015490915060ff1615611b1e5760405162461bcd60e51b8152602060048201526015602482015274506f6c69637920616c72656164792065786973747360581b6044820152606401610717565b604051806101000160405280828152602001896001600160a01b031681526020018781526020018681526020018542611b57919061281f565b8152600160208083018290526000604080850182905242606095860152868252600480845291819020865181559286015193830180546001600160a01b039095166001600160a01b03199095169490941790935591840151600282015591830151600383015560808301519082015560a082015160058201805460c085015115156101000261ff00199315159390931661ffff199091161791909117905560e090910151600690910155611c1681600090815260086020526040812055565b6001600160a01b038816817f105d821f4999dd4d79a889f0a0b1a1f6a5366615d06b4b7aef9e0a42a1de8cff8888611c4e894261281f565b6040805193845260208401929092529082015260600160405180910390a3505060018055505050505050565b6301e13380611c8d878787878587611847565b6007546040516000916001600160a01b03169034908381818185875af1925050503d8060008114611cda576040519150601f19603f3d011682016040523d82523d6000602084013e611cdf565b606091505b5050905080611d285760405162461bcd60e51b815260206004820152601560248201527415985d5b1d081d1c985b9cd9995c8819985a5b1959605a1b6044820152606401610717565b6040516bffffffffffffffffffffffff1960608a901b166020820152426034820152600090605401604051602081830303815290604052805190602001209050886001600160a01b0316817fb1efb5a54d173a08f1d7ae00e21150da481ac80d259826760104a5ba97be6fa889604051611da491815260200190565b60405180910390a3505050505050505050565b6000611dc281612078565b6001600160a01b038216611e105760405162461bcd60e51b8152602060048201526015602482015274496e76616c69642061646d696e206164647265737360581b6044820152606401610717565b611e28600080516020612a9e83398151915283612085565b506040516001600160a01b038316907f1c4e23de8d72c94b22992bd4d7b6786b215ba876af214ff63e6a0ca38fc97af490600090a25050565b611e9f6040518060c0016040528060008019168152602001600081526020016060815260200160001515815260200160008152602001600081525090565b600560008381526020019081526020016000206040518060c00160405290816000820154815260200160018201548152602001600282018054611ee19061289d565b80601f0160208091040260200160405190810160405280929190818152602001828054611f0d9061289d565b8015611f5a5780601f10611f2f57610100808354040283529160200191611f5a565b820191906000526020600020905b815481529060010190602001808311611f3d57829003601f168201915b5050509183525050600382015460ff16151560208201526004820154604082015260059091015460609091015292915050565b6000818152600460208181526040808420815161010080820184528254825260018301546001600160a01b03169482019490945260028201549281019290925260038101546060830152928301546080820152600583015460ff808216151560a084018190529390910416151560c082015260069092015460e08301526120175750600092915050565b6000838152600860205260409020546060820151811061203b575060009392505050565b80826060015161204b91906129fe565b949350505050565b60008281526020819052604090206001015461206e81612078565b61079983836121ee565b6120828133612259565b50565b60006120918383611695565b61210f576000838152602081815260408083206001600160a01b03861684529091529020805460ff191660011790556120c73390565b6001600160a01b0316826001600160a01b0316847f2f8788117e7eff1d82e926ec794901d17c78024a50270940304540a733656f0d60405160405180910390a45060016106ba565b5060006106ba565b805160208083019190912060009081526006909152604081205460ff161561217a5760405162461bcd60e51b815260206004820152601660248201527514da59db985d1d5c9948185b1c9958591e481d5cd95960521b6044820152606401610717565b6040517f19457468657265756d205369676e6564204d6573736167653a0a3332000000006020820152603c8101849052600090605c0160405160208183030381529060405280519060200120905060006121d48285612296565b6002546001600160a01b0390811691161495945050505050565b60006121fa8383611695565b1561210f576000838152602081815260408083206001600160a01b0386168085529252808320805460ff1916905551339286917ff6391f5c32d9c69d2a47ea670b442974b53935d1edc7fd64eb21e047a839171b9190a45060016106ba565b6122638282611695565b6122925760405163e2517d3f60e01b81526001600160a01b038216600482015260248101839052604401610717565b5050565b600081516041146122e95760405162461bcd60e51b815260206004820152601860248201527f496e76616c6964207369676e6174757265206c656e67746800000000000000006044820152606401610717565b60208201516040830151606084015160001a601b8110156123125761230f601b82612a84565b90505b8060ff16601b148061232757508060ff16601c145b6123735760405162461bcd60e51b815260206004820152601b60248201527f496e76616c6964207369676e6174757265202776272076616c756500000000006044820152606401610717565b60408051600081526020810180835288905260ff831691810191909152606081018490526080810183905260019060a0016020604051602081039080840390855afa1580156123c6573d6000803e3d6000fd5b5050604051601f190151979650505050505050565b6000602082840312156123ed57600080fd5b81356001600160e01b03198116811461240557600080fd5b9392505050565b60006020828403121561241e57600080fd5b5035919050565b80356001600160a01b038116811461243c57600080fd5b919050565b6000806040838503121561245457600080fd5b8235915061246460208401612425565b90509250929050565b634e487b7160e01b600052604160045260246000fd5b600067ffffffffffffffff8084111561249e5761249e61246d565b604051601f8501601f19908116603f011681019082821181831017156124c6576124c661246d565b816040528093508581528686860111156124df57600080fd5b858560208301376000602087830101525050509392505050565b600082601f83011261250a57600080fd5b61240583833560208501612483565b60008060006060848603121561252e57600080fd5b8335925060208401359150604084013567ffffffffffffffff81111561255357600080fd5b61255f868287016124f9565b9150509250925092565b6000806000806080858703121561257f57600080fd5b8435935060208501359250604085013567ffffffffffffffff808211156125a557600080fd5b818701915087601f8301126125b957600080fd5b6125c888833560208501612483565b935060608701359150808211156125de57600080fd5b506125eb878288016124f9565b91505092959194509250565b6000806000806080858703121561260d57600080fd5b843593506020850135925060408501359150606085013567ffffffffffffffff81111561263957600080fd5b6125eb878288016124f9565b60006020828403121561265757600080fd5b61240582612425565b60008060008060008060c0878903121561267957600080fd5b61268287612425565b9550602087013567ffffffffffffffff8082111561269f57600080fd5b6126ab8a838b016124f9565b965060408901359550606089013594506080890135935060a08901359150808211156126d657600080fd5b506126e389828a016124f9565b9150509295509295509295565b60005b8381101561270b5781810151838201526020016126f3565b50506000910152565b6000815180845261272c8160208601602086016126f0565b601f01601f19169290920160200192915050565b6020815281516020820152602082015160408201526000604083015160c0606084015261277060e0840182612714565b9050606084015115156080840152608084015160a084015260a084015160c08401528091505092915050565b634e487b7160e01b600052601160045260246000fd5b80820281158282048414176106ba576106ba61279c565b602080825260119082015270506f6c696379206e6f742061637469766560781b604082015260600190565b602080825260119082015270496e76616c6964207369676e617475726560781b604082015260600190565b808201808211156106ba576106ba61279c565b6020808252601f908201527f5265656e7472616e637947756172643a207265656e7472616e742063616c6c00604082015260600190565b848152836020820152600083516128878160408501602088016126f0565b6040920191820192909252606001949350505050565b600181811c908216806128b157607f821691505b6020821081036128d157634e487b7160e01b600052602260045260246000fd5b50919050565b601f821115610a2f57600081815260208120601f850160051c810160208610156128fe5750805b601f850160051c820191505b8181101561291d5782815560010161290a565b505050505050565b815167ffffffffffffffff81111561293f5761293f61246d565b6129538161294d845461289d565b846128d7565b602080601f83116001811461298857600084156129705750858301515b600019600386901b1c1916600185901b17855561291d565b600085815260208120601f198616915b828110156129b757888601518255948401946001909101908401612998565b50858210156129d55787850151600019600388901b60f8161c191681555b5050505050600190811b01905550565b82815260406020820152600061204b6040830184612714565b818103818111156106ba576106ba61279c565b600082612a2e57634e487b7160e01b600052601260045260246000fd5b500490565b6bffffffffffffffffffffffff198760601b16815260008651612a5d816014850160208b016126f0565b90910160148101959095525060348401929092526054830152607482015260940192915050565b60ff81811683821601908111156106ba576106ba61279c56fea49807205ce4d355092ef5a8a18f56e8913cf4a201fbe287825b095693c21775a2646970667358221220f3e247604d3b59d688749d47a1d19229a854a467e9d8982b973cf7a27b27356064736f6c63430008140033",
  "linkReferences": {},
  "deployedLinkReferences": {}
}