{
  "_format": "hh-sol-artifact-1",
  "contractName": "InsuranceVault",
  "sourceName": "contracts/utils/InsuranceVault.sol",
  "abi": [
    {
      "inputs": [
        {
          "internalType": "address",
          "name": "initialOwner",
          "type": "address"
        }
      ],
      "stateMutability": "nonpayable",
      "type": "constructor"
    },
    {
      "inputs": [
        {
          "internalType": "address",
          "name": "owner",
          "type": "address"
        }
      ],
      "name": "OwnableInvalidOwner",
      "type": "error"
    },
    {
      "inputs": [
        {
          "internalType": "address",
          "name": "account",
          "type": "address"
        }
      ],
      "name": "OwnableUnauthorizedAccount",
      "type": "error"
    },
    {
      "anonymous": false,
      "inputs": [
        {
          "indexed": true,
          "internalType": "address",
          "name": "to",
          "type": "address"
        },
        {
          "indexed": false,
          "internalType": "uint256",
          "name": "amount",
          "type": "uint256"
        }
      ],
      "name": "ClaimPaid",
      "type": "event"
    },
    {
      "anonymous": false,
      "inputs": [
        {
          "indexed": true,
          "internalType": "address",
          "name": "to",
          "type": "address"
        },
        {
          "indexed": false,
          "internalType": "uint256",
          "name": "amount",
          "type": "uint256"
        }
      ],
      "name": "FundWithdrawn",
      "type": "event"
    },
    {
      "anonymous": false,
      "inputs": [
        {
          "indexed": true,
          "internalType": "address",
          "name": "previousOwner",
          "type": "address"
        },
        {
          "indexed": true,
          "internalType": "address",
          "name": "newOwner",
          "type": "address"
        }
      ],
      "name": "OwnershipTransferred",
      "type": "event"
    },
    {
      "anonymous": false,
      "inputs": [
        {
          "indexed": true,
          "internalType": "address",
          "name": "user",
          "type": "address"
        },
        {
          "indexed": false,
          "internalType": "uint256",
          "name": "amount",
          "type": "uint256"
        }
      ],
      "name": "PremiumPaid",
      "type": "event"
    },
    {
      "anonymous": false,
      "inputs": [
        {
          "indexed": true,
          "internalType": "address",
          "name": "user",
          "type": "address"
        },
        {
          "indexed": false,
          "internalType": "uint256",
          "name": "amount",
          "type": "uint256"
        }
      ],
      "name": "RefundIssued",
      "type": "event"
    },
    {
      "inputs": [
        {
          "internalType": "address payable",
          "name": "to",
          "type": "address"
        },
        {
          "internalType": "uint256",
          "name": "amount",
          "type": "uint256"
        }
      ],
      "name": "approveClaim",
      "outputs": [],
      "stateMutability": "nonpayable",
      "type": "function"
    },
    {
      "inputs": [],
      "name": "getVaultBalance",
      "outputs": [
        {
          "internalType": "uint256",
          "name": "",
          "type": "uint256"
        }
      ],
      "stateMutability": "view",
      "type": "function"
    },
    {
      "inputs": [],
      "name": "owner",
      "outputs": [
        {
          "internalType": "address",
          "name": "",
          "type": "address"
        }
      ],
      "stateMutability": "view",
      "type": "function"
    },
    {
      "inputs": [],
      "name": "renounceOwnership",
      "outputs": [],
      "stateMutability": "nonpayable",
      "type": "function"
    },
    {
      "inputs": [
        {
          "internalType": "address payable",
          "name": "to",
          "type": "address"
        },
        {
          "internalType": "uint256",
          "name": "amount",
          "type": "uint256"
        }
      ],
      "name": "sendRefund",
      "outputs": [],
      "stateMutability": "nonpayable",
      "type": "function"
    },
    {
      "inputs": [
        {
          "internalType": "address",
          "name": "newOwner",
          "type": "address"
        }
      ],
      "name": "transferOwnership",
      "outputs": [],
      "stateMutability": "nonpayable",
      "type": "function"
    },
    {
      "inputs": [
        {
          "internalType": "address payable",
          "name": "to",
          "type": "address"
        },
        {
          "internalType": "uint256",
          "name": "amount",
          "type": "uint256"
        }
      ],
      "name": "withdrawFunds",
      "outputs": [],
      "stateMutability": "nonpayable",
      "type": "function"
    },
    {
      "stateMutability": "payable",
      "type": "receive"
    }
  ],
  "bytecode": "0x608060405234801561001057600080fd5b506040516108c23803806108c283398101604081905261002f916100be565b806001600160a01b03811661005e57604051631e4fbdf760e01b81526000600482015260240160405180910390fd5b6100678161006e565b50506100ee565b600080546001600160a01b038381166001600160a01b0319831681178455604051919092169283917f8be0079c531659141344cd1fd0a4f28419497f9722a3daafe3b4186f6b6457e09190a35050565b6000602082840312156100d057600080fd5b81516001600160a01b03811681146100e757600080fd5b9392505050565b6107c5806100fd6000396000f3fe6080604052600436106100745760003560e01c8063c10753291161004e578063c107532914610178578063ed12e8ef14610198578063f2ad7908146101b3578063f2fde38b146101d357600080fd5b8063715018a6146101145780637e72ad1c1461012b5780638da5cb5b1461014b57600080fd5b3661010f57600034116100d85760405162461bcd60e51b815260206004820152602160248201527f5072656d69756d206d7573742062652067726561746572207468616e207a65726044820152606f60f81b60648201526084015b60405180910390fd5b60405134815233907fa21795436a9f6a3b412fd6780f01a49907f2181e76e938496b0a41991d99b61c9060200160405180910390a2005b600080fd5b34801561012057600080fd5b506101296101f3565b005b34801561013757600080fd5b50610129610146366004610708565b610207565b34801561015757600080fd5b506000546040516001600160a01b0390911681526020015b60405180910390f35b34801561018457600080fd5b50610129610193366004610708565b610373565b3480156101a457600080fd5b5060405147815260200161016f565b3480156101bf57600080fd5b506101296101ce366004610708565b6104db565b3480156101df57600080fd5b506101296101ee366004610734565b610638565b6101fb610676565b61020560006106a3565b565b61020f610676565b8047101561022f5760405162461bcd60e51b81526004016100cf90610758565b6000811161028f5760405162461bcd60e51b815260206004820152602760248201527f526566756e6420616d6f756e74206d7573742062652067726561746572207468604482015266616e207a65726f60c81b60648201526084016100cf565b6000826001600160a01b03168260405160006040518083038185875af1925050503d80600081146102dc576040519150601f19603f3d011682016040523d82523d6000602084013e6102e1565b606091505b505090508061032b5760405162461bcd60e51b81526020600482015260166024820152751499599d5b99081d1c985b9cd9995c8819985a5b195960521b60448201526064016100cf565b826001600160a01b03167fa171b6942063c6f2800ce40a780edce37baa2b618571b11eedd1e69e626e7d768360405161036691815260200190565b60405180910390a2505050565b61037b610676565b8047101561039b5760405162461bcd60e51b81526004016100cf90610758565b600081116103fd5760405162461bcd60e51b815260206004820152602960248201527f576974686472617720616d6f756e74206d7573742062652067726561746572206044820152687468616e207a65726f60b81b60648201526084016100cf565b6000826001600160a01b03168260405160006040518083038185875af1925050503d806000811461044a576040519150601f19603f3d011682016040523d82523d6000602084013e61044f565b606091505b50509050806104a05760405162461bcd60e51b815260206004820152601860248201527f5769746864726177207472616e73666572206661696c6564000000000000000060448201526064016100cf565b826001600160a01b03167fa692503bc54c9f1d1483729b6058a24987097ff492084b1a8adf8cae08e4fb438360405161036691815260200190565b6104e3610676565b804710156105035760405162461bcd60e51b81526004016100cf90610758565b600081116105625760405162461bcd60e51b815260206004820152602660248201527f436c61696d20616d6f756e74206d7573742062652067726561746572207468616044820152656e207a65726f60d01b60648201526084016100cf565b6000826001600160a01b03168260405160006040518083038185875af1925050503d80600081146105af576040519150601f19603f3d011682016040523d82523d6000602084013e6105b4565b606091505b50509050806105fd5760405162461bcd60e51b815260206004820152601560248201527410db185a5b481d1c985b9cd9995c8819985a5b1959605a1b60448201526064016100cf565b826001600160a01b03167ff42cf8c29487b42c009006cba2a2a0ca0388229f3183e6e957e0a0b163585cb48360405161036691815260200190565b610640610676565b6001600160a01b03811661066a57604051631e4fbdf760e01b8152600060048201526024016100cf565b610673816106a3565b50565b6000546001600160a01b031633146102055760405163118cdaa760e01b81523360048201526024016100cf565b600080546001600160a01b038381166001600160a01b0319831681178455604051919092169283917f8be0079c531659141344cd1fd0a4f28419497f9722a3daafe3b4186f6b6457e09190a35050565b6001600160a01b038116811461067357600080fd5b6000806040838503121561071b57600080fd5b8235610726816106f3565b946020939093013593505050565b60006020828403121561074657600080fd5b8135610751816106f3565b9392505050565b6020808252601d908201527f496e73756666696369656e742062616c616e636520696e207661756c7400000060408201526060019056fea264697066735822122037efd27e40b93c5def32411f72f3e37dba4eb4bc92aedb8de07edd356e947b5664736f6c63430008140033",
  "linkReferences": {},
  "deployedLinkReferences": {}
}