{
  "_format": "hh-sol-artifact-1",
  "contractName": "LifeCareLite",
  "sourceName": "contracts/plans/LifeCareLite.sol",
  "abi": [
    {
      "inputs": [
        {
          "internalType": "address",
          "name": "_trustedSigner",
          "type": "address"
        },
        {
          "internalType": "address payable",
          "name": "_vaultAddress",
          "type": "address"
        }
      ],
      "stateMutability": "nonpayable",
      "type": "constructor"
    },
    {
      "inputs": [],
      "name": "AccessControlBadConfirmation",
      "type": "error"
    },
    {
      "inputs": [
        {
          "internalType": "address",
          "name": "account",
          "type": "address"
        },
        {
          "internalType": "bytes32",
          "name": "neededRole",
          "type": "bytes32"
        }
      ],
      "name": "AccessControlUnauthorizedAccount",
      "type": "error"
    },
    {
      "inputs": [],
      "name": "ECDSAInvalidSignature",
      "type": "error"
    },
    {
      "inputs": [
        {
          "internalType": "uint256",
          "name": "length",
          "type": "uint256"
        }
      ],
      "name": "ECDSAInvalidSignatureLength",
      "type": "error"
    },
    {
      "inputs": [
        {
          "internalType": "bytes32",
          "name": "s",
          "type": "bytes32"
        }
      ],
      "name": "ECDSAInvalidSignatureS",
      "type": "error"
    },
    {
      "anonymous": false,
      "inputs": [
        {
          "indexed": true,
          "internalType": "address",
          "name": "admin",
          "type": "address"
        }
      ],
      "name": "AdminGranted",
      "type": "event"
    },
    {
      "anonymous": false,
      "inputs": [
        {
          "indexed": true,
          "internalType": "bytes32",
          "name": "policyId",
          "type": "bytes32"
        },
        {
          "indexed": true,
          "internalType": "address",
          "name": "owner",
          "type": "address"
        },
        {
          "indexed": false,
          "internalType": "uint256",
          "name": "amount",
          "type": "uint256"
        }
      ],
      "name": "ClaimApproved",
      "type": "event"
    },
    {
      "anonymous": false,
      "inputs": [
        {
          "indexed": false,
          "internalType": "uint256",
          "name": "oldPeriod",
          "type": "uint256"
        },
        {
          "indexed": false,
          "internalType": "uint256",
          "name": "newPeriod",
          "type": "uint256"
        }
      ],
      "name": "ClaimExpiryPeriodUpdated",
      "type": "event"
    },
    {
      "anonymous": false,
      "inputs": [
        {
          "indexed": true,
          "internalType": "bytes32",
          "name": "policyId",
          "type": "bytes32"
        },
        {
          "indexed": true,
          "internalType": "address",
          "name": "owner",
          "type": "address"
        },
        {
          "indexed": false,
          "internalType": "uint256",
          "name": "amount",
          "type": "uint256"
        }
      ],
      "name": "ClaimFiled",
      "type": "event"
    },
    {
      "anonymous": false,
      "inputs": [
        {
          "indexed": true,
          "internalType": "bytes32",
          "name": "policyId",
          "type": "bytes32"
        },
        {
          "indexed": true,
          "internalType": "address",
          "name": "beneficiary",
          "type": "address"
        },
        {
          "indexed": false,
          "internalType": "uint256",
          "name": "amount",
          "type": "uint256"
        }
      ],
      "name": "ClaimTransferred",
      "type": "event"
    },
    {
      "anonymous": false,
      "inputs": [
        {
          "indexed": true,
          "internalType": "bytes32",
          "name": "policyId",
          "type": "bytes32"
        },
        {
          "indexed": true,
          "internalType": "address",
          "name": "owner",
          "type": "address"
        },
        {
          "indexed": false,
          "internalType": "uint256",
          "name": "refundAmount",
          "type": "uint256"
        }
      ],
      "name": "PolicyCancelled",
      "type": "event"
    },
    {
      "anonymous": false,
      "inputs": [
        {
          "indexed": true,
          "internalType": "bytes32",
          "name": "policyId",
          "type": "bytes32"
        },
        {
          "indexed": true,
          "internalType": "address",
          "name": "owner",
          "type": "address"
        }
      ],
      "name": "PolicyExpired",
      "type": "event"
    },
    {
      "anonymous": false,
      "inputs": [
        {
          "indexed": true,
          "internalType": "bytes32",
          "name": "policyId",
          "type": "bytes32"
        },
        {
          "indexed": true,
          "internalType": "address",
          "name": "owner",
          "type": "address"
        },
        {
          "indexed": false,
          "internalType": "uint256",
          "name": "premium",
          "type": "uint256"
        },
        {
          "indexed": false,
          "internalType": "uint256",
          "name": "sumAssured",
          "type": "uint256"
        },
        {
          "indexed": false,
          "internalType": "uint256",
          "name": "expiry",
          "type": "uint256"
        }
      ],
      "name": "PolicyPurchased",
      "type": "event"
    },
    {
      "anonymous": false,
      "inputs": [
        {
          "indexed": true,
          "internalType": "bytes32",
          "name": "policyId",
          "type": "bytes32"
        },
        {
          "indexed": true,
          "internalType": "address",
          "name": "owner",
          "type": "address"
        },
        {
          "indexed": false,
          "internalType": "uint256",
          "name": "refundAmount",
          "type": "uint256"
        }
      ],
      "name": "PolicyRefunded",
      "type": "event"
    },
    {
      "anonymous": false,
      "inputs": [
        {
          "indexed": true,
          "internalType": "bytes32",
          "name": "policyId",
          "type": "bytes32"
        },
        {
          "indexed": true,
          "internalType": "address",
          "name": "owner",
          "type": "address"
        },
        {
          "indexed": false,
          "internalType": "uint256",
          "name": "premium",
          "type": "uint256"
        },
        {
          "indexed": false,
          "internalType": "uint256",
          "name": "newExpiry",
          "type": "uint256"
        }
      ],
      "name": "PolicyRenewed",
      "type": "event"
    },
    {
      "anonymous": false,
      "inputs": [
        {
          "indexed": true,
          "internalType": "bytes32",
          "name": "policyId",
          "type": "bytes32"
        },
        {
          "indexed": true,
          "internalType": "address",
          "name": "user",
          "type": "address"
        },
        {
          "indexed": false,
          "internalType": "uint256",
          "name": "premium",
          "type": "uint256"
        }
      ],
      "name": "PremiumCalculated",
      "type": "event"
    },
    {
      "anonymous": false,
      "inputs": [
        {
          "indexed": true,
          "internalType": "bytes32",
          "name": "policyId",
          "type": "bytes32"
        },
        {
          "indexed": true,
          "internalType": "address",
          "name": "owner",
          "type": "address"
        },
        {
          "indexed": false,
          "internalType": "uint256",
          "name": "amount",
          "type": "uint256"
        }
      ],
      "name": "RefundIssued",
      "type": "event"
    },
    {
      "anonymous": false,
      "inputs": [
        {
          "indexed": true,
          "internalType": "bytes32",
          "name": "policyId",
          "type": "bytes32"
        },
        {
          "indexed": true,
          "internalType": "address",
          "name": "owner",
          "type": "address"
        }
      ],
      "name": "RenewalAttemptRejected",
      "type": "event"
    },
    {
      "anonymous": false,
      "inputs": [
        {
          "indexed": true,
          "internalType": "bytes32",
          "name": "role",
          "type": "bytes32"
        },
        {
          "indexed": true,
          "internalType": "bytes32",
          "name": "previousAdminRole",
          "type": "bytes32"
        },
        {
          "indexed": true,
          "internalType": "bytes32",
          "name": "newAdminRole",
          "type": "bytes32"
        }
      ],
      "name": "RoleAdminChanged",
      "type": "event"
    },
    {
      "anonymous": false,
      "inputs": [
        {
          "indexed": true,
          "internalType": "bytes32",
          "name": "role",
          "type": "bytes32"
        },
        {
          "indexed": true,
          "internalType": "address",
          "name": "account",
          "type": "address"
        },
        {
          "indexed": true,
          "internalType": "address",
          "name": "sender",
          "type": "address"
        }
      ],
      "name": "RoleGranted",
      "type": "event"
    },
    {
      "anonymous": false,
      "inputs": [
        {
          "indexed": true,
          "internalType": "bytes32",
          "name": "role",
          "type": "bytes32"
        },
        {
          "indexed": true,
          "internalType": "address",
          "name": "account",
          "type": "address"
        },
        {
          "indexed": true,
          "internalType": "address",
          "name": "sender",
          "type": "address"
        }
      ],
      "name": "RoleRevoked",
      "type": "event"
    },
    {
      "anonymous": false,
      "inputs": [
        {
          "indexed": true,
          "internalType": "address",
          "name": "oldSigner",
          "type": "address"
        },
        {
          "indexed": true,
          "internalType": "address",
          "name": "newSigner",
          "type": "address"
        }
      ],
      "name": "TrustedSignerUpdated",
      "type": "event"
    },
    {
      "anonymous": false,
      "inputs": [
        {
          "indexed": true,
          "internalType": "address",
          "name": "oldVault",
          "type": "address"
        },
        {
          "indexed": true,
          "internalType": "address",
          "name": "newVault",
          "type": "address"
        }
      ],
      "name": "VaultUpdated",
      "type": "event"
    },
    {
      "inputs": [],
      "name": "ADMIN_ROLE",
      "outputs": [
        {
          "internalType": "bytes32",
          "name": "",
          "type": "bytes32"
        }
      ],
      "stateMutability": "view",
      "type": "function"
    },
    {
      "inputs": [],
      "name": "DEFAULT_ADMIN_ROLE",
      "outputs": [
        {
          "internalType": "bytes32",
          "name": "",
          "type": "bytes32"
        }
      ],
      "stateMutability": "view",
      "type": "function"
    },
    {
      "inputs": [
        {
          "internalType": "bytes32",
          "name": "policyId",
          "type": "bytes32"
        }
      ],
      "name": "approveClaim",
      "outputs": [
        {
          "internalType": "uint256",
          "name": "",
          "type": "uint256"
        }
      ],
      "stateMutability": "nonpayable",
      "type": "function"
    },
    {
      "inputs": [
        {
          "internalType": "bytes32",
          "name": "policyId",
          "type": "bytes32"
        }
      ],
      "name": "calculateRefund",
      "outputs": [
        {
          "internalType": "uint256",
          "name": "",
          "type": "uint256"
        }
      ],
      "stateMutability": "view",
      "type": "function"
    },
    {
      "inputs": [
        {
          "internalType": "bytes32",
          "name": "policyId",
          "type": "bytes32"
        },
        {
          "internalType": "uint256",
          "name": "refundAmount",
          "type": "uint256"
        },
        {
          "internalType": "bytes",
          "name": "signature",
          "type": "bytes"
        }
      ],
      "name": "cancelPolicy",
      "outputs": [],
      "stateMutability": "nonpayable",
      "type": "function"
    },
    {
      "inputs": [],
      "name": "claimExpiryPeriod",
      "outputs": [
        {
          "internalType": "uint256",
          "name": "",
          "type": "uint256"
        }
      ],
      "stateMutability": "view",
      "type": "function"
    },
    {
      "inputs": [
        {
          "internalType": "uint256",
          "name": "amount",
          "type": "uint256"
        }
      ],
      "name": "emergencyWithdraw",
      "outputs": [],
      "stateMutability": "nonpayable",
      "type": "function"
    },
    {
      "inputs": [
        {
          "internalType": "bytes32",
          "name": "policyId",
          "type": "bytes32"
        },
        {
          "internalType": "uint256",
          "name": "amount",
          "type": "uint256"
        },
        {
          "internalType": "bytes",
          "name": "signature",
          "type": "bytes"
        }
      ],
      "name": "fileClaim",
      "outputs": [],
      "stateMutability": "nonpayable",
      "type": "function"
    },
    {
      "inputs": [
        {
          "internalType": "bytes32",
          "name": "policyId",
          "type": "bytes32"
        }
      ],
      "name": "getClaim",
      "outputs": [
        {
          "components": [
            {
              "internalType": "bytes32",
              "name": "policyId",
              "type": "bytes32"
            },
            {
              "internalType": "uint256",
              "name": "amount",
              "type": "uint256"
            },
            {
              "internalType": "bool",
              "name": "isPending",
              "type": "bool"
            },
            {
              "internalType": "uint256",
              "name": "createdAt",
              "type": "uint256"
            },
            {
              "internalType": "uint256",
              "name": "expiryTimestamp",
              "type": "uint256"
            }
          ],
          "internalType": "struct PolicyBase.ClaimRequest",
          "name": "",
          "type": "tuple"
        }
      ],
      "stateMutability": "view",
      "type": "function"
    },
    {
      "inputs": [
        {
          "internalType": "bytes32",
          "name": "policyId",
          "type": "bytes32"
        }
      ],
      "name": "getPolicy",
      "outputs": [
        {
          "components": [
            {
              "internalType": "bytes32",
              "name": "policyId",
              "type": "bytes32"
            },
            {
              "internalType": "address",
              "name": "owner",
              "type": "address"
            },
            {
              "internalType": "uint256",
              "name": "premium",
              "type": "uint256"
            },
            {
              "internalType": "uint256",
              "name": "sumAssured",
              "type": "uint256"
            },
            {
              "internalType": "uint256",
              "name": "expiry",
              "type": "uint256"
            },
            {
              "internalType": "bool",
              "name": "isActive",
              "type": "bool"
            },
            {
              "internalType": "bool",
              "name": "isClaimed",
              "type": "bool"
            },
            {
              "internalType": "uint256",
              "name": "createdAt",
              "type": "uint256"
            }
          ],
          "internalType": "struct PolicyBase.Policy",
          "name": "",
          "type": "tuple"
        }
      ],
      "stateMutability": "view",
      "type": "function"
    },
    {
      "inputs": [
        {
          "internalType": "bytes32",
          "name": "role",
          "type": "bytes32"
        }
      ],
      "name": "getRoleAdmin",
      "outputs": [
        {
          "internalType": "bytes32",
          "name": "",
          "type": "bytes32"
        }
      ],
      "stateMutability": "view",
      "type": "function"
    },
    {
      "inputs": [
        {
          "internalType": "address",
          "name": "newAdmin",
          "type": "address"
        }
      ],
      "name": "grantAdminRole",
      "outputs": [],
      "stateMutability": "nonpayable",
      "type": "function"
    },
    {
      "inputs": [
        {
          "internalType": "bytes32",
          "name": "role",
          "type": "bytes32"
        },
        {
          "internalType": "address",
          "name": "account",
          "type": "address"
        }
      ],
      "name": "grantRole",
      "outputs": [],
      "stateMutability": "nonpayable",
      "type": "function"
    },
    {
      "inputs": [
        {
          "internalType": "bytes32",
          "name": "role",
          "type": "bytes32"
        },
        {
          "internalType": "address",
          "name": "account",
          "type": "address"
        }
      ],
      "name": "hasRole",
      "outputs": [
        {
          "internalType": "bool",
          "name": "",
          "type": "bool"
        }
      ],
      "stateMutability": "view",
      "type": "function"
    },
    {
      "inputs": [
        {
          "internalType": "bytes32",
          "name": "policyId",
          "type": "bytes32"
        }
      ],
      "name": "markExpiredPolicy",
      "outputs": [],
      "stateMutability": "nonpayable",
      "type": "function"
    },
    {
      "inputs": [
        {
          "internalType": "address",
          "name": "owner",
          "type": "address"
        },
        {
          "internalType": "uint256",
          "name": "premium",
          "type": "uint256"
        },
        {
          "internalType": "uint256",
          "name": "sumAssured",
          "type": "uint256"
        },
        {
          "internalType": "uint256",
          "name": "duration",
          "type": "uint256"
        },
        {
          "internalType": "bytes",
          "name": "signature",
          "type": "bytes"
        }
      ],
      "name": "purchasePolicy",
      "outputs": [
        {
          "internalType": "bytes32",
          "name": "",
          "type": "bytes32"
        }
      ],
      "stateMutability": "payable",
      "type": "function"
    },
    {
      "inputs": [
        {
          "internalType": "bytes32",
          "name": "",
          "type": "bytes32"
        },
        {
          "internalType": "uint256",
          "name": "",
          "type": "uint256"
        },
        {
          "internalType": "uint256",
          "name": "",
          "type": "uint256"
        },
        {
          "internalType": "bytes",
          "name": "",
          "type": "bytes"
        }
      ],
      "name": "renewPolicy",
      "outputs": [],
      "stateMutability": "payable",
      "type": "function"
    },
    {
      "inputs": [
        {
          "internalType": "bytes32",
          "name": "role",
          "type": "bytes32"
        },
        {
          "internalType": "address",
          "name": "callerConfirmation",
          "type": "address"
        }
      ],
      "name": "renounceRole",
      "outputs": [],
      "stateMutability": "nonpayable",
      "type": "function"
    },
    {
      "inputs": [
        {
          "internalType": "address",
          "name": "admin",
          "type": "address"
        }
      ],
      "name": "revokeAdminRole",
      "outputs": [],
      "stateMutability": "nonpayable",
      "type": "function"
    },
    {
      "inputs": [
        {
          "internalType": "bytes32",
          "name": "role",
          "type": "bytes32"
        },
        {
          "internalType": "address",
          "name": "account",
          "type": "address"
        }
      ],
      "name": "revokeRole",
      "outputs": [],
      "stateMutability": "nonpayable",
      "type": "function"
    },
    {
      "inputs": [
        {
          "internalType": "uint256",
          "name": "periodInDays",
          "type": "uint256"
        }
      ],
      "name": "setClaimExpiryPeriod",
      "outputs": [],
      "stateMutability": "nonpayable",
      "type": "function"
    },
    {
      "inputs": [
        {
          "internalType": "address",
          "name": "newSigner",
          "type": "address"
        }
      ],
      "name": "setTrustedSigner",
      "outputs": [],
      "stateMutability": "nonpayable",
      "type": "function"
    },
    {
      "inputs": [
        {
          "internalType": "address payable",
          "name": "newVault",
          "type": "address"
        }
      ],
      "name": "setVault",
      "outputs": [],
      "stateMutability": "nonpayable",
      "type": "function"
    },
    {
      "inputs": [
        {
          "internalType": "bytes4",
          "name": "interfaceId",
          "type": "bytes4"
        }
      ],
      "name": "supportsInterface",
      "outputs": [
        {
          "internalType": "bool",
          "name": "",
          "type": "bool"
        }
      ],
      "stateMutability": "view",
      "type": "function"
    },
    {
      "inputs": [],
      "name": "trustedSigner",
      "outputs": [
        {
          "internalType": "address",
          "name": "",
          "type": "address"
        }
      ],
      "stateMutability": "view",
      "type": "function"
    },
    {
      "inputs": [],
      "name": "vault",
      "outputs": [
        {
          "internalType": "contract InsuranceVault",
          "name": "",
          "type": "address"
        }
      ],
      "stateMutability": "view",
      "type": "function"
    },
    {
      "stateMutability": "payable",
      "type": "receive"
    }
  ],
  "bytecode": "0x608060405262093a806004553480156200001857600080fd5b5060405162002653380380620026538339810160408190526200003b916200022c565b81816001600160a01b038216620000995760405162461bcd60e51b815260206004820152601660248201527f496e76616c6964207369676e657220616464726573730000000000000000000060448201526064015b60405180910390fd5b6001600160a01b038116620000f15760405162461bcd60e51b815260206004820152601560248201527f496e76616c6964207661756c7420616464726573730000000000000000000000604482015260640162000090565b620000fe60003362000164565b506200012b7fa49807205ce4d355092ef5a8a18f56e8913cf4a201fbe287825b095693c217753362000164565b50600280546001600160a01b039384166001600160a01b031991821617909155600380549290931691161790555050600180556200026b565b6000828152602081815260408083206001600160a01b038516845290915281205460ff1662000209576000838152602081815260408083206001600160a01b03861684529091529020805460ff19166001179055620001c03390565b6001600160a01b0316826001600160a01b0316847f2f8788117e7eff1d82e926ec794901d17c78024a50270940304540a733656f0d60405160405180910390a45060016200020d565b5060005b92915050565b6001600160a01b03811681146200022957600080fd5b50565b600080604083850312156200024057600080fd5b82516200024d8162000213565b6020840151909250620002608162000213565b809150509250929050565b6123d8806200027b6000396000f3fe6080604052600436106101855760003560e01c806375b238fc116100d1578063b0529da21161008a578063c9100bcb11610064578063c9100bcb14610621578063d547741f146106ff578063f74d54801461071f578063fbfa77cf1461075757600080fd5b8063b0529da2146105ce578063b87fb65c146105ee578063c634b78e1461060157600080fd5b806375b238fc146103f55780638c51f60f1461041757806391d14854146104375780639a19c7b014610457578063a217fddf14610477578063a3f685f91461048c57600080fd5b806336568abe1161013e5780635052cb49116101185780635052cb49146103755780635312ea8e1461039557806356a1c701146103b55780636817031b146103d557600080fd5b806336568abe146103225780633719f096146103425780634e494b7c1461036257600080fd5b806301ffc9a71461023957806319c0d1fa1461026e578063248a9ca31461028e5780632f2ff15d146102cc5780632fe1814c146102ec57806330d95b531461030c57600080fd5b36610234576003546040516000916001600160a01b03169034908381818185875af1925050503d80600081146101d7576040519150601f19603f3d011682016040523d82523d6000602084013e6101dc565b606091505b50509050806102325760405162461bcd60e51b815260206004820152601e60248201527f45544820666f7277617264696e6720746f207661756c74206661696c6564000060448201526064015b60405180910390fd5b005b600080fd5b34801561024557600080fd5b50610259610254366004612004565b610777565b60405190151581526020015b60405180910390f35b34801561027a57600080fd5b50610232610289366004612035565b6107ae565b34801561029a57600080fd5b506102be6102a9366004612035565b60009081526020819052604090206001015490565b604051908152602001610265565b3480156102d857600080fd5b506102326102e7366004612063565b61085d565b3480156102f857600080fd5b50610232610307366004612136565b610888565b34801561031857600080fd5b506102be60045481565b34801561032e57600080fd5b5061023261033d366004612063565b610ae2565b34801561034e57600080fd5b506102be61035d366004612035565b610b1a565b610232610370366004612186565b610d44565b34801561038157600080fd5b50610232610390366004612136565b610dfd565b3480156103a157600080fd5b506102326103b0366004612035565b6110f6565b3480156103c157600080fd5b506102326103d03660046121e0565b611194565b3480156103e157600080fd5b506102326103f03660046121e0565b611241565b34801561040157600080fd5b506102be60008051602061238383398151915281565b34801561042357600080fd5b506102be610432366004612035565b6112ed565b34801561044357600080fd5b50610259610452366004612063565b6113e9565b34801561046357600080fd5b506102326104723660046121e0565b611412565b34801561048357600080fd5b506102be600081565b34801561049857600080fd5b506105656104a7366004612035565b6040805161010081018252600080825260208201819052918101829052606081018290526080810182905260a0810182905260c0810182905260e081019190915250600090815260056020818152604092839020835161010080820186528254825260018301546001600160a01b03169382019390935260028201549481019490945260038101546060850152600481015460808501529182015460ff808216151560a086015291900416151560c08301526006015460e082015290565b6040516102659190815181526020808301516001600160a01b03169082015260408083015190820152606080830151908201526080808301519082015260a08083015115159082015260c08083015115159082015260e091820151918101919091526101000190565b3480156105da57600080fd5b506102326105e9366004612035565b6114d0565b6102be6105fc3660046121fd565b61159d565b34801561060d57600080fd5b5061023261061c3660046121e0565b611652565b34801561062d57600080fd5b506106bb61063c366004612035565b6040805160a08101825260008082526020820181905291810182905260608101829052608081019190915250600090815260066020908152604091829020825160a08101845281548152600182015492810192909252600281015460ff1615159282019290925260038201546060820152600490910154608082015290565b6040516102659190600060a0820190508251825260208301516020830152604083015115156040830152606083015160608301526080830151608083015292915050565b34801561070b57600080fd5b5061023261071a366004612063565b6116fc565b34801561072b57600080fd5b5060025461073f906001600160a01b031681565b6040516001600160a01b039091168152602001610265565b34801561076357600080fd5b5060035461073f906001600160a01b031681565b60006001600160e01b03198216637965db0b60e01b14806107a857506301ffc9a760e01b6001600160e01b03198316145b92915050565b60006107b981611721565b600082116108095760405162461bcd60e51b815260206004820152601760248201527f506572696f64206d75737420626520706f7369746976650000000000000000006044820152606401610229565b6004546108198362015180612280565b60048190556040805183815260208101929092527fb792057619e1a3b0e2768725ef4cb4fc3cbf647c992d306e6876522e3fc0cdbc910160405180910390a1505050565b60008281526020819052604090206001015461087881611721565b610882838361172e565b50505050565b6000805160206123838339815191526108a081611721565b60008481526005602081905260409091200154849060ff166108d45760405162461bcd60e51b815260040161022990612297565b60008581526005602081905260409091209081015460ff166109085760405162461bcd60e51b815260040161022990612297565b6005810154610100900460ff161561095b5760405162461bcd60e51b8152602060048201526016602482015275141bdb1a58de48185b1c9958591e4818db185a5b595960521b6044820152606401610229565b6001810154604080516020810189905260609290921b6001600160601b03191690820152605481018690526000607482018190524660948301529060b4016040516020818303038152906040528051906020012090506109bb81866117c0565b6109d75760405162461bcd60e51b8152600401610229906122c2565b60058201805460ff191690556003546001830154604051631f9cab4760e21b81526001600160a01b03918216600482015260248101899052911690637e72ad1c90604401600060405180830381600087803b158015610a3557600080fd5b505af1158015610a49573d6000803e3d6000fd5b5050505060018201546040518781526001600160a01b039091169088907fae2eb9a5ff7e26865940377aafb8a569997727d3bc48028ed88199eed260087f9060200160405180910390a360018201546040518781526001600160a01b039091169088907feffda959fad3422ef4e602f1642198e56536dbbf192da630dcbc451b5b5c203d9060200160405180910390a350505050505050565b6001600160a01b0381163314610b0b5760405163334bd91960e11b815260040160405180910390fd5b610b158282611877565b505050565b6000600080516020612383833981519152610b3481611721565b60008381526005602081905260409091200154839060ff16610b685760405162461bcd60e51b815260040161022990612297565b60008481526006602090815260408083206005909252909120600282015460ff16610bc85760405162461bcd60e51b815260206004820152601060248201526f4e6f2070656e64696e6720636c61696d60801b6044820152606401610229565b8160040154421115610c145760405162461bcd60e51b815260206004820152601560248201527410db185a5b481c995c5d595cdd08195e1c1a5c9959605a1b6044820152606401610229565b60028201805460ff1916905560058101805461ffff191661010017905560035460018281015490840154604051631e55af2160e31b81526001600160a01b039283166004820152602481019190915291169063f2ad790890604401600060405180830381600087803b158015610c8957600080fd5b505af1158015610c9d573d6000803e3d6000fd5b50505050600181810154908301546040519081526001600160a01b039091169087907f636494174e4a0f872de31b104ec14fb50edb1bdc4b1db9f006eaa68a61610f9c9060200160405180910390a3600181810154908301546040519081526001600160a01b039091169087907f957a909a771d0c1c8b37c8f5c6c9df37d8d7c521d3d99445839ede9153d063589060200160405180910390a35060010154949350505050565b60405133606081901b6001600160601b03191660208301524260348301529060540160408051601f19818403018152908290528051602090910120907f86c1ecc07c250e70ebd20978be8a2c3c89364df0bdf82af94b5a3d09aaf3aa7490600090a360405162461bcd60e51b815260206004820152602660248201527f4c696665436172654c69746520646f6573206e6f7420737570706f72742072656044820152656e6577616c7360d01b6064820152608401610229565b600260015403610e1f5760405162461bcd60e51b8152600401610229906122ed565b600260015560008381526005602081905260409091200154839060ff16610e585760405162461bcd60e51b815260040161022990612297565b600084815260056020526040902060018101546001600160a01b03163314610eb95760405162461bcd60e51b81526020600482015260146024820152732737ba103a3432903837b634b1bc9037bbb732b960611b6044820152606401610229565b8060030154841115610f0d5760405162461bcd60e51b815260206004820152601960248201527f436c61696d20657863656564732073756d2061737375726564000000000000006044820152606401610229565b6005810154610100900460ff1615610f605760405162461bcd60e51b8152602060048201526016602482015275141bdb1a58de48185b1c9958591e4818db185a5b595960521b6044820152606401610229565b80600401544210610fa45760405162461bcd60e51b815260206004820152600e60248201526d141bdb1a58de48195e1c1a5c995960921b6044820152606401610229565b6040805160208101879052908101859052466060820152600090608001604051602081830303815290604052805190602001209050610fe381856117c0565b610fff5760405162461bcd60e51b8152600401610229906122c2565b8351602080860191909120600090815260078252604090819020805460ff19166001908117909155815160a08101835289815292830188905290820152426060820181905260045460808301916110569190612324565b905260008781526006602090815260409182902083518155838201516001808301919091558484015160028301805460ff1916911515919091179055606085015160038301556080909401516004909101559184015490518781526001600160a01b039091169188917fcb458d27822c3290cdcdeeab9b43bcea4e60db6845d1e3932c5871443523e1f1910160405180910390a350506001805550505050565b600061110181611721565b6002600154036111235760405162461bcd60e51b8152600401610229906122ed565b600260015560035460405163c107532960e01b8152336004820152602481018490526001600160a01b039091169063c107532990604401600060405180830381600087803b15801561117457600080fd5b505af1158015611188573d6000803e3d6000fd5b50506001805550505050565b600061119f81611721565b6001600160a01b0382166111ee5760405162461bcd60e51b8152602060048201526016602482015275496e76616c6964207369676e6572206164647265737360501b6044820152606401610229565b600280546001600160a01b038481166001600160a01b0319831681179093556040519116919082907f4a297cf5d32586f80d2b0708a39d2da1f46e6ae7722171e1c51dfd685b5b8aa890600090a3505050565b600061124c81611721565b6001600160a01b03821661129a5760405162461bcd60e51b8152602060048201526015602482015274496e76616c6964207661756c74206164647265737360581b6044820152606401610229565b600380546001600160a01b038481166001600160a01b0319831681179093556040519116919082907f483bdedaaf23706a9800ac1af0d852b34927780d79f9d6ba60a80c7cad75ea3990600090a3505050565b6000818152600560208181526040808420815161010080820184528254825260018301546001600160a01b03169482019490945260028201549281019290925260038101546060830152600481015460808301529283015460ff80821615801560a08501529390910416151560c082015260069092015460e083015280611378575080608001514210155b156113865750600092915050565b60004282608001516113989190612337565b905060008260e0015183608001516113b09190612337565b9050806000036113c557506000949350505050565b808284604001516113d69190612280565b6113e0919061234a565b95945050505050565b6000918252602082815260408084206001600160a01b0393909316845291905290205460ff1690565b600061141d81611721565b6001600160a01b03821661146b5760405162461bcd60e51b8152602060048201526015602482015274496e76616c69642061646d696e206164647265737360581b6044820152606401610229565b336001600160a01b038316036114b85760405162461bcd60e51b815260206004820152601260248201527121b0b73737ba103932bb37b5b29039b2b63360711b6044820152606401610229565b610b1560008051602061238383398151915283611877565b60008181526005602081905260409091209081015460ff166115045760405162461bcd60e51b815260040161022990612297565b80600401544210156115515760405162461bcd60e51b8152602060048201526016602482015275141bdb1a58de481b9bdd08195e1c1a5c9959081e595d60521b6044820152606401610229565b60058101805460ff1916905560018101546040516001600160a01b039091169083907f8629ba1a018e1397c942e8dcf53afb2cfd0f250c02bc785e041010dfe6bbe00290600090a35050565b600063966018008311156115f35760405162461bcd60e51b815260206004820152601860248201527f45786365656473206d6178696d756d206475726174696f6e00000000000000006044820152606401610229565b600061160287878787876118e2565b9050866001600160a01b0316817fb1efb5a54d173a08f1d7ae00e21150da481ac80d259826760104a5ba97be6fa88860405161164091815260200190565b60405180910390a39695505050505050565b600061165d81611721565b6001600160a01b0382166116ab5760405162461bcd60e51b8152602060048201526015602482015274496e76616c69642061646d696e206164647265737360581b6044820152606401610229565b6116c36000805160206123838339815191528361172e565b506040516001600160a01b038316907f1c4e23de8d72c94b22992bd4d7b6786b215ba876af214ff63e6a0ca38fc97af490600090a25050565b60008281526020819052604090206001015461171781611721565b6108828383611877565b61172b8133611dc8565b50565b600061173a83836113e9565b6117b8576000838152602081815260408083206001600160a01b03861684529091529020805460ff191660011790556117703390565b6001600160a01b0316826001600160a01b0316847f2f8788117e7eff1d82e926ec794901d17c78024a50270940304540a733656f0d60405160405180910390a45060016107a8565b5060006107a8565b805160208083019190912060009081526007909152604081205460ff16156118235760405162461bcd60e51b815260206004820152601660248201527514da59db985d1d5c9948185b1c9958591e481d5cd95960521b6044820152606401610229565b7f19457468657265756d205369676e6564204d6573736167653a0a3332000000006000908152601c849052603c81209061185d8285611e05565b6002546001600160a01b0390811691161495945050505050565b600061188383836113e9565b156117b8576000838152602081815260408083206001600160a01b0386168085529252808320805460ff1916905551339286917ff6391f5c32d9c69d2a47ea670b442974b53935d1edc7fd64eb21e047a839171b9190a45060016107a8565b60006002600154036119065760405162461bcd60e51b8152600401610229906122ed565b60026001556001600160a01b0386166119595760405162461bcd60e51b8152602060048201526015602482015274496e76616c6964206f776e6572206164647265737360581b6044820152606401610229565b600085116119a95760405162461bcd60e51b815260206004820152601860248201527f5072656d69756d206d75737420626520706f73697469766500000000000000006044820152606401610229565b600084116119f95760405162461bcd60e51b815260206004820152601c60248201527f53756d2061737375726564206d75737420626520706f736974697665000000006044820152606401610229565b60008311611a495760405162461bcd60e51b815260206004820152601960248201527f4475726174696f6e206d75737420626520706f736974697665000000000000006044820152606401610229565b843414611a985760405162461bcd60e51b815260206004820152601860248201527f496e636f7272656374207072656d69756d20616d6f756e7400000000000000006044820152606401610229565b6040516001600160601b0319606088901b16602082015260348101869052605481018590526074810184905246609482015260009060b401604051602081830303815290604052805190602001209050611af281846117c0565b611b0e5760405162461bcd60e51b8152600401610229906122c2565b82516020808501919091206000908152600790915260408120805460ff19166001179055611b7988426040516001600160601b0319606084901b1660208201526034810182905260009060540160405160208183030381529060405280519060200120905092915050565b6000818152600560208190526040909120015490915060ff1615611bd75760405162461bcd60e51b8152602060048201526015602482015274506f6c69637920616c72656164792065786973747360581b6044820152606401610229565b604051806101000160405280828152602001896001600160a01b031681526020018881526020018781526020018642611c109190612324565b8152600160208083018290526000604080850182905242606095860152868252600580845291819020865181559286015193830180546001600160a01b039095166001600160a01b0319909516949094179093559184015160028201559183015160038301556080830151600483015560a0830151908201805460c085015115156101000261ff00199315159390931661ffff199091161791909117905560e0909101516006909101556003546040516000916001600160a01b031690899060006040518083038185875af1925050503d8060008114611d0c576040519150601f19603f3d011682016040523d82523d6000602084013e611d11565b606091505b5050905080611d625760405162461bcd60e51b815260206004820181905260248201527f5072656d69756d207472616e7366657220746f207661756c74206661696c65646044820152606401610229565b6001600160a01b038916827f105d821f4999dd4d79a889f0a0b1a1f6a5366615d06b4b7aef9e0a42a1de8cff8a8a611d9a8b42612324565b6040805193845260208401929092529082015260600160405180910390a35060018055979650505050505050565b611dd282826113e9565b611e015760405163e2517d3f60e01b81526001600160a01b038216600482015260248101839052604401610229565b5050565b600080600080611e158686611e2f565b925092509250611e258282611e7c565b5090949350505050565b60008060008351604103611e695760208401516040850151606086015160001a611e5b88828585611f35565b955095509550505050611e75565b50508151600091506002905b9250925092565b6000826003811115611e9057611e9061236c565b03611e99575050565b6001826003811115611ead57611ead61236c565b03611ecb5760405163f645eedf60e01b815260040160405180910390fd5b6002826003811115611edf57611edf61236c565b03611f005760405163fce698f760e01b815260048101829052602401610229565b6003826003811115611f1457611f1461236c565b03611e01576040516335e2f38360e21b815260048101829052602401610229565b600080807f7fffffffffffffffffffffffffffffff5d576e7357a4501ddfe92f46681b20a0841115611f705750600091506003905082611ffa565b604080516000808252602082018084528a905260ff891692820192909252606081018790526080810186905260019060a0016020604051602081039080840390855afa158015611fc4573d6000803e3d6000fd5b5050604051601f1901519150506001600160a01b038116611ff057506000925060019150829050611ffa565b9250600091508190505b9450945094915050565b60006020828403121561201657600080fd5b81356001600160e01b03198116811461202e57600080fd5b9392505050565b60006020828403121561204757600080fd5b5035919050565b6001600160a01b038116811461172b57600080fd5b6000806040838503121561207657600080fd5b8235915060208301356120888161204e565b809150509250929050565b634e487b7160e01b600052604160045260246000fd5b600082601f8301126120ba57600080fd5b813567ffffffffffffffff808211156120d5576120d5612093565b604051601f8301601f19908116603f011681019082821181831017156120fd576120fd612093565b8160405283815286602085880101111561211657600080fd5b836020870160208301376000602085830101528094505050505092915050565b60008060006060848603121561214b57600080fd5b8335925060208401359150604084013567ffffffffffffffff81111561217057600080fd5b61217c868287016120a9565b9150509250925092565b6000806000806080858703121561219c57600080fd5b843593506020850135925060408501359150606085013567ffffffffffffffff8111156121c857600080fd5b6121d4878288016120a9565b91505092959194509250565b6000602082840312156121f257600080fd5b813561202e8161204e565b600080600080600060a0868803121561221557600080fd5b85356122208161204e565b9450602086013593506040860135925060608601359150608086013567ffffffffffffffff81111561225157600080fd5b61225d888289016120a9565b9150509295509295909350565b634e487b7160e01b600052601160045260246000fd5b80820281158282048414176107a8576107a861226a565b602080825260119082015270506f6c696379206e6f742061637469766560781b604082015260600190565b602080825260119082015270496e76616c6964207369676e617475726560781b604082015260600190565b6020808252601f908201527f5265656e7472616e637947756172643a207265656e7472616e742063616c6c00604082015260600190565b808201808211156107a8576107a861226a565b818103818111156107a8576107a861226a565b60008261236757634e487b7160e01b600052601260045260246000fd5b500490565b634e487b7160e01b600052602160045260246000fdfea49807205ce4d355092ef5a8a18f56e8913cf4a201fbe287825b095693c21775a2646970667358221220037cd1c230787085518f4a3eac9d7093248ec9b339376916fe56a75c986b6a5964736f6c63430008140033",
  "linkReferences": {},
  "deployedLinkReferences": {}
}