{
  "_format": "hh-sol-artifact-1",
  "contractName": "LifeCareLite",
  "sourceName": "contracts/plans/LifeCareLite.sol",
  "abi": [
    {
      "inputs": [
        {
          "internalType": "address",
          "name": "_trustedSigner",
          "type": "address"
        },
        {
          "internalType": "address",
          "name": "_vault",
          "type": "address"
        }
      ],
      "stateMutability": "nonpayable",
      "type": "constructor"
    },
    {
      "inputs": [],
      "name": "AccessControlBadConfirmation",
      "type": "error"
    },
    {
      "inputs": [
        {
          "internalType": "address",
          "name": "account",
          "type": "address"
        },
        {
          "internalType": "bytes32",
          "name": "neededRole",
          "type": "bytes32"
        }
      ],
      "name": "AccessControlUnauthorizedAccount",
      "type": "error"
    },
    {
      "anonymous": false,
      "inputs": [
        {
          "indexed": true,
          "internalType": "address",
          "name": "admin",
          "type": "address"
        }
      ],
      "name": "AdminGranted",
      "type": "event"
    },
    {
      "anonymous": false,
      "inputs": [
        {
          "indexed": true,
          "internalType": "bytes32",
          "name": "policyId",
          "type": "bytes32"
        },
        {
          "indexed": true,
          "internalType": "address",
          "name": "owner",
          "type": "address"
        },
        {
          "indexed": false,
          "internalType": "uint256",
          "name": "amount",
          "type": "uint256"
        }
      ],
      "name": "ClaimApproved",
      "type": "event"
    },
    {
      "anonymous": false,
      "inputs": [
        {
          "indexed": false,
          "internalType": "uint256",
          "name": "oldPeriod",
          "type": "uint256"
        },
        {
          "indexed": false,
          "internalType": "uint256",
          "name": "newPeriod",
          "type": "uint256"
        }
      ],
      "name": "ClaimExpiryPeriodUpdated",
      "type": "event"
    },
    {
      "anonymous": false,
      "inputs": [
        {
          "indexed": true,
          "internalType": "bytes32",
          "name": "policyId",
          "type": "bytes32"
        },
        {
          "indexed": true,
          "internalType": "address",
          "name": "owner",
          "type": "address"
        },
        {
          "indexed": false,
          "internalType": "uint256",
          "name": "amount",
          "type": "uint256"
        },
        {
          "indexed": false,
          "internalType": "string",
          "name": "documentHash",
          "type": "string"
        }
      ],
      "name": "ClaimFiled",
      "type": "event"
    },
    {
      "anonymous": false,
      "inputs": [
        {
          "indexed": true,
          "internalType": "bytes32",
          "name": "policyId",
          "type": "bytes32"
        },
        {
          "indexed": true,
          "internalType": "address",
          "name": "beneficiary",
          "type": "address"
        },
        {
          "indexed": false,
          "internalType": "uint256",
          "name": "amount",
          "type": "uint256"
        }
      ],
      "name": "ClaimTransferred",
      "type": "event"
    },
    {
      "anonymous": false,
      "inputs": [
        {
          "indexed": true,
          "internalType": "bytes32",
          "name": "policyId",
          "type": "bytes32"
        },
        {
          "indexed": true,
          "internalType": "address",
          "name": "owner",
          "type": "address"
        },
        {
          "indexed": false,
          "internalType": "uint256",
          "name": "refundAmount",
          "type": "uint256"
        }
      ],
      "name": "PolicyCancelled",
      "type": "event"
    },
    {
      "anonymous": false,
      "inputs": [
        {
          "indexed": true,
          "internalType": "bytes32",
          "name": "policyId",
          "type": "bytes32"
        },
        {
          "indexed": true,
          "internalType": "address",
          "name": "owner",
          "type": "address"
        }
      ],
      "name": "PolicyExpired",
      "type": "event"
    },
    {
      "anonymous": false,
      "inputs": [
        {
          "indexed": true,
          "internalType": "bytes32",
          "name": "policyId",
          "type": "bytes32"
        },
        {
          "indexed": true,
          "internalType": "address",
          "name": "owner",
          "type": "address"
        },
        {
          "indexed": false,
          "internalType": "uint256",
          "name": "premium",
          "type": "uint256"
        },
        {
          "indexed": false,
          "internalType": "uint256",
          "name": "sumAssured",
          "type": "uint256"
        },
        {
          "indexed": false,
          "internalType": "uint256",
          "name": "expiry",
          "type": "uint256"
        }
      ],
      "name": "PolicyPurchased",
      "type": "event"
    },
    {
      "anonymous": false,
      "inputs": [
        {
          "indexed": true,
          "internalType": "bytes32",
          "name": "policyId",
          "type": "bytes32"
        },
        {
          "indexed": true,
          "internalType": "address",
          "name": "owner",
          "type": "address"
        },
        {
          "indexed": false,
          "internalType": "uint256",
          "name": "refundAmount",
          "type": "uint256"
        }
      ],
      "name": "PolicyRefunded",
      "type": "event"
    },
    {
      "anonymous": false,
      "inputs": [
        {
          "indexed": true,
          "internalType": "bytes32",
          "name": "policyId",
          "type": "bytes32"
        },
        {
          "indexed": true,
          "internalType": "address",
          "name": "owner",
          "type": "address"
        },
        {
          "indexed": false,
          "internalType": "uint256",
          "name": "premium",
          "type": "uint256"
        },
        {
          "indexed": false,
          "internalType": "uint256",
          "name": "newExpiry",
          "type": "uint256"
        }
      ],
      "name": "PolicyRenewed",
      "type": "event"
    },
    {
      "anonymous": false,
      "inputs": [
        {
          "indexed": true,
          "internalType": "bytes32",
          "name": "policyId",
          "type": "bytes32"
        },
        {
          "indexed": true,
          "internalType": "address",
          "name": "user",
          "type": "address"
        },
        {
          "indexed": false,
          "internalType": "uint256",
          "name": "premium",
          "type": "uint256"
        }
      ],
      "name": "PremiumCalculated",
      "type": "event"
    },
    {
      "anonymous": false,
      "inputs": [
        {
          "indexed": true,
          "internalType": "bytes32",
          "name": "policyId",
          "type": "bytes32"
        },
        {
          "indexed": true,
          "internalType": "address",
          "name": "owner",
          "type": "address"
        },
        {
          "indexed": false,
          "internalType": "uint256",
          "name": "amount",
          "type": "uint256"
        }
      ],
      "name": "RefundIssued",
      "type": "event"
    },
    {
      "anonymous": false,
      "inputs": [
        {
          "indexed": true,
          "internalType": "bytes32",
          "name": "policyId",
          "type": "bytes32"
        },
        {
          "indexed": true,
          "internalType": "address",
          "name": "owner",
          "type": "address"
        }
      ],
      "name": "RenewalAttemptRejected",
      "type": "event"
    },
    {
      "anonymous": false,
      "inputs": [
        {
          "indexed": true,
          "internalType": "bytes32",
          "name": "role",
          "type": "bytes32"
        },
        {
          "indexed": true,
          "internalType": "bytes32",
          "name": "previousAdminRole",
          "type": "bytes32"
        },
        {
          "indexed": true,
          "internalType": "bytes32",
          "name": "newAdminRole",
          "type": "bytes32"
        }
      ],
      "name": "RoleAdminChanged",
      "type": "event"
    },
    {
      "anonymous": false,
      "inputs": [
        {
          "indexed": true,
          "internalType": "bytes32",
          "name": "role",
          "type": "bytes32"
        },
        {
          "indexed": true,
          "internalType": "address",
          "name": "account",
          "type": "address"
        },
        {
          "indexed": true,
          "internalType": "address",
          "name": "sender",
          "type": "address"
        }
      ],
      "name": "RoleGranted",
      "type": "event"
    },
    {
      "anonymous": false,
      "inputs": [
        {
          "indexed": true,
          "internalType": "bytes32",
          "name": "role",
          "type": "bytes32"
        },
        {
          "indexed": true,
          "internalType": "address",
          "name": "account",
          "type": "address"
        },
        {
          "indexed": true,
          "internalType": "address",
          "name": "sender",
          "type": "address"
        }
      ],
      "name": "RoleRevoked",
      "type": "event"
    },
    {
      "anonymous": false,
      "inputs": [
        {
          "indexed": true,
          "internalType": "address",
          "name": "oldSigner",
          "type": "address"
        },
        {
          "indexed": true,
          "internalType": "address",
          "name": "newSigner",
          "type": "address"
        }
      ],
      "name": "TrustedSignerUpdated",
      "type": "event"
    },
    {
      "anonymous": false,
      "inputs": [
        {
          "indexed": false,
          "internalType": "address",
          "name": "newVault",
          "type": "address"
        }
      ],
      "name": "VaultUpdated",
      "type": "event"
    },
    {
      "inputs": [],
      "name": "ADMIN_ROLE",
      "outputs": [
        {
          "internalType": "bytes32",
          "name": "",
          "type": "bytes32"
        }
      ],
      "stateMutability": "view",
      "type": "function"
    },
    {
      "inputs": [],
      "name": "DEFAULT_ADMIN_ROLE",
      "outputs": [
        {
          "internalType": "bytes32",
          "name": "",
          "type": "bytes32"
        }
      ],
      "stateMutability": "view",
      "type": "function"
    },
    {
      "inputs": [
        {
          "internalType": "bytes32",
          "name": "policyId",
          "type": "bytes32"
        }
      ],
      "name": "approveClaim",
      "outputs": [
        {
          "internalType": "uint256",
          "name": "",
          "type": "uint256"
        }
      ],
      "stateMutability": "nonpayable",
      "type": "function"
    },
    {
      "inputs": [
        {
          "internalType": "bytes32",
          "name": "policyId",
          "type": "bytes32"
        }
      ],
      "name": "calculateRefund",
      "outputs": [
        {
          "internalType": "uint256",
          "name": "",
          "type": "uint256"
        }
      ],
      "stateMutability": "view",
      "type": "function"
    },
    {
      "inputs": [
        {
          "internalType": "bytes32",
          "name": "policyId",
          "type": "bytes32"
        },
        {
          "internalType": "uint256",
          "name": "refundAmount",
          "type": "uint256"
        },
        {
          "internalType": "bytes",
          "name": "signature",
          "type": "bytes"
        }
      ],
      "name": "cancelPolicy",
      "outputs": [],
      "stateMutability": "nonpayable",
      "type": "function"
    },
    {
      "inputs": [],
      "name": "claimExpiryPeriod",
      "outputs": [
        {
          "internalType": "uint256",
          "name": "",
          "type": "uint256"
        }
      ],
      "stateMutability": "view",
      "type": "function"
    },
    {
      "inputs": [
        {
          "internalType": "uint256",
          "name": "amount",
          "type": "uint256"
        }
      ],
      "name": "emergencyWithdraw",
      "outputs": [],
      "stateMutability": "nonpayable",
      "type": "function"
    },
    {
      "inputs": [
        {
          "internalType": "bytes32",
          "name": "policyId",
          "type": "bytes32"
        },
        {
          "internalType": "uint256",
          "name": "amount",
          "type": "uint256"
        },
        {
          "internalType": "string",
          "name": "documentHash",
          "type": "string"
        },
        {
          "internalType": "bytes",
          "name": "signature",
          "type": "bytes"
        }
      ],
      "name": "fileClaim",
      "outputs": [],
      "stateMutability": "nonpayable",
      "type": "function"
    },
    {
      "inputs": [
        {
          "internalType": "bytes32",
          "name": "policyId",
          "type": "bytes32"
        }
      ],
      "name": "getClaim",
      "outputs": [
        {
          "components": [
            {
              "internalType": "bytes32",
              "name": "policyId",
              "type": "bytes32"
            },
            {
              "internalType": "uint256",
              "name": "amount",
              "type": "uint256"
            },
            {
              "internalType": "string",
              "name": "documentHash",
              "type": "string"
            },
            {
              "internalType": "bool",
              "name": "isPending",
              "type": "bool"
            },
            {
              "internalType": "uint256",
              "name": "createdAt",
              "type": "uint256"
            },
            {
              "internalType": "uint256",
              "name": "expiryTimestamp",
              "type": "uint256"
            }
          ],
          "internalType": "struct PolicyBase.ClaimRequest",
          "name": "",
          "type": "tuple"
        }
      ],
      "stateMutability": "view",
      "type": "function"
    },
    {
      "inputs": [
        {
          "internalType": "bytes32",
          "name": "policyId",
          "type": "bytes32"
        }
      ],
      "name": "getPolicy",
      "outputs": [
        {
          "components": [
            {
              "internalType": "bytes32",
              "name": "policyId",
              "type": "bytes32"
            },
            {
              "internalType": "address",
              "name": "owner",
              "type": "address"
            },
            {
              "internalType": "uint256",
              "name": "premium",
              "type": "uint256"
            },
            {
              "internalType": "uint256",
              "name": "sumAssured",
              "type": "uint256"
            },
            {
              "internalType": "uint256",
              "name": "expiry",
              "type": "uint256"
            },
            {
              "internalType": "bool",
              "name": "isActive",
              "type": "bool"
            },
            {
              "internalType": "bool",
              "name": "isClaimed",
              "type": "bool"
            },
            {
              "internalType": "uint256",
              "name": "createdAt",
              "type": "uint256"
            }
          ],
          "internalType": "struct PolicyBase.Policy",
          "name": "",
          "type": "tuple"
        }
      ],
      "stateMutability": "view",
      "type": "function"
    },
    {
      "inputs": [
        {
          "internalType": "bytes32",
          "name": "role",
          "type": "bytes32"
        }
      ],
      "name": "getRoleAdmin",
      "outputs": [
        {
          "internalType": "bytes32",
          "name": "",
          "type": "bytes32"
        }
      ],
      "stateMutability": "view",
      "type": "function"
    },
    {
      "inputs": [
        {
          "internalType": "address",
          "name": "newAdmin",
          "type": "address"
        }
      ],
      "name": "grantAdminRole",
      "outputs": [],
      "stateMutability": "nonpayable",
      "type": "function"
    },
    {
      "inputs": [
        {
          "internalType": "bytes32",
          "name": "role",
          "type": "bytes32"
        },
        {
          "internalType": "address",
          "name": "account",
          "type": "address"
        }
      ],
      "name": "grantRole",
      "outputs": [],
      "stateMutability": "nonpayable",
      "type": "function"
    },
    {
      "inputs": [
        {
          "internalType": "bytes32",
          "name": "role",
          "type": "bytes32"
        },
        {
          "internalType": "address",
          "name": "account",
          "type": "address"
        }
      ],
      "name": "hasRole",
      "outputs": [
        {
          "internalType": "bool",
          "name": "",
          "type": "bool"
        }
      ],
      "stateMutability": "view",
      "type": "function"
    },
    {
      "inputs": [
        {
          "internalType": "bytes32",
          "name": "policyId",
          "type": "bytes32"
        }
      ],
      "name": "markExpiredPolicy",
      "outputs": [],
      "stateMutability": "nonpayable",
      "type": "function"
    },
    {
      "inputs": [
        {
          "internalType": "address",
          "name": "owner",
          "type": "address"
        },
        {
          "internalType": "bytes",
          "name": "policyData",
          "type": "bytes"
        },
        {
          "internalType": "uint256",
          "name": "premium",
          "type": "uint256"
        },
        {
          "internalType": "uint256",
          "name": "sumAssured",
          "type": "uint256"
        },
        {
          "internalType": "uint256",
          "name": "duration",
          "type": "uint256"
        },
        {
          "internalType": "bytes",
          "name": "signature",
          "type": "bytes"
        }
      ],
      "name": "purchasePolicy",
      "outputs": [],
      "stateMutability": "payable",
      "type": "function"
    },
    {
      "inputs": [
        {
          "internalType": "bytes32",
          "name": "",
          "type": "bytes32"
        },
        {
          "internalType": "uint256",
          "name": "",
          "type": "uint256"
        },
        {
          "internalType": "uint256",
          "name": "",
          "type": "uint256"
        },
        {
          "internalType": "bytes",
          "name": "",
          "type": "bytes"
        }
      ],
      "name": "renewPolicy",
      "outputs": [],
      "stateMutability": "payable",
      "type": "function"
    },
    {
      "inputs": [
        {
          "internalType": "bytes32",
          "name": "role",
          "type": "bytes32"
        },
        {
          "internalType": "address",
          "name": "callerConfirmation",
          "type": "address"
        }
      ],
      "name": "renounceRole",
      "outputs": [],
      "stateMutability": "nonpayable",
      "type": "function"
    },
    {
      "inputs": [
        {
          "internalType": "address",
          "name": "admin",
          "type": "address"
        }
      ],
      "name": "revokeAdminRole",
      "outputs": [],
      "stateMutability": "nonpayable",
      "type": "function"
    },
    {
      "inputs": [
        {
          "internalType": "bytes32",
          "name": "role",
          "type": "bytes32"
        },
        {
          "internalType": "address",
          "name": "account",
          "type": "address"
        }
      ],
      "name": "revokeRole",
      "outputs": [],
      "stateMutability": "nonpayable",
      "type": "function"
    },
    {
      "inputs": [
        {
          "internalType": "uint256",
          "name": "periodInDays",
          "type": "uint256"
        }
      ],
      "name": "setClaimExpiryPeriod",
      "outputs": [],
      "stateMutability": "nonpayable",
      "type": "function"
    },
    {
      "inputs": [
        {
          "internalType": "address",
          "name": "newSigner",
          "type": "address"
        }
      ],
      "name": "setTrustedSigner",
      "outputs": [],
      "stateMutability": "nonpayable",
      "type": "function"
    },
    {
      "inputs": [
        {
          "internalType": "address",
          "name": "_vault",
          "type": "address"
        }
      ],
      "name": "setVault",
      "outputs": [],
      "stateMutability": "nonpayable",
      "type": "function"
    },
    {
      "inputs": [
        {
          "internalType": "bytes4",
          "name": "interfaceId",
          "type": "bytes4"
        }
      ],
      "name": "supportsInterface",
      "outputs": [
        {
          "internalType": "bool",
          "name": "",
          "type": "bool"
        }
      ],
      "stateMutability": "view",
      "type": "function"
    },
    {
      "inputs": [],
      "name": "trustedSigner",
      "outputs": [
        {
          "internalType": "address",
          "name": "",
          "type": "address"
        }
      ],
      "stateMutability": "view",
      "type": "function"
    },
    {
      "inputs": [],
      "name": "vault",
      "outputs": [
        {
          "internalType": "contract InsuranceVault",
          "name": "",
          "type": "address"
        }
      ],
      "stateMutability": "view",
      "type": "function"
    },
    {
      "stateMutability": "payable",
      "type": "receive"
    }
  ],
  "bytecode": "0x608060405262093a806003553480156200001857600080fd5b506040516200299d3803806200299d8339810160408190526200003b9162000236565b816001600160a01b038116620000985760405162461bcd60e51b815260206004820152601660248201527f496e76616c6964207369676e657220616464726573730000000000000000000060448201526064015b60405180910390fd5b620000a56000336200016a565b50620000d27fa49807205ce4d355092ef5a8a18f56e8913cf4a201fbe287825b095693c21775336200016a565b50600280546001600160a01b0319166001600160a01b03928316179055600180558116620001435760405162461bcd60e51b815260206004820152601560248201527f496e76616c6964207661756c742061646472657373000000000000000000000060448201526064016200008f565b600780546001600160a01b0319166001600160a01b0392909216919091179055506200026e565b6000828152602081815260408083206001600160a01b038516845290915281205460ff166200020f576000838152602081815260408083206001600160a01b03861684529091529020805460ff19166001179055620001c63390565b6001600160a01b0316826001600160a01b0316847f2f8788117e7eff1d82e926ec794901d17c78024a50270940304540a733656f0d60405160405180910390a450600162000213565b5060005b92915050565b80516001600160a01b03811681146200023157600080fd5b919050565b600080604083850312156200024a57600080fd5b620002558362000219565b9150620002656020840162000219565b90509250929050565b61271f806200027e6000396000f3fe6080604052600436106101855760003560e01c806375b238fc116100d1578063b0529da21161008a578063c9100bcb11610064578063c9100bcb1461057b578063d547741f146105a8578063f74d5480146105c8578063fbfa77cf1461060057600080fd5b8063b0529da214610528578063b0aa492714610548578063c634b78e1461055b57600080fd5b806375b238fc1461034f5780638c51f60f1461037157806391d14854146103915780639a19c7b0146103b1578063a217fddf146103d1578063a3f685f9146103e657600080fd5b806336568abe1161013e5780634e494b7c116101185780634e494b7c146102dc5780635312ea8e146102ef57806356a1c7011461030f5780636817031b1461032f57600080fd5b806336568abe1461027c5780633719f0961461029c5780634059442d146102bc57600080fd5b806301ffc9a71461019157806319c0d1fa146101c6578063248a9ca3146101e85780632f2ff15d146102265780632fe1814c1461024657806330d95b531461026657600080fd5b3661018c57005b600080fd5b34801561019d57600080fd5b506101b16101ac366004611fdd565b610620565b60405190151581526020015b60405180910390f35b3480156101d257600080fd5b506101e66101e136600461200e565b610657565b005b3480156101f457600080fd5b5061021861020336600461200e565b60009081526020819052604090206001015490565b6040519081526020016101bd565b34801561023257600080fd5b506101e6610241366004612043565b61070b565b34801561025257600080fd5b506101e661026136600461211b565b610736565b34801561027257600080fd5b5061021860035481565b34801561028857600080fd5b506101e6610297366004612043565b61096c565b3480156102a857600080fd5b506102186102b736600461200e565b6109a4565b3480156102c857600080fd5b506101e66102d736600461216b565b610bcd565b6101e66102ea3660046121f9565b610ee5565b3480156102fb57600080fd5b506101e661030a36600461200e565b610f91565b34801561031b57600080fd5b506101e661032a366004612247565b6110ea565b34801561033b57600080fd5b506101e661034a366004612247565b611197565b34801561035b57600080fd5b506102186000805160206126ca83398151915281565b34801561037d57600080fd5b5061021861038c36600461200e565b611245565b34801561039d57600080fd5b506101b16103ac366004612043565b611341565b3480156103bd57600080fd5b506101e66103cc366004612247565b61136a565b3480156103dd57600080fd5b50610218600081565b3480156103f257600080fd5b506104bf61040136600461200e565b6040805161010081018252600080825260208201819052918101829052606081018290526080810182905260a0810182905260c0810182905260e081019190915250600090815260046020818152604092839020835161010080820186528254825260018301546001600160a01b03169382019390935260028201549481019490945260038101546060850152918201546080840152600582015460ff808216151560a086015291900416151560c08301526006015460e082015290565b6040516101bd9190815181526020808301516001600160a01b03169082015260408083015190820152606080830151908201526080808301519082015260a08083015115159082015260c08083015115159082015260e091820151918101919091526101000190565b34801561053457600080fd5b506101e661054336600461200e565b611428565b6101e6610556366004612262565b6114f3565b34801561056757600080fd5b506101e6610576366004612247565b61166b565b34801561058757600080fd5b5061059b61059636600461200e565b611715565b6040516101bd9190612342565b3480156105b457600080fd5b506101e66105c3366004612043565b611841565b3480156105d457600080fd5b506002546105e8906001600160a01b031681565b6040516001600160a01b0390911681526020016101bd565b34801561060c57600080fd5b506007546105e8906001600160a01b031681565b60006001600160e01b03198216637965db0b60e01b148061065157506301ffc9a760e01b6001600160e01b03198316145b92915050565b600061066281611866565b600082116106b75760405162461bcd60e51b815260206004820152601760248201527f506572696f64206d75737420626520706f73697469766500000000000000000060448201526064015b60405180910390fd5b6003546106c783620151806123b4565b60038190556040805183815260208101929092527fb792057619e1a3b0e2768725ef4cb4fc3cbf647c992d306e6876522e3fc0cdbc910160405180910390a1505050565b60008281526020819052604090206001015461072681611866565b6107308383611873565b50505050565b6000805160206126ca83398151915261074e81611866565b600084815260046020526040902060050154849060ff166107815760405162461bcd60e51b81526004016106ae906123cb565b6000858152600460205260409020600581015460ff166107b35760405162461bcd60e51b81526004016106ae906123cb565b6005810154610100900460ff16156108065760405162461bcd60e51b8152602060048201526016602482015275141bdb1a58de48185b1c9958591e4818db185a5b595960521b60448201526064016106ae565b60408051602081018890529081018690524660608201526000906080016040516020818303038152906040528051906020012090506108458186611905565b6108615760405162461bcd60e51b81526004016106ae906123f6565b60058201805460ff191690556007546001830154604051631f9cab4760e21b81526001600160a01b03918216600482015260248101899052911690637e72ad1c90604401600060405180830381600087803b1580156108bf57600080fd5b505af11580156108d3573d6000803e3d6000fd5b5050505060018201546040518781526001600160a01b039091169088907fae2eb9a5ff7e26865940377aafb8a569997727d3bc48028ed88199eed260087f9060200160405180910390a360018201546040518781526001600160a01b039091169088907feffda959fad3422ef4e602f1642198e56536dbbf192da630dcbc451b5b5c203d9060200160405180910390a350505050505050565b6001600160a01b03811633146109955760405163334bd91960e11b815260040160405180910390fd5b61099f82826119dc565b505050565b60006000805160206126ca8339815191526109be81611866565b600083815260046020526040902060050154839060ff166109f15760405162461bcd60e51b81526004016106ae906123cb565b60008481526005602090815260408083206004909252909120600382015460ff16610a515760405162461bcd60e51b815260206004820152601060248201526f4e6f2070656e64696e6720636c61696d60801b60448201526064016106ae565b8160050154421115610a9d5760405162461bcd60e51b815260206004820152601560248201527410db185a5b481c995c5d595cdd08195e1c1a5c9959605a1b60448201526064016106ae565b60038201805460ff1916905560058101805461ffff191661010017905560075460018281015490840154604051631e55af2160e31b81526001600160a01b039283166004820152602481019190915291169063f2ad790890604401600060405180830381600087803b158015610b1257600080fd5b505af1158015610b26573d6000803e3d6000fd5b50505050600181810154908301546040519081526001600160a01b039091169087907f636494174e4a0f872de31b104ec14fb50edb1bdc4b1db9f006eaa68a61610f9c9060200160405180910390a3600181810154908301546040519081526001600160a01b039091169087907f957a909a771d0c1c8b37c8f5c6c9df37d8d7c521d3d99445839ede9153d063589060200160405180910390a35060010154949350505050565b600260015403610bef5760405162461bcd60e51b81526004016106ae90612421565b6002600155600084815260046020526040902060050154849060ff16610c275760405162461bcd60e51b81526004016106ae906123cb565b600085815260046020526040902060018101546001600160a01b03163314610c885760405162461bcd60e51b81526020600482015260146024820152732737ba103a3432903837b634b1bc9037bbb732b960611b60448201526064016106ae565b8060030154851115610cdc5760405162461bcd60e51b815260206004820152601960248201527f436c61696d20657863656564732073756d20617373757265640000000000000060448201526064016106ae565b6005810154610100900460ff1615610d2f5760405162461bcd60e51b8152602060048201526016602482015275141bdb1a58de48185b1c9958591e4818db185a5b595960521b60448201526064016106ae565b80600401544210610d735760405162461bcd60e51b815260206004820152600e60248201526d141bdb1a58de48195e1c1a5c995960921b60448201526064016106ae565b600086868646604051602001610d8c9493929190612458565b604051602081830303815290604052805190602001209050610dae8185611905565b610dca5760405162461bcd60e51b81526004016106ae906123f6565b8351602080860191909120600090815260068252604090819020805460ff19166001908117909155815160c0810183528a81529283018990529082018790526060820152426080820181905260035460a0830191610e28919061248c565b905260008881526005602090815260409182902083518155908301516001820155908201516002820190610e5c9082612527565b50606082015160038201805460ff19169115159190911790556080820151600482015560a09091015160059091015560018201546040516001600160a01b039091169088907fc96b2a45efdafddb0d702bd3f580b163b3de51eaf6181152b2625544b7d0e43e90610ed0908a908a906125e7565b60405180910390a35050600180555050505050565b6040513390610efa9082904290602001612608565b60408051601f19818403018152908290528051602090910120907f86c1ecc07c250e70ebd20978be8a2c3c89364df0bdf82af94b5a3d09aaf3aa7490600090a360405162461bcd60e51b815260206004820152602660248201527f4c696665436172654c69746520646f6573206e6f7420737570706f72742072656044820152656e6577616c7360d01b60648201526084016106ae565b6000610f9c81611866565b600260015403610fbe5760405162461bcd60e51b81526004016106ae90612421565b6002600155816110105760405162461bcd60e51b815260206004820152601760248201527f416d6f756e74206d75737420626520706f73697469766500000000000000000060448201526064016106ae565b478211156110575760405162461bcd60e51b8152602060048201526014602482015273496e73756666696369656e742062616c616e636560601b60448201526064016106ae565b604051600090339084908381818185875af1925050503d8060008114611099576040519150601f19603f3d011682016040523d82523d6000602084013e61109e565b606091505b50509050806110e15760405162461bcd60e51b815260206004820152600f60248201526e15da5d1a191c985dc819985a5b1959608a1b60448201526064016106ae565b50506001805550565b60006110f581611866565b6001600160a01b0382166111445760405162461bcd60e51b8152602060048201526016602482015275496e76616c6964207369676e6572206164647265737360501b60448201526064016106ae565b600280546001600160a01b038481166001600160a01b0319831681179093556040519116919082907f4a297cf5d32586f80d2b0708a39d2da1f46e6ae7722171e1c51dfd685b5b8aa890600090a3505050565b60006111a281611866565b6001600160a01b0382166111f05760405162461bcd60e51b8152602060048201526015602482015274496e76616c6964207661756c74206164647265737360581b60448201526064016106ae565b600780546001600160a01b0319166001600160a01b0384169081179091556040519081527f161584aed96e7f34998117c9ad67e2d21ff46d2a42775c22b11ed282f3c7b2cd9060200160405180910390a15050565b6000818152600460208181526040808420815161010080820184528254825260018301546001600160a01b03169482019490945260028201549281019290925260038101546060830152928301546080820152600583015460ff80821615801560a08501529390910416151560c082015260069092015460e0830152806112d0575080608001514210155b156112de5750600092915050565b60004282608001516112f0919061262a565b905060008260e001518360800151611308919061262a565b90508060000361131d57506000949350505050565b8082846040015161132e91906123b4565b611338919061263d565b95945050505050565b6000918252602082815260408084206001600160a01b0393909316845291905290205460ff1690565b600061137581611866565b6001600160a01b0382166113c35760405162461bcd60e51b8152602060048201526015602482015274496e76616c69642061646d696e206164647265737360581b60448201526064016106ae565b336001600160a01b038316036114105760405162461bcd60e51b815260206004820152601260248201527121b0b73737ba103932bb37b5b29039b2b63360711b60448201526064016106ae565b61099f6000805160206126ca833981519152836119dc565b6000818152600460205260409020600581015460ff1661145a5760405162461bcd60e51b81526004016106ae906123cb565b80600401544210156114a75760405162461bcd60e51b8152602060048201526016602482015275141bdb1a58de481b9bdd08195e1c1a5c9959081e595d60521b60448201526064016106ae565b60058101805460ff1916905560018101546040516001600160a01b039091169083907f8629ba1a018e1397c942e8dcf53afb2cfd0f250c02bc785e041010dfe6bbe00290600090a35050565b63966018008211156115475760405162461bcd60e51b815260206004820152601860248201527f45786365656473206d6178696d756d206475726174696f6e000000000000000060448201526064016106ae565b611555868686868686611a47565b6007546040516000916001600160a01b03169034908381818185875af1925050503d80600081146115a2576040519150601f19603f3d011682016040523d82523d6000602084013e6115a7565b606091505b50509050806115f05760405162461bcd60e51b815260206004820152601560248201527415985d5b1d081d1c985b9cd9995c8819985a5b1959605a1b60448201526064016106ae565b60008742604051602001611605929190612608565b604051602081830303815290604052805190602001209050876001600160a01b0316817fb1efb5a54d173a08f1d7ae00e21150da481ac80d259826760104a5ba97be6fa88860405161165991815260200190565b60405180910390a35050505050505050565b600061167681611866565b6001600160a01b0382166116c45760405162461bcd60e51b8152602060048201526015602482015274496e76616c69642061646d696e206164647265737360581b60448201526064016106ae565b6116dc6000805160206126ca83398151915283611873565b506040516001600160a01b038316907f1c4e23de8d72c94b22992bd4d7b6786b215ba876af214ff63e6a0ca38fc97af490600090a25050565b6117536040518060c0016040528060008019168152602001600081526020016060815260200160001515815260200160008152602001600081525090565b600560008381526020019081526020016000206040518060c001604052908160008201548152602001600182015481526020016002820180546117959061249f565b80601f01602080910402602001604051908101604052809291908181526020018280546117c19061249f565b801561180e5780601f106117e35761010080835404028352916020019161180e565b820191906000526020600020905b8154815290600101906020018083116117f157829003601f168201915b5050509183525050600382015460ff16151560208201526004820154604082015260059091015460609091015292915050565b60008281526020819052604090206001015461185c81611866565b61073083836119dc565b6118708133611e28565b50565b600061187f8383611341565b6118fd576000838152602081815260408083206001600160a01b03861684529091529020805460ff191660011790556118b53390565b6001600160a01b0316826001600160a01b0316847f2f8788117e7eff1d82e926ec794901d17c78024a50270940304540a733656f0d60405160405180910390a4506001610651565b506000610651565b805160208083019190912060009081526006909152604081205460ff16156119685760405162461bcd60e51b815260206004820152601660248201527514da59db985d1d5c9948185b1c9958591e481d5cd95960521b60448201526064016106ae565b6040517f19457468657265756d205369676e6564204d6573736167653a0a3332000000006020820152603c8101849052600090605c0160405160208183030381529060405280519060200120905060006119c28285611e65565b6002546001600160a01b0390811691161495945050505050565b60006119e88383611341565b156118fd576000838152602081815260408083206001600160a01b0386168085529252808320805460ff1916905551339286917ff6391f5c32d9c69d2a47ea670b442974b53935d1edc7fd64eb21e047a839171b9190a4506001610651565b600260015403611a695760405162461bcd60e51b81526004016106ae90612421565b60026001556001600160a01b038616611abc5760405162461bcd60e51b8152602060048201526015602482015274496e76616c6964206f776e6572206164647265737360581b60448201526064016106ae565b60008411611b0c5760405162461bcd60e51b815260206004820152601860248201527f5072656d69756d206d75737420626520706f736974697665000000000000000060448201526064016106ae565b60008311611b5c5760405162461bcd60e51b815260206004820152601c60248201527f53756d2061737375726564206d75737420626520706f7369746976650000000060448201526064016106ae565b60008211611bac5760405162461bcd60e51b815260206004820152601960248201527f4475726174696f6e206d75737420626520706f7369746976650000000000000060448201526064016106ae565b833414611bfb5760405162461bcd60e51b815260206004820152601860248201527f496e636f7272656374207072656d69756d20616d6f756e74000000000000000060448201526064016106ae565b6000868686868646604051602001611c189695949392919061265f565b604051602081830303815290604052805190602001209050611c3a8183611905565b611c565760405162461bcd60e51b81526004016106ae906123f6565b81516020808401919091206000908152600690915260408120805460ff19166001179055611c848842611faa565b60008181526004602052604090206005015490915060ff1615611ce15760405162461bcd60e51b8152602060048201526015602482015274506f6c69637920616c72656164792065786973747360581b60448201526064016106ae565b604051806101000160405280828152602001896001600160a01b031681526020018781526020018681526020018542611d1a919061248c565b8152600160208083018290526000604080850182905242606095860152868252600480845291819020865181559286015193830180546001600160a01b039095166001600160a01b03199095169490941790935591840151600282015591830151600383015560808301519082015560a082015160058201805460c085015115156101000261ff00199315159390931661ffff199091161791909117905560e0909101516006909101556001600160a01b038816817f105d821f4999dd4d79a889f0a0b1a1f6a5366615d06b4b7aef9e0a42a1de8cff8888611dfc894261248c565b6040805193845260208401929092529082015260600160405180910390a3505060018055505050505050565b611e328282611341565b611e615760405163e2517d3f60e01b81526001600160a01b0382166004820152602481018390526044016106ae565b5050565b60008151604114611eb85760405162461bcd60e51b815260206004820152601860248201527f496e76616c6964207369676e6174757265206c656e677468000000000000000060448201526064016106ae565b60208201516040830151606084015160001a601b811015611ee157611ede601b826126b0565b90505b8060ff16601b1480611ef657508060ff16601c145b611f425760405162461bcd60e51b815260206004820152601b60248201527f496e76616c6964207369676e6174757265202776272076616c7565000000000060448201526064016106ae565b60408051600081526020810180835288905260ff831691810191909152606081018490526080810183905260019060a0016020604051602081039080840390855afa158015611f95573d6000803e3d6000fd5b5050604051601f190151979650505050505050565b60008282604051602001611fbf929190612608565b60405160208183030381529060405280519060200120905092915050565b600060208284031215611fef57600080fd5b81356001600160e01b03198116811461200757600080fd5b9392505050565b60006020828403121561202057600080fd5b5035919050565b80356001600160a01b038116811461203e57600080fd5b919050565b6000806040838503121561205657600080fd5b8235915061206660208401612027565b90509250929050565b634e487b7160e01b600052604160045260246000fd5b600067ffffffffffffffff808411156120a0576120a061206f565b604051601f8501601f19908116603f011681019082821181831017156120c8576120c861206f565b816040528093508581528686860111156120e157600080fd5b858560208301376000602087830101525050509392505050565b600082601f83011261210c57600080fd5b61200783833560208501612085565b60008060006060848603121561213057600080fd5b8335925060208401359150604084013567ffffffffffffffff81111561215557600080fd5b612161868287016120fb565b9150509250925092565b6000806000806080858703121561218157600080fd5b8435935060208501359250604085013567ffffffffffffffff808211156121a757600080fd5b818701915087601f8301126121bb57600080fd5b6121ca88833560208501612085565b935060608701359150808211156121e057600080fd5b506121ed878288016120fb565b91505092959194509250565b6000806000806080858703121561220f57600080fd5b843593506020850135925060408501359150606085013567ffffffffffffffff81111561223b57600080fd5b6121ed878288016120fb565b60006020828403121561225957600080fd5b61200782612027565b60008060008060008060c0878903121561227b57600080fd5b61228487612027565b9550602087013567ffffffffffffffff808211156122a157600080fd5b6122ad8a838b016120fb565b965060408901359550606089013594506080890135935060a08901359150808211156122d857600080fd5b506122e589828a016120fb565b9150509295509295509295565b60005b8381101561230d5781810151838201526020016122f5565b50506000910152565b6000815180845261232e8160208601602086016122f2565b601f01601f19169290920160200192915050565b6020815281516020820152602082015160408201526000604083015160c0606084015261237260e0840182612316565b9050606084015115156080840152608084015160a084015260a084015160c08401528091505092915050565b634e487b7160e01b600052601160045260246000fd5b80820281158282048414176106515761065161239e565b602080825260119082015270506f6c696379206e6f742061637469766560781b604082015260600190565b602080825260119082015270496e76616c6964207369676e617475726560781b604082015260600190565b6020808252601f908201527f5265656e7472616e637947756172643a207265656e7472616e742063616c6c00604082015260600190565b848152836020820152600083516124768160408501602088016122f2565b6040920191820192909252606001949350505050565b808201808211156106515761065161239e565b600181811c908216806124b357607f821691505b6020821081036124d357634e487b7160e01b600052602260045260246000fd5b50919050565b601f82111561099f57600081815260208120601f850160051c810160208610156125005750805b601f850160051c820191505b8181101561251f5782815560010161250c565b505050505050565b815167ffffffffffffffff8111156125415761254161206f565b6125558161254f845461249f565b846124d9565b602080601f83116001811461258a57600084156125725750858301515b600019600386901b1c1916600185901b17855561251f565b600085815260208120601f198616915b828110156125b95788860151825594840194600190910190840161259a565b50858210156125d75787850151600019600388901b60f8161c191681555b5050505050600190811b01905550565b8281526040602082015260006126006040830184612316565b949350505050565b60609290921b6bffffffffffffffffffffffff19168252601482015260340190565b818103818111156106515761065161239e565b60008261265a57634e487b7160e01b600052601260045260246000fd5b500490565b6bffffffffffffffffffffffff198760601b16815260008651612689816014850160208b016122f2565b90910160148101959095525060348401929092526054830152607482015260940192915050565b60ff81811683821601908111156106515761065161239e56fea49807205ce4d355092ef5a8a18f56e8913cf4a201fbe287825b095693c21775a26469706673582212206d0a0d9c95080ef852245188c2cd16aaa438e192374c7961292bd05dafd673c564736f6c63430008140033",
  "linkReferences": {},
  "deployedLinkReferences": {}
}