{
  "_format": "hh-sol-artifact-1",
  "contractName": "FlightInsurance",
  "sourceName": "contracts/FlightDelayInsurance.sol",
  "abi": [
    {
      "anonymous": false,
      "inputs": [
        {
          "indexed": true,
          "internalType": "address",
          "name": "previousOwner",
          "type": "address"
        },
        {
          "indexed": true,
          "internalType": "address",
          "name": "newOwner",
          "type": "address"
        }
      ],
      "name": "OwnershipTransferred",
      "type": "event"
    },
    {
      "anonymous": false,
      "inputs": [
        {
          "indexed": true,
          "internalType": "address",
          "name": "user",
          "type": "address"
        },
        {
          "indexed": false,
          "internalType": "uint256",
          "name": "policyId",
          "type": "uint256"
        },
        {
          "indexed": false,
          "internalType": "string",
          "name": "reason",
          "type": "string"
        }
      ],
      "name": "PayoutDeclined",
      "type": "event"
    },
    {
      "anonymous": false,
      "inputs": [
        {
          "indexed": true,
          "internalType": "address",
          "name": "user",
          "type": "address"
        },
        {
          "indexed": false,
          "internalType": "uint256",
          "name": "policyId",
          "type": "uint256"
        },
        {
          "indexed": false,
          "internalType": "uint256",
          "name": "amount",
          "type": "uint256"
        }
      ],
      "name": "PayoutIssued",
      "type": "event"
    },
    {
      "anonymous": false,
      "inputs": [
        {
          "indexed": true,
          "internalType": "address",
          "name": "user",
          "type": "address"
        },
        {
          "indexed": false,
          "internalType": "uint256",
          "name": "policyId",
          "type": "uint256"
        },
        {
          "indexed": false,
          "internalType": "string",
          "name": "flightNumber",
          "type": "string"
        },
        {
          "indexed": false,
          "internalType": "uint256",
          "name": "flightTime",
          "type": "uint256"
        },
        {
          "indexed": false,
          "internalType": "uint256",
          "name": "premium",
          "type": "uint256"
        }
      ],
      "name": "PolicyCreated",
      "type": "event"
    },
    {
      "inputs": [
        {
          "internalType": "uint256",
          "name": "coveragePerPerson",
          "type": "uint256"
        },
        {
          "internalType": "uint256",
          "name": "delayMinutes",
          "type": "uint256"
        },
        {
          "internalType": "uint256",
          "name": "numPersons",
          "type": "uint256"
        }
      ],
      "name": "calculatePayout",
      "outputs": [
        {
          "internalType": "uint256",
          "name": "",
          "type": "uint256"
        }
      ],
      "stateMutability": "pure",
      "type": "function"
    },
    {
      "inputs": [
        {
          "internalType": "string",
          "name": "_flightNumber",
          "type": "string"
        },
        {
          "internalType": "uint256",
          "name": "_flightTime",
          "type": "uint256"
        },
        {
          "internalType": "uint256",
          "name": "_coveragePerPerson",
          "type": "uint256"
        },
        {
          "internalType": "uint256",
          "name": "_numPersons",
          "type": "uint256"
        },
        {
          "internalType": "uint256",
          "name": "_premium",
          "type": "uint256"
        },
        {
          "internalType": "bytes",
          "name": "signature",
          "type": "bytes"
        }
      ],
      "name": "createPolicy",
      "outputs": [],
      "stateMutability": "payable",
      "type": "function"
    },
    {
      "inputs": [
        {
          "internalType": "uint256",
          "name": "_policyId",
          "type": "uint256"
        }
      ],
      "name": "expirePolicy",
      "outputs": [],
      "stateMutability": "nonpayable",
      "type": "function"
    },
    {
      "inputs": [
        {
          "internalType": "address",
          "name": "user",
          "type": "address"
        }
      ],
      "name": "getUserPolicies",
      "outputs": [
        {
          "internalType": "uint256[]",
          "name": "",
          "type": "uint256[]"
        }
      ],
      "stateMutability": "view",
      "type": "function"
    },
    {
      "inputs": [],
      "name": "owner",
      "outputs": [
        {
          "internalType": "address",
          "name": "",
          "type": "address"
        }
      ],
      "stateMutability": "view",
      "type": "function"
    },
    {
      "inputs": [
        {
          "internalType": "uint256",
          "name": "",
          "type": "uint256"
        }
      ],
      "name": "policies",
      "outputs": [
        {
          "internalType": "address",
          "name": "user",
          "type": "address"
        },
        {
          "internalType": "string",
          "name": "flightNumber",
          "type": "string"
        },
        {
          "internalType": "uint256",
          "name": "flightTime",
          "type": "uint256"
        },
        {
          "internalType": "uint256",
          "name": "coverageAmountPerPerson",
          "type": "uint256"
        },
        {
          "internalType": "uint256",
          "name": "premiumPaid",
          "type": "uint256"
        },
        {
          "internalType": "uint256",
          "name": "numInsuredPersons",
          "type": "uint256"
        },
        {
          "internalType": "enum FlightInsurance.PolicyStatus",
          "name": "status",
          "type": "uint8"
        },
        {
          "internalType": "bool",
          "name": "eligibleForPayout",
          "type": "bool"
        }
      ],
      "stateMutability": "view",
      "type": "function"
    },
    {
      "inputs": [],
      "name": "policyCounter",
      "outputs": [
        {
          "internalType": "uint256",
          "name": "",
          "type": "uint256"
        }
      ],
      "stateMutability": "view",
      "type": "function"
    },
    {
      "inputs": [
        {
          "internalType": "uint256",
          "name": "_policyId",
          "type": "uint256"
        },
        {
          "internalType": "uint256",
          "name": "delayInMinutes",
          "type": "uint256"
        }
      ],
      "name": "processFlightStatus",
      "outputs": [],
      "stateMutability": "nonpayable",
      "type": "function"
    },
    {
      "inputs": [],
      "name": "renounceOwnership",
      "outputs": [],
      "stateMutability": "nonpayable",
      "type": "function"
    },
    {
      "inputs": [
        {
          "internalType": "address",
          "name": "_oracle",
          "type": "address"
        }
      ],
      "name": "setTrustedOracle",
      "outputs": [],
      "stateMutability": "nonpayable",
      "type": "function"
    },
    {
      "inputs": [
        {
          "internalType": "address",
          "name": "_signer",
          "type": "address"
        }
      ],
      "name": "setTrustedSigner",
      "outputs": [],
      "stateMutability": "nonpayable",
      "type": "function"
    },
    {
      "inputs": [
        {
          "internalType": "address",
          "name": "newOwner",
          "type": "address"
        }
      ],
      "name": "transferOwnership",
      "outputs": [],
      "stateMutability": "nonpayable",
      "type": "function"
    },
    {
      "inputs": [],
      "name": "trustedOracle",
      "outputs": [
        {
          "internalType": "address",
          "name": "",
          "type": "address"
        }
      ],
      "stateMutability": "view",
      "type": "function"
    },
    {
      "inputs": [],
      "name": "trustedSigner",
      "outputs": [
        {
          "internalType": "address",
          "name": "",
          "type": "address"
        }
      ],
      "stateMutability": "view",
      "type": "function"
    },
    {
      "inputs": [
        {
          "internalType": "address",
          "name": "",
          "type": "address"
        },
        {
          "internalType": "uint256",
          "name": "",
          "type": "uint256"
        }
      ],
      "name": "userPolicies",
      "outputs": [
        {
          "internalType": "uint256",
          "name": "",
          "type": "uint256"
        }
      ],
      "stateMutability": "view",
      "type": "function"
    },
    {
      "stateMutability": "payable",
      "type": "receive"
    }
  ],
  "bytecode": "0x608060405234801561001057600080fd5b5061002d61002261003960201b60201c565b61004160201b60201c565b60018081905550610105565b600033905090565b60008060009054906101000a900473ffffffffffffffffffffffffffffffffffffffff169050816000806101000a81548173ffffffffffffffffffffffffffffffffffffffff021916908373ffffffffffffffffffffffffffffffffffffffff1602179055508173ffffffffffffffffffffffffffffffffffffffff168173ffffffffffffffffffffffffffffffffffffffff167f8be0079c531659141344cd1fd0a4f28419497f9722a3daafe3b4186f6b6457e060405160405180910390a35050565b612c2a806101146000396000f3fe6080604052600436106100ec5760003560e01c80638da5cb5b1161008a578063d52c1bea11610059578063d52c1bea146102f5578063e204850314610320578063f2fde38b1461034b578063f74d548014610374576100f3565b80638da5cb5b14610241578063b22bd2981461026c578063d3e8948314610295578063d4b1772f146102d9576100f3565b80633037e4cd116100c65780633037e4cd1461019b5780633d36adc5146101c457806356a1c70114610201578063715018a61461022a576100f3565b80630caee2ca146100f85780630d6d0ba81461013557806319ac46141461015e576100f3565b366100f357005b600080fd5b34801561010457600080fd5b5061011f600480360381019061011a919061165a565b61039f565b60405161012c91906116bc565b60405180910390f35b34801561014157600080fd5b5061015c600480360381019061015791906116d7565b6103fd565b005b34801561016a57600080fd5b5061018560048036038101906101809190611775565b6107cc565b6040516101929190611860565b60405180910390f35b3480156101a757600080fd5b506101c260048036038101906101bd9190611882565b610863565b005b3480156101d057600080fd5b506101eb60048036038101906101e691906118af565b610a79565b6040516101f891906116bc565b60405180910390f35b34801561020d57600080fd5b5061022860048036038101906102239190611775565b610aaa565b005b34801561023657600080fd5b5061023f610af6565b005b34801561024d57600080fd5b50610256610b0a565b60405161026391906118fe565b60405180910390f35b34801561027857600080fd5b50610293600480360381019061028e9190611775565b610b33565b005b3480156102a157600080fd5b506102bc60048036038101906102b79190611882565b610b7f565b6040516102d0989796959493929190611a3b565b60405180910390f35b6102f360048036038101906102ee9190611c96565b610c89565b005b34801561030157600080fd5b5061030a6110a3565b60405161031791906116bc565b60405180910390f35b34801561032c57600080fd5b506103356110a9565b60405161034291906118fe565b60405180910390f35b34801561035757600080fd5b50610372600480360381019061036d9190611775565b6110cf565b005b34801561038057600080fd5b50610389611152565b60405161039691906118fe565b60405180910390f35b600060788310156103b357600090506103f6565b60f08310156103e7576064603283866103cc9190611d8a565b6103d69190611d8a565b6103e09190611dfb565b90506103f6565b81846103f39190611d8a565b90505b9392505050565b600660009054906101000a900473ffffffffffffffffffffffffffffffffffffffff1673ffffffffffffffffffffffffffffffffffffffff163373ffffffffffffffffffffffffffffffffffffffff161461048d576040517f08c379a000000000000000000000000000000000000000000000000000000000815260040161048490611e78565b60405180910390fd5b610495611178565b6000600360008481526020019081526020016000209050600060028111156104c0576104bf6119a9565b5b8160060160009054906101000a900460ff1660028111156104e4576104e36119a9565b5b14610524576040517f08c379a000000000000000000000000000000000000000000000000000000000815260040161051b90611ee4565b60405180910390fd5b4281600201541061056a576040517f08c379a000000000000000000000000000000000000000000000000000000000815260040161056190611f50565b60405180910390fd5b600061057f826003015484846005015461039f565b9050600081111561071e5760018260060160006101000a81548160ff021916908360028111156105b2576105b16119a9565b5b021790555060018260060160016101000a81548160ff02191690831515021790555060008260000160009054906101000a900473ffffffffffffffffffffffffffffffffffffffff1673ffffffffffffffffffffffffffffffffffffffff168260405161061e90611fa1565b60006040518083038185875af1925050503d806000811461065b576040519150601f19603f3d011682016040523d82523d6000602084013e610660565b606091505b50509050806106a4576040517f08c379a000000000000000000000000000000000000000000000000000000000815260040161069b90612002565b60405180910390fd5b8260000160009054906101000a900473ffffffffffffffffffffffffffffffffffffffff1673ffffffffffffffffffffffffffffffffffffffff167f5d7b34925134c066f9853678d25b891c2f12900d2489fec031992f0d7430903a8684604051610710929190612022565b60405180910390a2506107be565b60028260060160006101000a81548160ff02191690836002811115610746576107456119a9565b5b02179055508160000160009054906101000a900473ffffffffffffffffffffffffffffffffffffffff1673ffffffffffffffffffffffffffffffffffffffff167f745026180152c400bec3b0374ab35c461f355de3b6d9852768cdeb6b1be99b33856040516107b59190612097565b60405180910390a25b50506107c86111c7565b5050565b6060600460008373ffffffffffffffffffffffffffffffffffffffff1673ffffffffffffffffffffffffffffffffffffffff16815260200190815260200160002080548060200260200160405190810160405280929190818152602001828054801561085757602002820191906000526020600020905b815481526020019060010190808311610843575b50505050509050919050565b600660009054906101000a900473ffffffffffffffffffffffffffffffffffffffff1673ffffffffffffffffffffffffffffffffffffffff163373ffffffffffffffffffffffffffffffffffffffff16146108f3576040517f08c379a00000000000000000000000000000000000000000000000000000000081526004016108ea90611e78565b60405180910390fd5b60006003600083815260200190815260200160002090506000600281111561091e5761091d6119a9565b5b8160060160009054906101000a900460ff166002811115610942576109416119a9565b5b14610982576040517f08c379a000000000000000000000000000000000000000000000000000000000815260040161097990612111565b60405180910390fd5b6202a30081600201546109959190612131565b42116109d6576040517f08c379a00000000000000000000000000000000000000000000000000000000081526004016109cd906121b1565b60405180910390fd5b60028160060160006101000a81548160ff021916908360028111156109fe576109fd6119a9565b5b02179055508060000160009054906101000a900473ffffffffffffffffffffffffffffffffffffffff1673ffffffffffffffffffffffffffffffffffffffff167f745026180152c400bec3b0374ab35c461f355de3b6d9852768cdeb6b1be99b3383604051610a6d919061221d565b60405180910390a25050565b60046020528160005260406000208181548110610a9557600080fd5b90600052602060002001600091509150505481565b610ab26111d0565b80600560006101000a81548173ffffffffffffffffffffffffffffffffffffffff021916908373ffffffffffffffffffffffffffffffffffffffff16021790555050565b610afe6111d0565b610b08600061124e565b565b60008060009054906101000a900473ffffffffffffffffffffffffffffffffffffffff16905090565b610b3b6111d0565b80600660006101000a81548173ffffffffffffffffffffffffffffffffffffffff021916908373ffffffffffffffffffffffffffffffffffffffff16021790555050565b60036020528060005260406000206000915090508060000160009054906101000a900473ffffffffffffffffffffffffffffffffffffffff1690806001018054610bc89061227a565b80601f0160208091040260200160405190810160405280929190818152602001828054610bf49061227a565b8015610c415780601f10610c1657610100808354040283529160200191610c41565b820191906000526020600020905b815481529060010190602001808311610c2457829003601f168201915b5050505050908060020154908060030154908060040154908060050154908060060160009054906101000a900460ff16908060060160019054906101000a900460ff16905088565b428511610ccb576040517f08c379a0000000000000000000000000000000000000000000000000000000008152600401610cc2906122f7565b60405180910390fd5b60008411610d0e576040517f08c379a0000000000000000000000000000000000000000000000000000000008152600401610d0590612363565b60405180910390fd5b60008311610d51576040517f08c379a0000000000000000000000000000000000000000000000000000000008152600401610d48906123f5565b60405180910390fd5b813414610d93576040517f08c379a0000000000000000000000000000000000000000000000000000000008152600401610d8a90612461565b60405180910390fd5b600086858585604051602001610dac94939291906124de565b6040516020818303038152906040528051906020012090506000610dcf82611312565b90506000610ddd8285611348565b9050600560009054906101000a900473ffffffffffffffffffffffffffffffffffffffff1673ffffffffffffffffffffffffffffffffffffffff168173ffffffffffffffffffffffffffffffffffffffff1614610e6f576040517f08c379a0000000000000000000000000000000000000000000000000000000008152600401610e6690612574565b60405180910390fd5b6040518061010001604052803373ffffffffffffffffffffffffffffffffffffffff1681526020018a815260200189815260200188815260200134815260200187815260200160006002811115610ec957610ec86119a9565b5b81526020016000151581525060036000600254815260200190815260200160002060008201518160000160006101000a81548173ffffffffffffffffffffffffffffffffffffffff021916908373ffffffffffffffffffffffffffffffffffffffff1602179055506020820151816001019081610f469190612740565b5060408201518160020155606082015181600301556080820151816004015560a0820151816005015560c08201518160060160006101000a81548160ff02191690836002811115610f9a57610f996119a9565b5b021790555060e08201518160060160016101000a81548160ff021916908315150217905550905050600460003373ffffffffffffffffffffffffffffffffffffffff1673ffffffffffffffffffffffffffffffffffffffff16815260200190815260200160002060025490806001815401808255809150506001900390600052602060002001600090919091909150553373ffffffffffffffffffffffffffffffffffffffff167f93f9883891d9ece12f7a2673036698a2b2f7dae95be386c96670054b19b09f306002548b8b346040516110789493929190612812565b60405180910390a2600260008154809291906110939061285e565b9190505550505050505050505050565b60025481565b600660009054906101000a900473ffffffffffffffffffffffffffffffffffffffff1681565b6110d76111d0565b600073ffffffffffffffffffffffffffffffffffffffff168173ffffffffffffffffffffffffffffffffffffffff1603611146576040517f08c379a000000000000000000000000000000000000000000000000000000000815260040161113d90612918565b60405180910390fd5b61114f8161124e565b50565b600560009054906101000a900473ffffffffffffffffffffffffffffffffffffffff1681565b6002600154036111bd576040517f08c379a00000000000000000000000000000000000000000000000000000000081526004016111b490612984565b60405180910390fd5b6002600181905550565b60018081905550565b6111d861136f565b73ffffffffffffffffffffffffffffffffffffffff166111f6610b0a565b73ffffffffffffffffffffffffffffffffffffffff161461124c576040517f08c379a0000000000000000000000000000000000000000000000000000000008152600401611243906129f0565b60405180910390fd5b565b60008060009054906101000a900473ffffffffffffffffffffffffffffffffffffffff169050816000806101000a81548173ffffffffffffffffffffffffffffffffffffffff021916908373ffffffffffffffffffffffffffffffffffffffff1602179055508173ffffffffffffffffffffffffffffffffffffffff168173ffffffffffffffffffffffffffffffffffffffff167f8be0079c531659141344cd1fd0a4f28419497f9722a3daafe3b4186f6b6457e060405160405180910390a35050565b60007f19457468657265756d205369676e6564204d6573736167653a0a33320000000060005281601c52603c6000209050919050565b60008060006113578585611377565b91509150611364816113c8565b819250505092915050565b600033905090565b60008060418351036113b85760008060006020860151925060408601519150606086015160001a90506113ac8782858561152e565b945094505050506113c1565b60006002915091505b9250929050565b600060048111156113dc576113db6119a9565b5b8160048111156113ef576113ee6119a9565b5b031561152b5760016004811115611409576114086119a9565b5b81600481111561141c5761141b6119a9565b5b0361145c576040517f08c379a000000000000000000000000000000000000000000000000000000000815260040161145390612a5c565b60405180910390fd5b600260048111156114705761146f6119a9565b5b816004811115611483576114826119a9565b5b036114c3576040517f08c379a00000000000000000000000000000000000000000000000000000000081526004016114ba90612ac8565b60405180910390fd5b600360048111156114d7576114d66119a9565b5b8160048111156114ea576114e96119a9565b5b0361152a576040517f08c379a000000000000000000000000000000000000000000000000000000000815260040161152190612b5a565b60405180910390fd5b5b50565b6000807f7fffffffffffffffffffffffffffffff5d576e7357a4501ddfe92f46681b20a08360001c1115611569576000600391509150611607565b60006001878787876040516000815260200160405260405161158e9493929190612baf565b6020604051602081039080840390855afa1580156115b0573d6000803e3d6000fd5b505050602060405103519050600073ffffffffffffffffffffffffffffffffffffffff168173ffffffffffffffffffffffffffffffffffffffff16036115fe57600060019250925050611607565b80600092509250505b94509492505050565b6000604051905090565b600080fd5b600080fd5b6000819050919050565b61163781611624565b811461164257600080fd5b50565b6000813590506116548161162e565b92915050565b6000806000606084860312156116735761167261161a565b5b600061168186828701611645565b935050602061169286828701611645565b92505060406116a386828701611645565b9150509250925092565b6116b681611624565b82525050565b60006020820190506116d160008301846116ad565b92915050565b600080604083850312156116ee576116ed61161a565b5b60006116fc85828601611645565b925050602061170d85828601611645565b9150509250929050565b600073ffffffffffffffffffffffffffffffffffffffff82169050919050565b600061174282611717565b9050919050565b61175281611737565b811461175d57600080fd5b50565b60008135905061176f81611749565b92915050565b60006020828403121561178b5761178a61161a565b5b600061179984828501611760565b91505092915050565b600081519050919050565b600082825260208201905092915050565b6000819050602082019050919050565b6117d781611624565b82525050565b60006117e983836117ce565b60208301905092915050565b6000602082019050919050565b600061180d826117a2565b61181781856117ad565b9350611822836117be565b8060005b8381101561185357815161183a88826117dd565b9750611845836117f5565b925050600181019050611826565b5085935050505092915050565b6000602082019050818103600083015261187a8184611802565b905092915050565b6000602082840312156118985761189761161a565b5b60006118a684828501611645565b91505092915050565b600080604083850312156118c6576118c561161a565b5b60006118d485828601611760565b92505060206118e585828601611645565b9150509250929050565b6118f881611737565b82525050565b600060208201905061191360008301846118ef565b92915050565b600081519050919050565b600082825260208201905092915050565b60005b83811015611953578082015181840152602081019050611938565b60008484015250505050565b6000601f19601f8301169050919050565b600061197b82611919565b6119858185611924565b9350611995818560208601611935565b61199e8161195f565b840191505092915050565b7f4e487b7100000000000000000000000000000000000000000000000000000000600052602160045260246000fd5b600381106119e9576119e86119a9565b5b50565b60008190506119fa826119d8565b919050565b6000611a0a826119ec565b9050919050565b611a1a816119ff565b82525050565b60008115159050919050565b611a3581611a20565b82525050565b600061010082019050611a51600083018b6118ef565b8181036020830152611a63818a611970565b9050611a7260408301896116ad565b611a7f60608301886116ad565b611a8c60808301876116ad565b611a9960a08301866116ad565b611aa660c0830185611a11565b611ab360e0830184611a2c565b9998505050505050505050565b600080fd5b600080fd5b7f4e487b7100000000000000000000000000000000000000000000000000000000600052604160045260246000fd5b611b028261195f565b810181811067ffffffffffffffff82111715611b2157611b20611aca565b5b80604052505050565b6000611b34611610565b9050611b408282611af9565b919050565b600067ffffffffffffffff821115611b6057611b5f611aca565b5b611b698261195f565b9050602081019050919050565b82818337600083830152505050565b6000611b98611b9384611b45565b611b2a565b905082815260208101848484011115611bb457611bb3611ac5565b5b611bbf848285611b76565b509392505050565b600082601f830112611bdc57611bdb611ac0565b5b8135611bec848260208601611b85565b91505092915050565b600067ffffffffffffffff821115611c1057611c0f611aca565b5b611c198261195f565b9050602081019050919050565b6000611c39611c3484611bf5565b611b2a565b905082815260208101848484011115611c5557611c54611ac5565b5b611c60848285611b76565b509392505050565b600082601f830112611c7d57611c7c611ac0565b5b8135611c8d848260208601611c26565b91505092915050565b60008060008060008060c08789031215611cb357611cb261161a565b5b600087013567ffffffffffffffff811115611cd157611cd061161f565b5b611cdd89828a01611bc7565b9650506020611cee89828a01611645565b9550506040611cff89828a01611645565b9450506060611d1089828a01611645565b9350506080611d2189828a01611645565b92505060a087013567ffffffffffffffff811115611d4257611d4161161f565b5b611d4e89828a01611c68565b9150509295509295509295565b7f4e487b7100000000000000000000000000000000000000000000000000000000600052601160045260246000fd5b6000611d9582611624565b9150611da083611624565b9250828202611dae81611624565b91508282048414831517611dc557611dc4611d5b565b5b5092915050565b7f4e487b7100000000000000000000000000000000000000000000000000000000600052601260045260246000fd5b6000611e0682611624565b9150611e1183611624565b925082611e2157611e20611dcc565b5b828204905092915050565b7f4f6e6c79206f7261636c652063616e2063616c6c207468697300000000000000600082015250565b6000611e62601983611924565b9150611e6d82611e2c565b602082019050919050565b60006020820190508181036000830152611e9181611e55565b9050919050565b7f506f6c696379206e6f7420616374697665000000000000000000000000000000600082015250565b6000611ece601183611924565b9150611ed982611e98565b602082019050919050565b60006020820190508181036000830152611efd81611ec1565b9050919050565b7f466c69676874206861736e27742068617070656e656420796574000000000000600082015250565b6000611f3a601a83611924565b9150611f4582611f04565b602082019050919050565b60006020820190508181036000830152611f6981611f2d565b9050919050565b600081905092915050565b50565b6000611f8b600083611f70565b9150611f9682611f7b565b600082019050919050565b6000611fac82611f7e565b9150819050919050565b7f5061796f7574206661696c656400000000000000000000000000000000000000600082015250565b6000611fec600d83611924565b9150611ff782611fb6565b602082019050919050565b6000602082019050818103600083015261201b81611fdf565b9050919050565b600060408201905061203760008301856116ad565b61204460208301846116ad565b9392505050565b7f44656c617920746f6f2073686f72740000000000000000000000000000000000600082015250565b6000612081600f83611924565b915061208c8261204b565b602082019050919050565b60006040820190506120ac60008301846116ad565b81810360208301526120bd81612074565b905092915050565b7f506f6c69637920616c72656164792068616e646c656400000000000000000000600082015250565b60006120fb601683611924565b9150612106826120c5565b602082019050919050565b6000602082019050818103600083015261212a816120ee565b9050919050565b600061213c82611624565b915061214783611624565b925082820190508082111561215f5761215e611d5b565b5b92915050565b7f477261636520706572696f64206e6f74206f7665720000000000000000000000600082015250565b600061219b601583611924565b91506121a682612165565b602082019050919050565b600060208201905081810360008301526121ca8161218e565b9050919050565b7f477261636520706572696f642065787069726564000000000000000000000000600082015250565b6000612207601483611924565b9150612212826121d1565b602082019050919050565b600060408201905061223260008301846116ad565b8181036020830152612243816121fa565b905092915050565b7f4e487b7100000000000000000000000000000000000000000000000000000000600052602260045260246000fd5b6000600282049050600182168061229257607f821691505b6020821081036122a5576122a461224b565b5b50919050565b7f466c69676874206d75737420626520696e207468652066757475726500000000600082015250565b60006122e1601c83611924565b91506122ec826122ab565b602082019050919050565b60006020820190508181036000830152612310816122d4565b9050919050565b7f436f766572616765206d757374206265203e2030000000000000000000000000600082015250565b600061234d601483611924565b915061235882612317565b602082019050919050565b6000602082019050818103600083015261237c81612340565b9050919050565b7f4174206c65617374206f6e6520706572736f6e206d75737420626520696e737560008201527f7265640000000000000000000000000000000000000000000000000000000000602082015250565b60006123df602383611924565b91506123ea82612383565b604082019050919050565b6000602082019050818103600083015261240e816123d2565b9050919050565b7f496e636f7272656374207072656d69756d2073656e7400000000000000000000600082015250565b600061244b601683611924565b915061245682612415565b602082019050919050565b6000602082019050818103600083015261247a8161243e565b9050919050565b600081905092915050565b600061249782611919565b6124a18185612481565b93506124b1818560208601611935565b80840191505092915050565b6000819050919050565b6124d86124d382611624565b6124bd565b82525050565b60006124ea828761248c565b91506124f682866124c7565b60208201915061250682856124c7565b60208201915061251682846124c7565b60208201915081905095945050505050565b7f496e76616c6964207072656d69756d207369676e617475726500000000000000600082015250565b600061255e601983611924565b915061256982612528565b602082019050919050565b6000602082019050818103600083015261258d81612551565b9050919050565b60008190508160005260206000209050919050565b60006020601f8301049050919050565b600082821b905092915050565b6000600883026125f67fffffffffffffffffffffffffffffffffffffffffffffffffffffffffffffffff826125b9565b61260086836125b9565b95508019841693508086168417925050509392505050565b6000819050919050565b600061263d61263861263384611624565b612618565b611624565b9050919050565b6000819050919050565b61265783612622565b61266b61266382612644565b8484546125c6565b825550505050565b600090565b612680612673565b61268b81848461264e565b505050565b5b818110156126af576126a4600082612678565b600181019050612691565b5050565b601f8211156126f4576126c581612594565b6126ce846125a9565b810160208510156126dd578190505b6126f16126e9856125a9565b830182612690565b50505b505050565b600082821c905092915050565b6000612717600019846008026126f9565b1980831691505092915050565b60006127308383612706565b9150826002028217905092915050565b61274982611919565b67ffffffffffffffff81111561276257612761611aca565b5b61276c825461227a565b6127778282856126b3565b600060209050601f8311600181146127aa5760008415612798578287015190505b6127a28582612724565b86555061280a565b601f1984166127b886612594565b60005b828110156127e0578489015182556001820191506020850194506020810190506127bb565b868310156127fd57848901516127f9601f891682612706565b8355505b6001600288020188555050505b505050505050565b600060808201905061282760008301876116ad565b81810360208301526128398186611970565b905061284860408301856116ad565b61285560608301846116ad565b95945050505050565b600061286982611624565b91507fffffffffffffffffffffffffffffffffffffffffffffffffffffffffffffffff820361289b5761289a611d5b565b5b600182019050919050565b7f4f776e61626c653a206e6577206f776e657220697320746865207a65726f206160008201527f6464726573730000000000000000000000000000000000000000000000000000602082015250565b6000612902602683611924565b915061290d826128a6565b604082019050919050565b60006020820190508181036000830152612931816128f5565b9050919050565b7f5265656e7472616e637947756172643a207265656e7472616e742063616c6c00600082015250565b600061296e601f83611924565b915061297982612938565b602082019050919050565b6000602082019050818103600083015261299d81612961565b9050919050565b7f4f776e61626c653a2063616c6c6572206973206e6f7420746865206f776e6572600082015250565b60006129da602083611924565b91506129e5826129a4565b602082019050919050565b60006020820190508181036000830152612a09816129cd565b9050919050565b7f45434453413a20696e76616c6964207369676e61747572650000000000000000600082015250565b6000612a46601883611924565b9150612a5182612a10565b602082019050919050565b60006020820190508181036000830152612a7581612a39565b9050919050565b7f45434453413a20696e76616c6964207369676e6174757265206c656e67746800600082015250565b6000612ab2601f83611924565b9150612abd82612a7c565b602082019050919050565b60006020820190508181036000830152612ae181612aa5565b9050919050565b7f45434453413a20696e76616c6964207369676e6174757265202773272076616c60008201527f7565000000000000000000000000000000000000000000000000000000000000602082015250565b6000612b44602283611924565b9150612b4f82612ae8565b604082019050919050565b60006020820190508181036000830152612b7381612b37565b9050919050565b6000819050919050565b612b8d81612b7a565b82525050565b600060ff82169050919050565b612ba981612b93565b82525050565b6000608082019050612bc46000830187612b84565b612bd16020830186612ba0565b612bde6040830185612b84565b612beb6060830184612b84565b9594505050505056fea26469706673582212209d83a0d2a212d58c12958e4790fb399dfa92df2f19a4c405f37a177ab57cf63c64736f6c634300081c0033",
  "linkReferences": {},
  "deployedLinkReferences": {}
}