{
  "_format": "hh-sol-artifact-1",
  "contractName": "PolicyBaseMock",
  "sourceName": "contracts/base/PolicyBaseMock.sol",
  "abi": [
    {
      "inputs": [
        {
          "internalType": "address",
          "name": "_trustedSigner",
          "type": "address"
        }
      ],
      "stateMutability": "nonpayable",
      "type": "constructor"
    },
    {
      "inputs": [],
      "name": "AccessControlBadConfirmation",
      "type": "error"
    },
    {
      "inputs": [
        {
          "internalType": "address",
          "name": "account",
          "type": "address"
        },
        {
          "internalType": "bytes32",
          "name": "neededRole",
          "type": "bytes32"
        }
      ],
      "name": "AccessControlUnauthorizedAccount",
      "type": "error"
    },
    {
      "anonymous": false,
      "inputs": [
        {
          "indexed": true,
          "internalType": "address",
          "name": "admin",
          "type": "address"
        }
      ],
      "name": "AdminGranted",
      "type": "event"
    },
    {
      "anonymous": false,
      "inputs": [
        {
          "indexed": true,
          "internalType": "bytes32",
          "name": "policyId",
          "type": "bytes32"
        },
        {
          "indexed": true,
          "internalType": "address",
          "name": "owner",
          "type": "address"
        },
        {
          "indexed": false,
          "internalType": "uint256",
          "name": "amount",
          "type": "uint256"
        }
      ],
      "name": "ClaimApproved",
      "type": "event"
    },
    {
      "anonymous": false,
      "inputs": [
        {
          "indexed": false,
          "internalType": "uint256",
          "name": "oldPeriod",
          "type": "uint256"
        },
        {
          "indexed": false,
          "internalType": "uint256",
          "name": "newPeriod",
          "type": "uint256"
        }
      ],
      "name": "ClaimExpiryPeriodUpdated",
      "type": "event"
    },
    {
      "anonymous": false,
      "inputs": [
        {
          "indexed": true,
          "internalType": "bytes32",
          "name": "policyId",
          "type": "bytes32"
        },
        {
          "indexed": true,
          "internalType": "address",
          "name": "owner",
          "type": "address"
        },
        {
          "indexed": false,
          "internalType": "uint256",
          "name": "amount",
          "type": "uint256"
        },
        {
          "indexed": false,
          "internalType": "string",
          "name": "documentHash",
          "type": "string"
        }
      ],
      "name": "ClaimFiled",
      "type": "event"
    },
    {
      "anonymous": false,
      "inputs": [
        {
          "indexed": true,
          "internalType": "bytes32",
          "name": "policyId",
          "type": "bytes32"
        },
        {
          "indexed": true,
          "internalType": "address",
          "name": "owner",
          "type": "address"
        },
        {
          "indexed": false,
          "internalType": "uint256",
          "name": "refundAmount",
          "type": "uint256"
        }
      ],
      "name": "PolicyCancelled",
      "type": "event"
    },
    {
      "anonymous": false,
      "inputs": [
        {
          "indexed": true,
          "internalType": "bytes32",
          "name": "policyId",
          "type": "bytes32"
        },
        {
          "indexed": true,
          "internalType": "address",
          "name": "owner",
          "type": "address"
        }
      ],
      "name": "PolicyExpired",
      "type": "event"
    },
    {
      "anonymous": false,
      "inputs": [
        {
          "indexed": true,
          "internalType": "bytes32",
          "name": "policyId",
          "type": "bytes32"
        },
        {
          "indexed": true,
          "internalType": "address",
          "name": "owner",
          "type": "address"
        },
        {
          "indexed": false,
          "internalType": "uint256",
          "name": "premium",
          "type": "uint256"
        },
        {
          "indexed": false,
          "internalType": "uint256",
          "name": "sumAssured",
          "type": "uint256"
        },
        {
          "indexed": false,
          "internalType": "uint256",
          "name": "expiry",
          "type": "uint256"
        }
      ],
      "name": "PolicyPurchased",
      "type": "event"
    },
    {
      "anonymous": false,
      "inputs": [
        {
          "indexed": true,
          "internalType": "bytes32",
          "name": "policyId",
          "type": "bytes32"
        },
        {
          "indexed": true,
          "internalType": "address",
          "name": "owner",
          "type": "address"
        },
        {
          "indexed": false,
          "internalType": "uint256",
          "name": "premium",
          "type": "uint256"
        },
        {
          "indexed": false,
          "internalType": "uint256",
          "name": "newExpiry",
          "type": "uint256"
        }
      ],
      "name": "PolicyRenewed",
      "type": "event"
    },
    {
      "anonymous": false,
      "inputs": [
        {
          "indexed": true,
          "internalType": "bytes32",
          "name": "policyId",
          "type": "bytes32"
        },
        {
          "indexed": true,
          "internalType": "address",
          "name": "owner",
          "type": "address"
        },
        {
          "indexed": false,
          "internalType": "uint256",
          "name": "amount",
          "type": "uint256"
        }
      ],
      "name": "RefundIssued",
      "type": "event"
    },
    {
      "anonymous": false,
      "inputs": [
        {
          "indexed": true,
          "internalType": "bytes32",
          "name": "role",
          "type": "bytes32"
        },
        {
          "indexed": true,
          "internalType": "bytes32",
          "name": "previousAdminRole",
          "type": "bytes32"
        },
        {
          "indexed": true,
          "internalType": "bytes32",
          "name": "newAdminRole",
          "type": "bytes32"
        }
      ],
      "name": "RoleAdminChanged",
      "type": "event"
    },
    {
      "anonymous": false,
      "inputs": [
        {
          "indexed": true,
          "internalType": "bytes32",
          "name": "role",
          "type": "bytes32"
        },
        {
          "indexed": true,
          "internalType": "address",
          "name": "account",
          "type": "address"
        },
        {
          "indexed": true,
          "internalType": "address",
          "name": "sender",
          "type": "address"
        }
      ],
      "name": "RoleGranted",
      "type": "event"
    },
    {
      "anonymous": false,
      "inputs": [
        {
          "indexed": true,
          "internalType": "bytes32",
          "name": "role",
          "type": "bytes32"
        },
        {
          "indexed": true,
          "internalType": "address",
          "name": "account",
          "type": "address"
        },
        {
          "indexed": true,
          "internalType": "address",
          "name": "sender",
          "type": "address"
        }
      ],
      "name": "RoleRevoked",
      "type": "event"
    },
    {
      "anonymous": false,
      "inputs": [
        {
          "indexed": true,
          "internalType": "address",
          "name": "oldSigner",
          "type": "address"
        },
        {
          "indexed": true,
          "internalType": "address",
          "name": "newSigner",
          "type": "address"
        }
      ],
      "name": "TrustedSignerUpdated",
      "type": "event"
    },
    {
      "inputs": [],
      "name": "ADMIN_ROLE",
      "outputs": [
        {
          "internalType": "bytes32",
          "name": "",
          "type": "bytes32"
        }
      ],
      "stateMutability": "view",
      "type": "function"
    },
    {
      "inputs": [],
      "name": "DEFAULT_ADMIN_ROLE",
      "outputs": [
        {
          "internalType": "bytes32",
          "name": "",
          "type": "bytes32"
        }
      ],
      "stateMutability": "view",
      "type": "function"
    },
    {
      "inputs": [
        {
          "internalType": "bytes32",
          "name": "policyId",
          "type": "bytes32"
        },
        {
          "internalType": "uint256",
          "name": "timeToAdvance",
          "type": "uint256"
        }
      ],
      "name": "advanceTime",
      "outputs": [],
      "stateMutability": "nonpayable",
      "type": "function"
    },
    {
      "inputs": [
        {
          "internalType": "bytes32",
          "name": "policyId",
          "type": "bytes32"
        }
      ],
      "name": "approveClaim",
      "outputs": [
        {
          "internalType": "uint256",
          "name": "",
          "type": "uint256"
        }
      ],
      "stateMutability": "nonpayable",
      "type": "function"
    },
    {
      "inputs": [
        {
          "internalType": "bytes32",
          "name": "policyId",
          "type": "bytes32"
        },
        {
          "internalType": "uint256",
          "name": "refundAmount",
          "type": "uint256"
        },
        {
          "internalType": "bytes",
          "name": "signature",
          "type": "bytes"
        }
      ],
      "name": "cancelPolicy",
      "outputs": [],
      "stateMutability": "nonpayable",
      "type": "function"
    },
    {
      "inputs": [
        {
          "internalType": "bytes32",
          "name": "policyId",
          "type": "bytes32"
        },
        {
          "internalType": "uint256",
          "name": "refundAmount",
          "type": "uint256"
        }
      ],
      "name": "cancelPolicy",
      "outputs": [],
      "stateMutability": "nonpayable",
      "type": "function"
    },
    {
      "inputs": [
        {
          "internalType": "bytes32",
          "name": "policyId",
          "type": "bytes32"
        },
        {
          "internalType": "uint256",
          "name": "refundAmount",
          "type": "uint256"
        },
        {
          "internalType": "bytes",
          "name": "signature",
          "type": "bytes"
        }
      ],
      "name": "cancelPolicyWithSignature",
      "outputs": [],
      "stateMutability": "nonpayable",
      "type": "function"
    },
    {
      "inputs": [],
      "name": "claimExpiryPeriod",
      "outputs": [
        {
          "internalType": "uint256",
          "name": "",
          "type": "uint256"
        }
      ],
      "stateMutability": "view",
      "type": "function"
    },
    {
      "inputs": [
        {
          "internalType": "uint256",
          "name": "amount",
          "type": "uint256"
        }
      ],
      "name": "emergencyWithdraw",
      "outputs": [],
      "stateMutability": "nonpayable",
      "type": "function"
    },
    {
      "inputs": [
        {
          "internalType": "bytes32",
          "name": "policyId",
          "type": "bytes32"
        },
        {
          "internalType": "uint256",
          "name": "amount",
          "type": "uint256"
        },
        {
          "internalType": "string",
          "name": "documentHash",
          "type": "string"
        }
      ],
      "name": "fileClaim",
      "outputs": [],
      "stateMutability": "nonpayable",
      "type": "function"
    },
    {
      "inputs": [
        {
          "internalType": "bytes32",
          "name": "policyId",
          "type": "bytes32"
        },
        {
          "internalType": "uint256",
          "name": "amount",
          "type": "uint256"
        },
        {
          "internalType": "string",
          "name": "documentHash",
          "type": "string"
        },
        {
          "internalType": "bytes",
          "name": "signature",
          "type": "bytes"
        }
      ],
      "name": "fileClaim",
      "outputs": [],
      "stateMutability": "nonpayable",
      "type": "function"
    },
    {
      "inputs": [
        {
          "internalType": "bytes32",
          "name": "policyId",
          "type": "bytes32"
        },
        {
          "internalType": "uint256",
          "name": "amount",
          "type": "uint256"
        },
        {
          "internalType": "string",
          "name": "documentHash",
          "type": "string"
        },
        {
          "internalType": "bytes",
          "name": "signature",
          "type": "bytes"
        }
      ],
      "name": "fileClaimWithSignature",
      "outputs": [],
      "stateMutability": "nonpayable",
      "type": "function"
    },
    {
      "inputs": [
        {
          "internalType": "bytes32",
          "name": "policyId",
          "type": "bytes32"
        }
      ],
      "name": "forceExpirePolicy",
      "outputs": [],
      "stateMutability": "nonpayable",
      "type": "function"
    },
    {
      "inputs": [
        {
          "internalType": "bytes32",
          "name": "policyId",
          "type": "bytes32"
        }
      ],
      "name": "getClaim",
      "outputs": [
        {
          "components": [
            {
              "internalType": "bytes32",
              "name": "policyId",
              "type": "bytes32"
            },
            {
              "internalType": "uint256",
              "name": "amount",
              "type": "uint256"
            },
            {
              "internalType": "string",
              "name": "documentHash",
              "type": "string"
            },
            {
              "internalType": "bool",
              "name": "isPending",
              "type": "bool"
            },
            {
              "internalType": "uint256",
              "name": "createdAt",
              "type": "uint256"
            },
            {
              "internalType": "uint256",
              "name": "expiryTimestamp",
              "type": "uint256"
            }
          ],
          "internalType": "struct PolicyBase.ClaimRequest",
          "name": "",
          "type": "tuple"
        }
      ],
      "stateMutability": "view",
      "type": "function"
    },
    {
      "inputs": [
        {
          "internalType": "bytes32",
          "name": "policyId",
          "type": "bytes32"
        }
      ],
      "name": "getMockPolicyData",
      "outputs": [
        {
          "components": [
            {
              "internalType": "string",
              "name": "metadata",
              "type": "string"
            },
            {
              "internalType": "bool",
              "name": "processed",
              "type": "bool"
            }
          ],
          "internalType": "struct PolicyBaseMock.MockPolicyData",
          "name": "",
          "type": "tuple"
        }
      ],
      "stateMutability": "view",
      "type": "function"
    },
    {
      "inputs": [
        {
          "internalType": "bytes32",
          "name": "policyId",
          "type": "bytes32"
        }
      ],
      "name": "getPolicy",
      "outputs": [
        {
          "components": [
            {
              "internalType": "bytes32",
              "name": "policyId",
              "type": "bytes32"
            },
            {
              "internalType": "address",
              "name": "owner",
              "type": "address"
            },
            {
              "internalType": "uint256",
              "name": "premium",
              "type": "uint256"
            },
            {
              "internalType": "uint256",
              "name": "sumAssured",
              "type": "uint256"
            },
            {
              "internalType": "uint256",
              "name": "expiry",
              "type": "uint256"
            },
            {
              "internalType": "bool",
              "name": "isActive",
              "type": "bool"
            },
            {
              "internalType": "bool",
              "name": "isClaimed",
              "type": "bool"
            },
            {
              "internalType": "uint256",
              "name": "createdAt",
              "type": "uint256"
            }
          ],
          "internalType": "struct PolicyBase.Policy",
          "name": "",
          "type": "tuple"
        }
      ],
      "stateMutability": "view",
      "type": "function"
    },
    {
      "inputs": [
        {
          "internalType": "bytes32",
          "name": "role",
          "type": "bytes32"
        }
      ],
      "name": "getRoleAdmin",
      "outputs": [
        {
          "internalType": "bytes32",
          "name": "",
          "type": "bytes32"
        }
      ],
      "stateMutability": "view",
      "type": "function"
    },
    {
      "inputs": [
        {
          "internalType": "address",
          "name": "newAdmin",
          "type": "address"
        }
      ],
      "name": "grantAdminRole",
      "outputs": [],
      "stateMutability": "nonpayable",
      "type": "function"
    },
    {
      "inputs": [
        {
          "internalType": "bytes32",
          "name": "role",
          "type": "bytes32"
        },
        {
          "internalType": "address",
          "name": "account",
          "type": "address"
        }
      ],
      "name": "grantRole",
      "outputs": [],
      "stateMutability": "nonpayable",
      "type": "function"
    },
    {
      "inputs": [
        {
          "internalType": "bytes32",
          "name": "role",
          "type": "bytes32"
        },
        {
          "internalType": "address",
          "name": "account",
          "type": "address"
        }
      ],
      "name": "hasRole",
      "outputs": [
        {
          "internalType": "bool",
          "name": "",
          "type": "bool"
        }
      ],
      "stateMutability": "view",
      "type": "function"
    },
    {
      "inputs": [
        {
          "internalType": "bytes32",
          "name": "policyId",
          "type": "bytes32"
        }
      ],
      "name": "markExpiredPolicy",
      "outputs": [],
      "stateMutability": "nonpayable",
      "type": "function"
    },
    {
      "inputs": [
        {
          "internalType": "address",
          "name": "owner",
          "type": "address"
        },
        {
          "internalType": "string",
          "name": "metadata",
          "type": "string"
        },
        {
          "internalType": "uint256",
          "name": "premium",
          "type": "uint256"
        },
        {
          "internalType": "uint256",
          "name": "sumAssured",
          "type": "uint256"
        },
        {
          "internalType": "uint256",
          "name": "duration",
          "type": "uint256"
        }
      ],
      "name": "purchasePolicy",
      "outputs": [],
      "stateMutability": "payable",
      "type": "function"
    },
    {
      "inputs": [
        {
          "internalType": "address",
          "name": "owner",
          "type": "address"
        },
        {
          "internalType": "bytes",
          "name": "policyData",
          "type": "bytes"
        },
        {
          "internalType": "uint256",
          "name": "premium",
          "type": "uint256"
        },
        {
          "internalType": "uint256",
          "name": "sumAssured",
          "type": "uint256"
        },
        {
          "internalType": "uint256",
          "name": "duration",
          "type": "uint256"
        },
        {
          "internalType": "bytes",
          "name": "signature",
          "type": "bytes"
        }
      ],
      "name": "purchasePolicy",
      "outputs": [],
      "stateMutability": "payable",
      "type": "function"
    },
    {
      "inputs": [
        {
          "internalType": "address",
          "name": "owner",
          "type": "address"
        },
        {
          "internalType": "string",
          "name": "metadata",
          "type": "string"
        },
        {
          "internalType": "uint256",
          "name": "premium",
          "type": "uint256"
        },
        {
          "internalType": "uint256",
          "name": "sumAssured",
          "type": "uint256"
        },
        {
          "internalType": "uint256",
          "name": "duration",
          "type": "uint256"
        },
        {
          "internalType": "bytes",
          "name": "signature",
          "type": "bytes"
        }
      ],
      "name": "purchasePolicyWithSignature",
      "outputs": [],
      "stateMutability": "payable",
      "type": "function"
    },
    {
      "inputs": [
        {
          "internalType": "bytes32",
          "name": "policyId",
          "type": "bytes32"
        },
        {
          "internalType": "uint256",
          "name": "premium",
          "type": "uint256"
        },
        {
          "internalType": "uint256",
          "name": "duration",
          "type": "uint256"
        }
      ],
      "name": "renewPolicy",
      "outputs": [],
      "stateMutability": "payable",
      "type": "function"
    },
    {
      "inputs": [
        {
          "internalType": "bytes32",
          "name": "policyId",
          "type": "bytes32"
        },
        {
          "internalType": "uint256",
          "name": "premium",
          "type": "uint256"
        },
        {
          "internalType": "uint256",
          "name": "duration",
          "type": "uint256"
        },
        {
          "internalType": "bytes",
          "name": "signature",
          "type": "bytes"
        }
      ],
      "name": "renewPolicy",
      "outputs": [],
      "stateMutability": "payable",
      "type": "function"
    },
    {
      "inputs": [
        {
          "internalType": "bytes32",
          "name": "policyId",
          "type": "bytes32"
        },
        {
          "internalType": "uint256",
          "name": "premium",
          "type": "uint256"
        },
        {
          "internalType": "uint256",
          "name": "duration",
          "type": "uint256"
        },
        {
          "internalType": "bytes",
          "name": "signature",
          "type": "bytes"
        }
      ],
      "name": "renewPolicyWithSignature",
      "outputs": [],
      "stateMutability": "payable",
      "type": "function"
    },
    {
      "inputs": [
        {
          "internalType": "bytes32",
          "name": "role",
          "type": "bytes32"
        },
        {
          "internalType": "address",
          "name": "callerConfirmation",
          "type": "address"
        }
      ],
      "name": "renounceRole",
      "outputs": [],
      "stateMutability": "nonpayable",
      "type": "function"
    },
    {
      "inputs": [
        {
          "internalType": "address",
          "name": "admin",
          "type": "address"
        }
      ],
      "name": "revokeAdminRole",
      "outputs": [],
      "stateMutability": "nonpayable",
      "type": "function"
    },
    {
      "inputs": [
        {
          "internalType": "bytes32",
          "name": "role",
          "type": "bytes32"
        },
        {
          "internalType": "address",
          "name": "account",
          "type": "address"
        }
      ],
      "name": "revokeRole",
      "outputs": [],
      "stateMutability": "nonpayable",
      "type": "function"
    },
    {
      "inputs": [
        {
          "internalType": "uint256",
          "name": "periodInDays",
          "type": "uint256"
        }
      ],
      "name": "setClaimExpiryPeriod",
      "outputs": [],
      "stateMutability": "nonpayable",
      "type": "function"
    },
    {
      "inputs": [
        {
          "internalType": "address",
          "name": "newSigner",
          "type": "address"
        }
      ],
      "name": "setTrustedSigner",
      "outputs": [],
      "stateMutability": "nonpayable",
      "type": "function"
    },
    {
      "inputs": [
        {
          "internalType": "bytes4",
          "name": "interfaceId",
          "type": "bytes4"
        }
      ],
      "name": "supportsInterface",
      "outputs": [
        {
          "internalType": "bool",
          "name": "",
          "type": "bool"
        }
      ],
      "stateMutability": "view",
      "type": "function"
    },
    {
      "inputs": [],
      "name": "trustedSigner",
      "outputs": [
        {
          "internalType": "address",
          "name": "",
          "type": "address"
        }
      ],
      "stateMutability": "view",
      "type": "function"
    },
    {
      "stateMutability": "payable",
      "type": "receive"
    }
  ],
  "bytecode": "0x608060405262093a806003553480156200001857600080fd5b5060405162003f9538038062003f958339810160408190526200003b91620001ac565b806001600160a01b038116620000975760405162461bcd60e51b815260206004820152601660248201527f496e76616c6964207369676e6572206164647265737300000000000000000000604482015260640160405180910390fd5b620000a4600033620000fd565b50620000d17fa49807205ce4d355092ef5a8a18f56e8913cf4a201fbe287825b095693c2177533620000fd565b50600280546001600160a01b0319166001600160a01b03929092169190911790555060018055620001de565b6000828152602081815260408083206001600160a01b038516845290915281205460ff16620001a2576000838152602081815260408083206001600160a01b03861684529091529020805460ff19166001179055620001593390565b6001600160a01b0316826001600160a01b0316847f2f8788117e7eff1d82e926ec794901d17c78024a50270940304540a733656f0d60405160405180910390a4506001620001a6565b5060005b92915050565b600060208284031215620001bf57600080fd5b81516001600160a01b0381168114620001d757600080fd5b9392505050565b613da780620001ee6000396000f3fe6080604052600436106101fd5760003560e01c80635f64e78a1161010d5780639a19c7b0116100a0578063b0aa49271161006f578063b0aa4927146106b9578063c634b78e146106cc578063c9100bcb146106ec578063d547741f14610719578063f74d54801461073957600080fd5b80639a19c7b014610522578063a217fddf14610542578063a3f685f914610557578063b0529da21461069957600080fd5b80636efcf8f0116100dc5780636efcf8f0146104ad57806375b238fc146104cd57806377a5ad1d146104ef57806391d148541461050257600080fd5b80635f64e78a146104205780636c5d3108146104405780636def90b7146104605780636e9747ca1461048057600080fd5b806336568abe116101905780634a6943341161015f5780634a6943341461039a5780634e494b7c146103ad5780635312ea8e146103c05780635415e8fd146103e057806356a1c7011461040057600080fd5b806336568abe146103275780633719f096146103475780634059442d146103675780634335a03a1461038757600080fd5b806327b08b65116101cc57806327b08b65146102b15780632f2ff15d146102d15780632fe1814c146102f157806330d95b531461031157600080fd5b806301ffc9a7146102095780630d409fc51461023e57806319c0d1fa14610253578063248a9ca31461027357600080fd5b3661020457005b600080fd5b34801561021557600080fd5b506102296102243660046132aa565b610771565b60405190151581526020015b60405180910390f35b61025161024c3660046132db565b6107a8565b005b34801561025f57600080fd5b5061025161026e366004613307565b610905565b34801561027f57600080fd5b506102a361028e366004613307565b60009081526020819052604090206001015490565b604051908152602001610235565b3480156102bd57600080fd5b506102516102cc3660046133e5565b6109b4565b3480156102dd57600080fd5b506102516102ec366004613451565b610b9b565b3480156102fd57600080fd5b5061025161030c3660046133e5565b610bc6565b34801561031d57600080fd5b506102a360035481565b34801561033357600080fd5b50610251610342366004613451565b610e2e565b34801561035357600080fd5b506102a3610362366004613307565b610e66565b34801561037357600080fd5b5061025161038236600461347d565b611006565b6102516103953660046134f4565b61127d565b6102516103a836600461355d565b6114ea565b6102516103bb3660046135ed565b61189f565b3480156103cc57600080fd5b506102516103db366004613307565b611a6a565b3480156103ec57600080fd5b506102516103fb36600461347d565b611bc3565b34801561040c57600080fd5b5061025161041b36600461363b565b611eb3565b34801561042c57600080fd5b5061025161043b366004613656565b611f60565b34801561044c57600080fd5b5061025161045b3660046133e5565b611fe2565b34801561046c57600080fd5b5061025161047b366004613307565b6122c2565b34801561048c57600080fd5b506104a061049b366004613307565b612369565b60405161023591906136c8565b3480156104b957600080fd5b506102516104c8366004613656565b61243e565b3480156104d957600080fd5b506102a3600080516020613d5283398151915281565b6102516104fd3660046135ed565b612624565b34801561050e57600080fd5b5061022961051d366004613451565b612866565b34801561052e57600080fd5b5061025161053d36600461363b565b61288f565b34801561054e57600080fd5b506102a3600081565b34801561056357600080fd5b50610630610572366004613307565b6040805161010081018252600080825260208201819052918101829052606081018290526080810182905260a0810182905260c0810182905260e081019190915250600090815260046020818152604092839020835161010080820186528254825260018301546001600160a01b03169382019390935260028201549481019490945260038101546060850152918201546080840152600582015460ff808216151560a086015291900416151560c08301526006015460e082015290565b6040516102359190815181526020808301516001600160a01b03169082015260408083015190820152606080830151908201526080808301519082015260a08083015115159082015260c08083015115159082015260e091820151918101919091526101000190565b3480156106a557600080fd5b506102516106b4366004613307565b61294d565b6102516106c736600461355d565b612a18565b3480156106d857600080fd5b506102516106e736600461363b565b612ce2565b3480156106f857600080fd5b5061070c610707366004613307565b612d8c565b60405161023591906136fc565b34801561072557600080fd5b50610251610734366004613451565b612eb8565b34801561074557600080fd5b50600254610759906001600160a01b031681565b6040516001600160a01b039091168152602001610235565b60006001600160e01b03198216637965db0b60e01b14806107a257506301ffc9a760e01b6001600160e01b03198316145b92915050565b6002600154036107d35760405162461bcd60e51b81526004016107ca90613758565b60405180910390fd5b6002600155600083815260046020526040902060050154839060ff1661080b5760405162461bcd60e51b81526004016107ca9061378f565b600084815260046020526040902060018101546001600160a01b031633146108455760405162461bcd60e51b81526004016107ca906137ba565b8334146108645760405162461bcd60e51b81526004016107ca906137e8565b6005810154610100900460ff161561088e5760405162461bcd60e51b81526004016107ca9061381f565b6002810184905560048101546108a5908490613865565b6004820181905560018201546040805187815260208101939093526001600160a01b039091169187917f16fe3aa381de20cb3e0fb3f9ae8d20168747df7e26dbc2b381ad5025ee5ca08691015b60405180910390a3505060018055505050565b600061091081612edd565b600082116109605760405162461bcd60e51b815260206004820152601760248201527f506572696f64206d75737420626520706f73697469766500000000000000000060448201526064016107ca565b6003546109708362015180613878565b60038190556040805183815260208101929092527fb792057619e1a3b0e2768725ef4cb4fc3cbf647c992d306e6876522e3fc0cdbc910160405180910390a1505050565b6002600154036109d65760405162461bcd60e51b81526004016107ca90613758565b6002600155600083815260046020526040902060050154839060ff16610a0e5760405162461bcd60e51b81526004016107ca9061378f565b600084815260046020526040902060018101546001600160a01b03163314610a485760405162461bcd60e51b81526004016107ca906137ba565b8060030154841115610a6c5760405162461bcd60e51b81526004016107ca9061388f565b6005810154610100900460ff1615610a965760405162461bcd60e51b81526004016107ca9061381f565b80600401544210610ab95760405162461bcd60e51b81526004016107ca906138c6565b6040518060c0016040528086815260200185815260200184815260200160011515815260200142815260200160035442610af39190613865565b905260008681526005602090815260409182902083518155908301516001820155908201516002820190610b279082613976565b50606082015160038201805460ff19169115159190911790556080820151600482015560a09091015160059091015560018101546040516001600160a01b039091169086907fc96b2a45efdafddb0d702bd3f580b163b3de51eaf6181152b2625544b7d0e43e906108f29088908890613a36565b600082815260208190526040902060010154610bb681612edd565b610bc08383612eea565b50505050565b600080516020613d52833981519152610bde81612edd565b600084815260046020526040902060050154849060ff16610c115760405162461bcd60e51b81526004016107ca9061378f565b600260015403610c335760405162461bcd60e51b81526004016107ca90613758565b600260015560008581526004602052604090206005810154610100900460ff1615610c705760405162461bcd60e51b81526004016107ca9061381f565b80600401544210610c935760405162461bcd60e51b81526004016107ca906138c6565b6040805160208101889052908101869052466060820152600090608001604051602081830303815290604052805190602001209050610cd28186612f7c565b610cee5760405162461bcd60e51b81526004016107ca90613a57565b84516020808701919091206000908152600690915260408082208054600160ff199182168117909255600586018054909116905584015490516001600160a01b039091169088908381818185875af1925050503d8060008114610d6d576040519150601f19603f3d011682016040523d82523d6000602084013e610d72565b606091505b5050905080610d935760405162461bcd60e51b81526004016107ca90613a82565b60018301546040518881526001600160a01b039091169089907fae2eb9a5ff7e26865940377aafb8a569997727d3bc48028ed88199eed260087f9060200160405180910390a360018301546040518881526001600160a01b039091169089907ff8590cd6b8c44be7a2bc57131f10e203ec5f7d7f2f761e1508a8cc964ecb9eb7906020015b60405180910390a3505060018055505050505050565b6001600160a01b0381163314610e575760405163334bd91960e11b815260040160405180910390fd5b610e618282613007565b505050565b6000600080516020613d52833981519152610e8081612edd565b600083815260046020526040902060050154839060ff16610eb35760405162461bcd60e51b81526004016107ca9061378f565b600260015403610ed55760405162461bcd60e51b81526004016107ca90613758565b600260015560008481526005602090815260408083206004909252909120600382015460ff16610f3a5760405162461bcd60e51b815260206004820152601060248201526f4e6f2070656e64696e6720636c61696d60801b60448201526064016107ca565b8160050154421115610f865760405162461bcd60e51b815260206004820152601560248201527410db185a5b481c995c5d595cdd08195e1c1a5c9959605a1b60448201526064016107ca565b60038201805460ff1916905560058101805461ffff1916610100179055600181810154908301546040516001600160a01b039092169188917f636494174e4a0f872de31b104ec14fb50edb1bdc4b1db9f006eaa68a61610f9c91610fec91815260200190565b60405180910390a350600101549250505060018055919050565b6002600154036110285760405162461bcd60e51b81526004016107ca90613758565b6002600155600084815260046020526040902060050154849060ff166110605760405162461bcd60e51b81526004016107ca9061378f565b600085815260046020526040902060018101546001600160a01b0316331461109a5760405162461bcd60e51b81526004016107ca906137ba565b80600301548511156110be5760405162461bcd60e51b81526004016107ca9061388f565b6005810154610100900460ff16156110e85760405162461bcd60e51b81526004016107ca9061381f565b8060040154421061110b5760405162461bcd60e51b81526004016107ca906138c6565b6000868686466040516020016111249493929190613ab2565b6040516020818303038152906040528051906020012090506111468185612f7c565b6111625760405162461bcd60e51b81526004016107ca90613a57565b8351602080860191909120600090815260068252604090819020805460ff19166001908117909155815160c0810183528a81529283018990529082018790526060820152426080820181905260035460a08301916111c09190613865565b9052600088815260056020908152604091829020835181559083015160018201559082015160028201906111f49082613976565b50606082015160038201805460ff19169115159190911790556080820151600482015560a09091015160059091015560018201546040516001600160a01b039091169088907fc96b2a45efdafddb0d702bd3f580b163b3de51eaf6181152b2625544b7d0e43e90611268908a908a90613a36565b60405180910390a35050600180555050505050565b6001600160a01b0385166112a35760405162461bcd60e51b81526004016107ca90613ae6565b600083116112c35760405162461bcd60e51b81526004016107ca90613b15565b600082116112e35760405162461bcd60e51b81526004016107ca90613b4c565b600081116113035760405162461bcd60e51b81526004016107ca90613b83565b8234146113225760405162461bcd60e51b81526004016107ca906137e8565b600061132e8642613072565b60008181526004602052604090206005015490915060ff16156113635760405162461bcd60e51b81526004016107ca90613bba565b604051806101000160405280828152602001876001600160a01b03168152602001858152602001848152602001834261139c9190613865565b81526001602080830182905260006040808501829052426060958601528682526004808452818320875181558785015181870180546001600160a01b039092166001600160a01b031990921691909117905587830151600282015595870151600387015560808701519086015560a086015160058601805460c089015115156101000261ff00199315159390931661ffff199091161791909117905560e090950151600690940193909355835180850185528981528082019290925284835260079052919020815181906114709082613976565b50602091909101516001909101805460ff19169115159190911790556001600160a01b038616817f105d821f4999dd4d79a889f0a0b1a1f6a5366615d06b4b7aef9e0a42a1de8cff86866114c48742613865565b6040805193845260208401929092529082015260600160405180910390a3505050505050565b60026001540361150c5760405162461bcd60e51b81526004016107ca90613758565b60026001556001600160a01b0386166115375760405162461bcd60e51b81526004016107ca90613ae6565b600084116115575760405162461bcd60e51b81526004016107ca90613b15565b600083116115775760405162461bcd60e51b81526004016107ca90613b4c565b600082116115975760405162461bcd60e51b81526004016107ca90613b83565b8334146115b65760405162461bcd60e51b81526004016107ca906137e8565b6000856040516020016115c99190613be9565b604051602081830303815290604052905060008782878787466040516020016115f796959493929190613bfc565b60408051601f1981840301815291815281516020928301208551868401206000908152600690935291205490915060ff16156116455760405162461bcd60e51b81526004016107ca90613c4d565b6000816040516020016116589190613c7d565b604051602081830303815290604052805190602001209050600061167c82866130b9565b6002549091506001600160a01b038083169116146116ac5760405162461bcd60e51b81526004016107ca90613a57565b84516020808701919091206000908152600690915260408120805460ff191660011790556116da8b42613072565b60008181526004602052604090206005015490915060ff161561170f5760405162461bcd60e51b81526004016107ca90613bba565b6040518061010001604052808281526020018c6001600160a01b031681526020018a815260200189815260200188426117489190613865565b81526001602080830182905260006040808501829052426060958601528682526004808452818320875181558785015181870180546001600160a01b039092166001600160a01b031990921691909117905587830151600282015595870151600387015560808701519086015560a086015160058601805460c089015115156101000261ff00199315159390931661ffff199091161791909117905560e090950151600690940193909355835180850185528e815280820192909252848352600790529190208151819061181c9082613976565b50602091909101516001909101805460ff19169115159190911790556001600160a01b038b16817f105d821f4999dd4d79a889f0a0b1a1f6a5366615d06b4b7aef9e0a42a1de8cff8b8b6118708c42613865565b6040805193845260208401929092529082015260600160405180910390a3505060018055505050505050505050565b6002600154036118c15760405162461bcd60e51b81526004016107ca90613758565b6002600155600084815260046020526040902060050154849060ff166118f95760405162461bcd60e51b81526004016107ca9061378f565b600085815260046020526040902060018101546001600160a01b031633146119335760405162461bcd60e51b81526004016107ca906137ba565b8434146119525760405162461bcd60e51b81526004016107ca906137e8565b6005810154610100900460ff161561197c5760405162461bcd60e51b81526004016107ca9061381f565b60408051602081018890529081018690526060810185905246608082015260009060a0016040516020818303038152906040528051906020012090506119c28185612f7c565b6119de5760405162461bcd60e51b81526004016107ca90613a57565b83516020808601919091206000908152600690915260409020805460ff19166001179055600282018690556004820154611a19908690613865565b6004830181905560018301546040805189815260208101939093526001600160a01b039091169189917f16fe3aa381de20cb3e0fb3f9ae8d20168747df7e26dbc2b381ad5025ee5ca0869101611268565b6000611a7581612edd565b600260015403611a975760405162461bcd60e51b81526004016107ca90613758565b600260015581611ae95760405162461bcd60e51b815260206004820152601760248201527f416d6f756e74206d75737420626520706f73697469766500000000000000000060448201526064016107ca565b47821115611b305760405162461bcd60e51b8152602060048201526014602482015273496e73756666696369656e742062616c616e636560601b60448201526064016107ca565b604051600090339084908381818185875af1925050503d8060008114611b72576040519150601f19603f3d011682016040523d82523d6000602084013e611b77565b606091505b5050905080611bba5760405162461bcd60e51b815260206004820152600f60248201526e15da5d1a191c985dc819985a5b1959608a1b60448201526064016107ca565b50506001805550565b600260015403611be55760405162461bcd60e51b81526004016107ca90613758565b6002600155600084815260046020526040902060050154849060ff16611c1d5760405162461bcd60e51b81526004016107ca9061378f565b600085815260046020526040902060018101546001600160a01b03163314611c575760405162461bcd60e51b81526004016107ca906137ba565b8060030154851115611c7b5760405162461bcd60e51b81526004016107ca9061388f565b6005810154610100900460ff1615611ca55760405162461bcd60e51b81526004016107ca9061381f565b80600401544210611cc85760405162461bcd60e51b81526004016107ca906138c6565b600086868646604051602001611ce19493929190613ab2565b60408051601f1981840301815291815281516020928301208651878401206000908152600690935291205490915060ff1615611d2f5760405162461bcd60e51b81526004016107ca90613c4d565b600081604051602001611d429190613c7d565b6040516020818303038152906040528051906020012090506000611d6682876130b9565b6002549091506001600160a01b03808316911614611d965760405162461bcd60e51b81526004016107ca90613a57565b8551602080880191909120600090815260068252604090819020805460ff19166001908117909155815160c0810183528c81529283018b90529082018990526060820152426080820181905260035460a0830191611df49190613865565b905260008a81526005602090815260409182902083518155908301516001820155908201516002820190611e289082613976565b50606082015160038201805460ff19169115159190911790556080820151600482015560a09091015160059091015560018401546040516001600160a01b03909116908a907fc96b2a45efdafddb0d702bd3f580b163b3de51eaf6181152b2625544b7d0e43e90611e9c908c908c90613a36565b60405180910390a350506001805550505050505050565b6000611ebe81612edd565b6001600160a01b038216611f0d5760405162461bcd60e51b8152602060048201526016602482015275496e76616c6964207369676e6572206164647265737360501b60448201526064016107ca565b600280546001600160a01b038481166001600160a01b0319831681179093556040519116919082907f4a297cf5d32586f80d2b0708a39d2da1f46e6ae7722171e1c51dfd685b5b8aa890600090a3505050565b600080516020613d52833981519152611f7881612edd565b6000838152600460205260409020600581015460ff16611faa5760405162461bcd60e51b81526004016107ca9061378f565b8281600401541115611fd55782816004016000828254611fca9190613cae565b90915550610bc09050565b6000600482015550505050565b600080516020613d52833981519152611ffa81612edd565b600084815260046020526040902060050154849060ff1661202d5760405162461bcd60e51b81526004016107ca9061378f565b60026001540361204f5760405162461bcd60e51b81526004016107ca90613758565b600260015560008581526004602052604090206005810154610100900460ff161561208c5760405162461bcd60e51b81526004016107ca9061381f565b806004015442106120af5760405162461bcd60e51b81526004016107ca906138c6565b604080516020810188905290810186905246606082015260009060800160408051601f1981840301815291815281516020928301208751888401206000908152600690935291205490915060ff161561211a5760405162461bcd60e51b81526004016107ca90613c4d565b60008160405160200161212d9190613c7d565b604051602081830303815290604052805190602001209050600061215182886130b9565b6002549091506001600160a01b038083169116146121815760405162461bcd60e51b81526004016107ca90613a57565b86516020808901919091206000908152600690915260408082208054600160ff199182168117909255600588018054909116905586015490516001600160a01b03909116908a908381818185875af1925050503d8060008114612200576040519150601f19603f3d011682016040523d82523d6000602084013e612205565b606091505b50509050806122265760405162461bcd60e51b81526004016107ca90613a82565b60018501546040518a81526001600160a01b03909116908b907fae2eb9a5ff7e26865940377aafb8a569997727d3bc48028ed88199eed260087f9060200160405180910390a360018501546040518a81526001600160a01b03909116908b907ff8590cd6b8c44be7a2bc57131f10e203ec5f7d7f2f761e1508a8cc964ecb9eb79060200160405180910390a35050600180555050505050505050565b600080516020613d528339815191526122da81612edd565b6000828152600460205260409020600581015460ff1661230c5760405162461bcd60e51b81526004016107ca9061378f565b60058101805460ff19169055612323600142613cae565b600482015560018101546040516001600160a01b039091169084907f8629ba1a018e1397c942e8dcf53afb2cfd0f250c02bc785e041010dfe6bbe00290600090a3505050565b6040805180820190915260608152600060208201526000828152600760205260409081902081518083019092528054829082906123a5906138ee565b80601f01602080910402602001604051908101604052809291908181526020018280546123d1906138ee565b801561241e5780601f106123f35761010080835404028352916020019161241e565b820191906000526020600020905b81548152906001019060200180831161240157829003601f168201915b50505091835250506001919091015460ff16151560209091015292915050565b600080516020613d5283398151915261245681612edd565b600083815260046020526040902060050154839060ff166124895760405162461bcd60e51b81526004016107ca9061378f565b6002600154036124ab5760405162461bcd60e51b81526004016107ca90613758565b600260015560008481526004602052604090206005810154610100900460ff16156124e85760405162461bcd60e51b81526004016107ca9061381f565b8060040154421061250b5760405162461bcd60e51b81526004016107ca906138c6565b60058101805460ff1916905560018101546040516000916001600160a01b03169086908381818185875af1925050503d8060008114612566576040519150601f19603f3d011682016040523d82523d6000602084013e61256b565b606091505b505090508061258c5760405162461bcd60e51b81526004016107ca90613a82565b60018201546040518681526001600160a01b039091169087907fae2eb9a5ff7e26865940377aafb8a569997727d3bc48028ed88199eed260087f9060200160405180910390a360018201546040518681526001600160a01b039091169087907ff8590cd6b8c44be7a2bc57131f10e203ec5f7d7f2f761e1508a8cc964ecb9eb79060200160405180910390a350506001805550505050565b6002600154036126465760405162461bcd60e51b81526004016107ca90613758565b6002600155600084815260046020526040902060050154849060ff1661267e5760405162461bcd60e51b81526004016107ca9061378f565b600085815260046020526040902060018101546001600160a01b031633146126b85760405162461bcd60e51b81526004016107ca906137ba565b8434146126d75760405162461bcd60e51b81526004016107ca906137e8565b6005810154610100900460ff16156127015760405162461bcd60e51b81526004016107ca9061381f565b60408051602081018890529081018690526060810185905246608082015260009060a00160408051601f1981840301815291815281516020928301208651878401206000908152600690935291205490915060ff16156127735760405162461bcd60e51b81526004016107ca90613c4d565b6000816040516020016127869190613c7d565b60405160208183030381529060405280519060200120905060006127aa82876130b9565b6002549091506001600160a01b038083169116146127da5760405162461bcd60e51b81526004016107ca90613a57565b85516020808801919091206000908152600690915260409020805460ff19166001179055600284018890556004840154612815908890613865565b600485018190556001850154604080518b815260208101939093526001600160a01b03909116918b917f16fe3aa381de20cb3e0fb3f9ae8d20168747df7e26dbc2b381ad5025ee5ca0869101611e9c565b6000918252602082815260408084206001600160a01b0393909316845291905290205460ff1690565b600061289a81612edd565b6001600160a01b0382166128e85760405162461bcd60e51b8152602060048201526015602482015274496e76616c69642061646d696e206164647265737360581b60448201526064016107ca565b336001600160a01b038316036129355760405162461bcd60e51b815260206004820152601260248201527121b0b73737ba103932bb37b5b29039b2b63360711b60448201526064016107ca565b610e61600080516020613d5283398151915283613007565b6000818152600460205260409020600581015460ff1661297f5760405162461bcd60e51b81526004016107ca9061378f565b80600401544210156129cc5760405162461bcd60e51b8152602060048201526016602482015275141bdb1a58de481b9bdd08195e1c1a5c9959081e595d60521b60448201526064016107ca565b60058101805460ff1916905560018101546040516001600160a01b039091169083907f8629ba1a018e1397c942e8dcf53afb2cfd0f250c02bc785e041010dfe6bbe00290600090a35050565b600260015403612a3a5760405162461bcd60e51b81526004016107ca90613758565b60026001556001600160a01b038616612a655760405162461bcd60e51b81526004016107ca90613ae6565b60008411612a855760405162461bcd60e51b81526004016107ca90613b15565b60008311612aa55760405162461bcd60e51b81526004016107ca90613b4c565b60008211612ac55760405162461bcd60e51b81526004016107ca90613b83565b833414612ae45760405162461bcd60e51b81526004016107ca906137e8565b6000868686868646604051602001612b0196959493929190613bfc565b604051602081830303815290604052805190602001209050612b238183612f7c565b612b3f5760405162461bcd60e51b81526004016107ca90613a57565b81516020808401919091206000908152600690915260408120805460ff19166001179055612b6d8842613072565b60008181526004602052604090206005015490915060ff1615612ba25760405162461bcd60e51b81526004016107ca90613bba565b604051806101000160405280828152602001896001600160a01b031681526020018781526020018681526020018542612bdb9190613865565b8152600160208083018290526000604080850182905242606095860152868252600480845291819020865181559286015193830180546001600160a01b039095166001600160a01b03199095169490941790935591840151600282015591830151600383015560808301519082015560a082015160058201805460c085015115156101000261ff00199315159390931661ffff199091161791909117905560e090910151600690910155612c8f81886131fe565b6001600160a01b038816817f105d821f4999dd4d79a889f0a0b1a1f6a5366615d06b4b7aef9e0a42a1de8cff8888612cc78942613865565b60408051938452602084019290925290820152606001610e18565b6000612ced81612edd565b6001600160a01b038216612d3b5760405162461bcd60e51b8152602060048201526015602482015274496e76616c69642061646d696e206164647265737360581b60448201526064016107ca565b612d53600080516020613d5283398151915283612eea565b506040516001600160a01b038316907f1c4e23de8d72c94b22992bd4d7b6786b215ba876af214ff63e6a0ca38fc97af490600090a25050565b612dca6040518060c0016040528060008019168152602001600081526020016060815260200160001515815260200160008152602001600081525090565b600560008381526020019081526020016000206040518060c00160405290816000820154815260200160018201548152602001600282018054612e0c906138ee565b80601f0160208091040260200160405190810160405280929190818152602001828054612e38906138ee565b8015612e855780601f10612e5a57610100808354040283529160200191612e85565b820191906000526020600020905b815481529060010190602001808311612e6857829003601f168201915b5050509183525050600382015460ff16151560208201526004820154604082015260059091015460609091015292915050565b600082815260208190526040902060010154612ed381612edd565b610bc08383613007565b612ee7813361326d565b50565b6000612ef68383612866565b612f74576000838152602081815260408083206001600160a01b03861684529091529020805460ff19166001179055612f2c3390565b6001600160a01b0316826001600160a01b0316847f2f8788117e7eff1d82e926ec794901d17c78024a50270940304540a733656f0d60405160405180910390a45060016107a2565b5060006107a2565b805160208083019190912060009081526006909152604081205460ff1615612fb65760405162461bcd60e51b81526004016107ca90613c4d565b600083604051602001612fc99190613c7d565b6040516020818303038152906040528051906020012090506000612fed82856130b9565b6002546001600160a01b0390811691161495945050505050565b60006130138383612866565b15612f74576000838152602081815260408083206001600160a01b0386168085529252808320805460ff1916905551339286917ff6391f5c32d9c69d2a47ea670b442974b53935d1edc7fd64eb21e047a839171b9190a45060016107a2565b6040516bffffffffffffffffffffffff19606084901b1660208201526034810182905260009060540160405160208183030381529060405280519060200120905092915050565b6000815160411461310c5760405162461bcd60e51b815260206004820152601860248201527f496e76616c6964207369676e6174757265206c656e677468000000000000000060448201526064016107ca565b60208201516040830151606084015160001a601b81101561313557613132601b82613cc1565b90505b8060ff16601b148061314a57508060ff16601c145b6131965760405162461bcd60e51b815260206004820152601b60248201527f496e76616c6964207369676e6174757265202776272076616c7565000000000060448201526064016107ca565b60408051600081526020810180835288905260ff831691810191909152606081018490526080810183905260019060a0016020604051602081039080840390855afa1580156131e9573d6000803e3d6000fd5b5050604051601f190151979650505050505050565b6000818060200190518101906132149190613cda565b6040805180820182528281526001602080830191909152600087815260079091529190912081519293509091819061324c9082613976565b50602091909101516001909101805460ff1916911515919091179055505050565b6132778282612866565b6132a65760405163e2517d3f60e01b81526001600160a01b0382166004820152602481018390526044016107ca565b5050565b6000602082840312156132bc57600080fd5b81356001600160e01b0319811681146132d457600080fd5b9392505050565b6000806000606084860312156132f057600080fd5b505081359360208301359350604090920135919050565b60006020828403121561331957600080fd5b5035919050565b634e487b7160e01b600052604160045260246000fd5b604051601f8201601f1916810167ffffffffffffffff8111828210171561335f5761335f613320565b604052919050565b600067ffffffffffffffff82111561338157613381613320565b50601f01601f191660200190565b600082601f8301126133a057600080fd5b81356133b36133ae82613367565b613336565b8181528460208386010111156133c857600080fd5b816020850160208301376000918101602001919091529392505050565b6000806000606084860312156133fa57600080fd5b8335925060208401359150604084013567ffffffffffffffff81111561341f57600080fd5b61342b8682870161338f565b9150509250925092565b80356001600160a01b038116811461344c57600080fd5b919050565b6000806040838503121561346457600080fd5b8235915061347460208401613435565b90509250929050565b6000806000806080858703121561349357600080fd5b8435935060208501359250604085013567ffffffffffffffff808211156134b957600080fd5b6134c58883890161338f565b935060608701359150808211156134db57600080fd5b506134e88782880161338f565b91505092959194509250565b600080600080600060a0868803121561350c57600080fd5b61351586613435565b9450602086013567ffffffffffffffff81111561353157600080fd5b61353d8882890161338f565b959895975050505060408401359360608101359360809091013592509050565b60008060008060008060c0878903121561357657600080fd5b61357f87613435565b9550602087013567ffffffffffffffff8082111561359c57600080fd5b6135a88a838b0161338f565b965060408901359550606089013594506080890135935060a08901359150808211156135d357600080fd5b506135e089828a0161338f565b9150509295509295509295565b6000806000806080858703121561360357600080fd5b843593506020850135925060408501359150606085013567ffffffffffffffff81111561362f57600080fd5b6134e88782880161338f565b60006020828403121561364d57600080fd5b6132d482613435565b6000806040838503121561366957600080fd5b50508035926020909101359150565b60005b8381101561369357818101518382015260200161367b565b50506000910152565b600081518084526136b4816020860160208601613678565b601f01601f19169290920160200192915050565b6020815260008251604060208401526136e4606084018261369c565b90506020840151151560408401528091505092915050565b6020815281516020820152602082015160408201526000604083015160c0606084015261372c60e084018261369c565b9050606084015115156080840152608084015160a084015260a084015160c08401528091505092915050565b6020808252601f908201527f5265656e7472616e637947756172643a207265656e7472616e742063616c6c00604082015260600190565b602080825260119082015270506f6c696379206e6f742061637469766560781b604082015260600190565b6020808252601490820152732737ba103a3432903837b634b1bc9037bbb732b960611b604082015260600190565b60208082526018908201527f496e636f7272656374207072656d69756d20616d6f756e740000000000000000604082015260600190565b602080825260169082015275141bdb1a58de48185b1c9958591e4818db185a5b595960521b604082015260600190565b634e487b7160e01b600052601160045260246000fd5b808201808211156107a2576107a261384f565b80820281158282048414176107a2576107a261384f565b60208082526019908201527f436c61696d20657863656564732073756d206173737572656400000000000000604082015260600190565b6020808252600e908201526d141bdb1a58de48195e1c1a5c995960921b604082015260600190565b600181811c9082168061390257607f821691505b60208210810361392257634e487b7160e01b600052602260045260246000fd5b50919050565b601f821115610e6157600081815260208120601f850160051c8101602086101561394f5750805b601f850160051c820191505b8181101561396e5782815560010161395b565b505050505050565b815167ffffffffffffffff81111561399057613990613320565b6139a48161399e84546138ee565b84613928565b602080601f8311600181146139d957600084156139c15750858301515b600019600386901b1c1916600185901b17855561396e565b600085815260208120601f198616915b82811015613a08578886015182559484019460019091019084016139e9565b5085821015613a265787850151600019600388901b60f8161c191681555b5050505050600190811b01905550565b828152604060208201526000613a4f604083018461369c565b949350505050565b602080825260119082015270496e76616c6964207369676e617475726560781b604082015260600190565b6020808252601690820152751499599d5b99081d1c985b9cd9995c8819985a5b195960521b604082015260600190565b84815283602082015260008351613ad0816040850160208801613678565b6040920191820192909252606001949350505050565b602080825260159082015274496e76616c6964206f776e6572206164647265737360581b604082015260600190565b60208082526018908201527f5072656d69756d206d75737420626520706f7369746976650000000000000000604082015260600190565b6020808252601c908201527f53756d2061737375726564206d75737420626520706f73697469766500000000604082015260600190565b60208082526019908201527f4475726174696f6e206d75737420626520706f73697469766500000000000000604082015260600190565b602080825260159082015274506f6c69637920616c72656164792065786973747360581b604082015260600190565b6020815260006132d4602083018461369c565b6bffffffffffffffffffffffff198760601b16815260008651613c26816014850160208b01613678565b90910160148101959095525060348401929092526054830152607482015260940192915050565b60208082526016908201527514da59db985d1d5c9948185b1c9958591e481d5cd95960521b604082015260600190565b7f19457468657265756d205369676e6564204d6573736167653a0a3332000000008152601c810191909152603c0190565b818103818111156107a2576107a261384f565b60ff81811683821601908111156107a2576107a261384f565b600060208284031215613cec57600080fd5b815167ffffffffffffffff811115613d0357600080fd5b8201601f81018413613d1457600080fd5b8051613d226133ae82613367565b818152856020838501011115613d3757600080fd5b613d48826020830160208601613678565b9594505050505056fea49807205ce4d355092ef5a8a18f56e8913cf4a201fbe287825b095693c21775a2646970667358221220692a911e2f36616d23995b6b08fdb8ab9b460f2e35771d344fa0d21b52070e8a64736f6c63430008140033",
  "linkReferences": {},
  "deployedLinkReferences": {}
}