{
  "_format": "hh-sol-artifact-1",
  "contractName": "PolicyBaseMock",
  "sourceName": "contracts/mock/PolicyBaseMock.sol",
  "abi": [
    {
      "inputs": [
        {
          "internalType": "address",
          "name": "_trustedSigner",
          "type": "address"
        },
        {
          "internalType": "address payable",
          "name": "_vaultAddress",
          "type": "address"
        }
      ],
      "stateMutability": "nonpayable",
      "type": "constructor"
    },
    {
      "inputs": [],
      "name": "AccessControlBadConfirmation",
      "type": "error"
    },
    {
      "inputs": [
        {
          "internalType": "address",
          "name": "account",
          "type": "address"
        },
        {
          "internalType": "bytes32",
          "name": "neededRole",
          "type": "bytes32"
        }
      ],
      "name": "AccessControlUnauthorizedAccount",
      "type": "error"
    },
    {
      "inputs": [],
      "name": "ECDSAInvalidSignature",
      "type": "error"
    },
    {
      "inputs": [
        {
          "internalType": "uint256",
          "name": "length",
          "type": "uint256"
        }
      ],
      "name": "ECDSAInvalidSignatureLength",
      "type": "error"
    },
    {
      "inputs": [
        {
          "internalType": "bytes32",
          "name": "s",
          "type": "bytes32"
        }
      ],
      "name": "ECDSAInvalidSignatureS",
      "type": "error"
    },
    {
      "anonymous": false,
      "inputs": [
        {
          "indexed": true,
          "internalType": "address",
          "name": "admin",
          "type": "address"
        }
      ],
      "name": "AdminGranted",
      "type": "event"
    },
    {
      "anonymous": false,
      "inputs": [
        {
          "indexed": true,
          "internalType": "bytes32",
          "name": "policyId",
          "type": "bytes32"
        },
        {
          "indexed": true,
          "internalType": "address",
          "name": "owner",
          "type": "address"
        },
        {
          "indexed": false,
          "internalType": "uint256",
          "name": "amount",
          "type": "uint256"
        }
      ],
      "name": "ClaimApproved",
      "type": "event"
    },
    {
      "anonymous": false,
      "inputs": [
        {
          "indexed": false,
          "internalType": "uint256",
          "name": "oldPeriod",
          "type": "uint256"
        },
        {
          "indexed": false,
          "internalType": "uint256",
          "name": "newPeriod",
          "type": "uint256"
        }
      ],
      "name": "ClaimExpiryPeriodUpdated",
      "type": "event"
    },
    {
      "anonymous": false,
      "inputs": [
        {
          "indexed": true,
          "internalType": "bytes32",
          "name": "policyId",
          "type": "bytes32"
        },
        {
          "indexed": true,
          "internalType": "address",
          "name": "owner",
          "type": "address"
        },
        {
          "indexed": false,
          "internalType": "uint256",
          "name": "amount",
          "type": "uint256"
        },
        {
          "indexed": false,
          "internalType": "string",
          "name": "documentHash",
          "type": "string"
        }
      ],
      "name": "ClaimFiled",
      "type": "event"
    },
    {
      "anonymous": false,
      "inputs": [
        {
          "indexed": true,
          "internalType": "bytes32",
          "name": "policyId",
          "type": "bytes32"
        },
        {
          "indexed": true,
          "internalType": "address",
          "name": "owner",
          "type": "address"
        },
        {
          "indexed": false,
          "internalType": "uint256",
          "name": "refundAmount",
          "type": "uint256"
        }
      ],
      "name": "PolicyCancelled",
      "type": "event"
    },
    {
      "anonymous": false,
      "inputs": [
        {
          "indexed": true,
          "internalType": "bytes32",
          "name": "policyId",
          "type": "bytes32"
        },
        {
          "indexed": true,
          "internalType": "address",
          "name": "owner",
          "type": "address"
        }
      ],
      "name": "PolicyExpired",
      "type": "event"
    },
    {
      "anonymous": false,
      "inputs": [
        {
          "indexed": true,
          "internalType": "bytes32",
          "name": "policyId",
          "type": "bytes32"
        },
        {
          "indexed": true,
          "internalType": "address",
          "name": "owner",
          "type": "address"
        },
        {
          "indexed": false,
          "internalType": "uint256",
          "name": "premium",
          "type": "uint256"
        },
        {
          "indexed": false,
          "internalType": "uint256",
          "name": "sumAssured",
          "type": "uint256"
        },
        {
          "indexed": false,
          "internalType": "uint256",
          "name": "expiry",
          "type": "uint256"
        }
      ],
      "name": "PolicyPurchased",
      "type": "event"
    },
    {
      "anonymous": false,
      "inputs": [
        {
          "indexed": true,
          "internalType": "bytes32",
          "name": "policyId",
          "type": "bytes32"
        },
        {
          "indexed": true,
          "internalType": "address",
          "name": "owner",
          "type": "address"
        },
        {
          "indexed": false,
          "internalType": "uint256",
          "name": "premium",
          "type": "uint256"
        },
        {
          "indexed": false,
          "internalType": "uint256",
          "name": "newExpiry",
          "type": "uint256"
        }
      ],
      "name": "PolicyRenewed",
      "type": "event"
    },
    {
      "anonymous": false,
      "inputs": [
        {
          "indexed": true,
          "internalType": "bytes32",
          "name": "policyId",
          "type": "bytes32"
        },
        {
          "indexed": true,
          "internalType": "address",
          "name": "owner",
          "type": "address"
        },
        {
          "indexed": false,
          "internalType": "uint256",
          "name": "amount",
          "type": "uint256"
        }
      ],
      "name": "RefundIssued",
      "type": "event"
    },
    {
      "anonymous": false,
      "inputs": [
        {
          "indexed": true,
          "internalType": "bytes32",
          "name": "role",
          "type": "bytes32"
        },
        {
          "indexed": true,
          "internalType": "bytes32",
          "name": "previousAdminRole",
          "type": "bytes32"
        },
        {
          "indexed": true,
          "internalType": "bytes32",
          "name": "newAdminRole",
          "type": "bytes32"
        }
      ],
      "name": "RoleAdminChanged",
      "type": "event"
    },
    {
      "anonymous": false,
      "inputs": [
        {
          "indexed": true,
          "internalType": "bytes32",
          "name": "role",
          "type": "bytes32"
        },
        {
          "indexed": true,
          "internalType": "address",
          "name": "account",
          "type": "address"
        },
        {
          "indexed": true,
          "internalType": "address",
          "name": "sender",
          "type": "address"
        }
      ],
      "name": "RoleGranted",
      "type": "event"
    },
    {
      "anonymous": false,
      "inputs": [
        {
          "indexed": true,
          "internalType": "bytes32",
          "name": "role",
          "type": "bytes32"
        },
        {
          "indexed": true,
          "internalType": "address",
          "name": "account",
          "type": "address"
        },
        {
          "indexed": true,
          "internalType": "address",
          "name": "sender",
          "type": "address"
        }
      ],
      "name": "RoleRevoked",
      "type": "event"
    },
    {
      "anonymous": false,
      "inputs": [
        {
          "indexed": true,
          "internalType": "address",
          "name": "oldSigner",
          "type": "address"
        },
        {
          "indexed": true,
          "internalType": "address",
          "name": "newSigner",
          "type": "address"
        }
      ],
      "name": "TrustedSignerUpdated",
      "type": "event"
    },
    {
      "anonymous": false,
      "inputs": [
        {
          "indexed": true,
          "internalType": "address",
          "name": "oldVault",
          "type": "address"
        },
        {
          "indexed": true,
          "internalType": "address",
          "name": "newVault",
          "type": "address"
        }
      ],
      "name": "VaultUpdated",
      "type": "event"
    },
    {
      "inputs": [],
      "name": "ADMIN_ROLE",
      "outputs": [
        {
          "internalType": "bytes32",
          "name": "",
          "type": "bytes32"
        }
      ],
      "stateMutability": "view",
      "type": "function"
    },
    {
      "inputs": [],
      "name": "DEFAULT_ADMIN_ROLE",
      "outputs": [
        {
          "internalType": "bytes32",
          "name": "",
          "type": "bytes32"
        }
      ],
      "stateMutability": "view",
      "type": "function"
    },
    {
      "inputs": [
        {
          "internalType": "bytes32",
          "name": "policyId",
          "type": "bytes32"
        },
        {
          "internalType": "uint256",
          "name": "timeToAdvance",
          "type": "uint256"
        }
      ],
      "name": "advanceTime",
      "outputs": [],
      "stateMutability": "nonpayable",
      "type": "function"
    },
    {
      "inputs": [
        {
          "internalType": "bytes32",
          "name": "policyId",
          "type": "bytes32"
        }
      ],
      "name": "approveClaim",
      "outputs": [
        {
          "internalType": "uint256",
          "name": "",
          "type": "uint256"
        }
      ],
      "stateMutability": "nonpayable",
      "type": "function"
    },
    {
      "inputs": [
        {
          "internalType": "bytes32",
          "name": "policyId",
          "type": "bytes32"
        }
      ],
      "name": "approveClaimWithoutVerification",
      "outputs": [
        {
          "internalType": "uint256",
          "name": "",
          "type": "uint256"
        }
      ],
      "stateMutability": "nonpayable",
      "type": "function"
    },
    {
      "inputs": [
        {
          "internalType": "bytes32",
          "name": "policyId",
          "type": "bytes32"
        },
        {
          "internalType": "uint256",
          "name": "refundAmount",
          "type": "uint256"
        },
        {
          "internalType": "bytes",
          "name": "signature",
          "type": "bytes"
        }
      ],
      "name": "cancelPolicy",
      "outputs": [],
      "stateMutability": "nonpayable",
      "type": "function"
    },
    {
      "inputs": [
        {
          "internalType": "bytes32",
          "name": "policyId",
          "type": "bytes32"
        }
      ],
      "name": "cancelPolicyWithoutTransfer",
      "outputs": [],
      "stateMutability": "nonpayable",
      "type": "function"
    },
    {
      "inputs": [],
      "name": "claimExpiryPeriod",
      "outputs": [
        {
          "internalType": "uint256",
          "name": "",
          "type": "uint256"
        }
      ],
      "stateMutability": "view",
      "type": "function"
    },
    {
      "inputs": [
        {
          "internalType": "bytes32",
          "name": "policyId",
          "type": "bytes32"
        },
        {
          "internalType": "uint256",
          "name": "amount",
          "type": "uint256"
        },
        {
          "internalType": "string",
          "name": "documentHash",
          "type": "string"
        },
        {
          "internalType": "bool",
          "name": "isPending",
          "type": "bool"
        }
      ],
      "name": "createMockClaim",
      "outputs": [],
      "stateMutability": "nonpayable",
      "type": "function"
    },
    {
      "inputs": [
        {
          "internalType": "uint256",
          "name": "amount",
          "type": "uint256"
        }
      ],
      "name": "emergencyWithdraw",
      "outputs": [],
      "stateMutability": "nonpayable",
      "type": "function"
    },
    {
      "inputs": [
        {
          "internalType": "bytes32",
          "name": "policyId",
          "type": "bytes32"
        },
        {
          "internalType": "uint256",
          "name": "amount",
          "type": "uint256"
        },
        {
          "internalType": "string",
          "name": "documentHash",
          "type": "string"
        },
        {
          "internalType": "bytes",
          "name": "signature",
          "type": "bytes"
        }
      ],
      "name": "fileClaim",
      "outputs": [],
      "stateMutability": "nonpayable",
      "type": "function"
    },
    {
      "inputs": [
        {
          "internalType": "bytes32",
          "name": "policyId",
          "type": "bytes32"
        },
        {
          "internalType": "uint256",
          "name": "amount",
          "type": "uint256"
        },
        {
          "internalType": "string",
          "name": "documentHash",
          "type": "string"
        }
      ],
      "name": "fileClaimWithoutSignature",
      "outputs": [],
      "stateMutability": "nonpayable",
      "type": "function"
    },
    {
      "inputs": [
        {
          "internalType": "bytes32",
          "name": "policyId",
          "type": "bytes32"
        }
      ],
      "name": "forceExpirePolicy",
      "outputs": [],
      "stateMutability": "nonpayable",
      "type": "function"
    },
    {
      "inputs": [
        {
          "internalType": "bytes32",
          "name": "policyId",
          "type": "bytes32"
        }
      ],
      "name": "getClaim",
      "outputs": [
        {
          "components": [
            {
              "internalType": "bytes32",
              "name": "policyId",
              "type": "bytes32"
            },
            {
              "internalType": "uint256",
              "name": "amount",
              "type": "uint256"
            },
            {
              "internalType": "string",
              "name": "documentHash",
              "type": "string"
            },
            {
              "internalType": "bool",
              "name": "isPending",
              "type": "bool"
            },
            {
              "internalType": "uint256",
              "name": "createdAt",
              "type": "uint256"
            },
            {
              "internalType": "uint256",
              "name": "expiryTimestamp",
              "type": "uint256"
            }
          ],
          "internalType": "struct PolicyBase.ClaimRequest",
          "name": "",
          "type": "tuple"
        }
      ],
      "stateMutability": "view",
      "type": "function"
    },
    {
      "inputs": [
        {
          "internalType": "bytes32",
          "name": "policyId",
          "type": "bytes32"
        }
      ],
      "name": "getMockPolicyData",
      "outputs": [
        {
          "components": [
            {
              "internalType": "string",
              "name": "metadata",
              "type": "string"
            },
            {
              "internalType": "bool",
              "name": "processed",
              "type": "bool"
            }
          ],
          "internalType": "struct PolicyBaseMock.MockPolicyData",
          "name": "",
          "type": "tuple"
        }
      ],
      "stateMutability": "view",
      "type": "function"
    },
    {
      "inputs": [
        {
          "internalType": "bytes32",
          "name": "policyId",
          "type": "bytes32"
        }
      ],
      "name": "getPolicy",
      "outputs": [
        {
          "components": [
            {
              "internalType": "bytes32",
              "name": "policyId",
              "type": "bytes32"
            },
            {
              "internalType": "address",
              "name": "owner",
              "type": "address"
            },
            {
              "internalType": "uint256",
              "name": "premium",
              "type": "uint256"
            },
            {
              "internalType": "uint256",
              "name": "sumAssured",
              "type": "uint256"
            },
            {
              "internalType": "uint256",
              "name": "expiry",
              "type": "uint256"
            },
            {
              "internalType": "bool",
              "name": "isActive",
              "type": "bool"
            },
            {
              "internalType": "bool",
              "name": "isClaimed",
              "type": "bool"
            },
            {
              "internalType": "uint256",
              "name": "createdAt",
              "type": "uint256"
            }
          ],
          "internalType": "struct PolicyBase.Policy",
          "name": "",
          "type": "tuple"
        }
      ],
      "stateMutability": "view",
      "type": "function"
    },
    {
      "inputs": [
        {
          "internalType": "bytes32",
          "name": "role",
          "type": "bytes32"
        }
      ],
      "name": "getRoleAdmin",
      "outputs": [
        {
          "internalType": "bytes32",
          "name": "",
          "type": "bytes32"
        }
      ],
      "stateMutability": "view",
      "type": "function"
    },
    {
      "inputs": [
        {
          "internalType": "address",
          "name": "newAdmin",
          "type": "address"
        }
      ],
      "name": "grantAdminRole",
      "outputs": [],
      "stateMutability": "nonpayable",
      "type": "function"
    },
    {
      "inputs": [
        {
          "internalType": "bytes32",
          "name": "role",
          "type": "bytes32"
        },
        {
          "internalType": "address",
          "name": "account",
          "type": "address"
        }
      ],
      "name": "grantRole",
      "outputs": [],
      "stateMutability": "nonpayable",
      "type": "function"
    },
    {
      "inputs": [
        {
          "internalType": "bytes32",
          "name": "role",
          "type": "bytes32"
        },
        {
          "internalType": "address",
          "name": "account",
          "type": "address"
        }
      ],
      "name": "hasRole",
      "outputs": [
        {
          "internalType": "bool",
          "name": "",
          "type": "bool"
        }
      ],
      "stateMutability": "view",
      "type": "function"
    },
    {
      "inputs": [
        {
          "internalType": "bytes32",
          "name": "policyId",
          "type": "bytes32"
        }
      ],
      "name": "markExpiredPolicy",
      "outputs": [],
      "stateMutability": "nonpayable",
      "type": "function"
    },
    {
      "inputs": [
        {
          "internalType": "address",
          "name": "owner",
          "type": "address"
        },
        {
          "internalType": "uint256",
          "name": "premium",
          "type": "uint256"
        },
        {
          "internalType": "uint256",
          "name": "sumAssured",
          "type": "uint256"
        },
        {
          "internalType": "uint256",
          "name": "duration",
          "type": "uint256"
        },
        {
          "internalType": "bytes",
          "name": "signature",
          "type": "bytes"
        }
      ],
      "name": "purchasePolicy",
      "outputs": [
        {
          "internalType": "bytes32",
          "name": "",
          "type": "bytes32"
        }
      ],
      "stateMutability": "payable",
      "type": "function"
    },
    {
      "inputs": [
        {
          "internalType": "address",
          "name": "owner",
          "type": "address"
        },
        {
          "internalType": "uint256",
          "name": "premium",
          "type": "uint256"
        },
        {
          "internalType": "uint256",
          "name": "sumAssured",
          "type": "uint256"
        },
        {
          "internalType": "uint256",
          "name": "duration",
          "type": "uint256"
        },
        {
          "internalType": "bytes",
          "name": "signature",
          "type": "bytes"
        }
      ],
      "name": "purchasePolicyWithSignature",
      "outputs": [],
      "stateMutability": "payable",
      "type": "function"
    },
    {
      "inputs": [
        {
          "internalType": "address",
          "name": "owner",
          "type": "address"
        },
        {
          "internalType": "uint256",
          "name": "premium",
          "type": "uint256"
        },
        {
          "internalType": "uint256",
          "name": "sumAssured",
          "type": "uint256"
        },
        {
          "internalType": "uint256",
          "name": "duration",
          "type": "uint256"
        }
      ],
      "name": "purchasePolicyWithoutSignature",
      "outputs": [],
      "stateMutability": "payable",
      "type": "function"
    },
    {
      "inputs": [
        {
          "internalType": "bytes32",
          "name": "policyId",
          "type": "bytes32"
        },
        {
          "internalType": "uint256",
          "name": "premium",
          "type": "uint256"
        },
        {
          "internalType": "uint256",
          "name": "duration",
          "type": "uint256"
        },
        {
          "internalType": "bytes",
          "name": "signature",
          "type": "bytes"
        }
      ],
      "name": "renewPolicy",
      "outputs": [],
      "stateMutability": "payable",
      "type": "function"
    },
    {
      "inputs": [
        {
          "internalType": "bytes32",
          "name": "policyId",
          "type": "bytes32"
        },
        {
          "internalType": "uint256",
          "name": "premium",
          "type": "uint256"
        },
        {
          "internalType": "uint256",
          "name": "duration",
          "type": "uint256"
        }
      ],
      "name": "renewPolicyWithoutSignature",
      "outputs": [],
      "stateMutability": "payable",
      "type": "function"
    },
    {
      "inputs": [
        {
          "internalType": "bytes32",
          "name": "role",
          "type": "bytes32"
        },
        {
          "internalType": "address",
          "name": "callerConfirmation",
          "type": "address"
        }
      ],
      "name": "renounceRole",
      "outputs": [],
      "stateMutability": "nonpayable",
      "type": "function"
    },
    {
      "inputs": [
        {
          "internalType": "address",
          "name": "admin",
          "type": "address"
        }
      ],
      "name": "revokeAdminRole",
      "outputs": [],
      "stateMutability": "nonpayable",
      "type": "function"
    },
    {
      "inputs": [
        {
          "internalType": "bytes32",
          "name": "role",
          "type": "bytes32"
        },
        {
          "internalType": "address",
          "name": "account",
          "type": "address"
        }
      ],
      "name": "revokeRole",
      "outputs": [],
      "stateMutability": "nonpayable",
      "type": "function"
    },
    {
      "inputs": [
        {
          "internalType": "uint256",
          "name": "periodInDays",
          "type": "uint256"
        }
      ],
      "name": "setClaimExpiryPeriod",
      "outputs": [],
      "stateMutability": "nonpayable",
      "type": "function"
    },
    {
      "inputs": [
        {
          "internalType": "bytes32",
          "name": "policyId",
          "type": "bytes32"
        },
        {
          "internalType": "bool",
          "name": "isPending",
          "type": "bool"
        },
        {
          "internalType": "bool",
          "name": "isClaimed",
          "type": "bool"
        },
        {
          "internalType": "bool",
          "name": "isActive",
          "type": "bool"
        }
      ],
      "name": "setClaimState",
      "outputs": [],
      "stateMutability": "nonpayable",
      "type": "function"
    },
    {
      "inputs": [
        {
          "internalType": "bytes32",
          "name": "policyId",
          "type": "bytes32"
        },
        {
          "internalType": "uint256",
          "name": "expiryTimestamp",
          "type": "uint256"
        }
      ],
      "name": "setExpiryTimestamp",
      "outputs": [],
      "stateMutability": "nonpayable",
      "type": "function"
    },
    {
      "inputs": [
        {
          "internalType": "address",
          "name": "newReceiver",
          "type": "address"
        }
      ],
      "name": "setMockVaultReceiver",
      "outputs": [],
      "stateMutability": "nonpayable",
      "type": "function"
    },
    {
      "inputs": [
        {
          "internalType": "bytes32",
          "name": "policyId",
          "type": "bytes32"
        },
        {
          "internalType": "uint256",
          "name": "daysBeforeExpiry",
          "type": "uint256"
        }
      ],
      "name": "setTimeToNearExpiry",
      "outputs": [],
      "stateMutability": "nonpayable",
      "type": "function"
    },
    {
      "inputs": [
        {
          "internalType": "address",
          "name": "newSigner",
          "type": "address"
        }
      ],
      "name": "setTrustedSigner",
      "outputs": [],
      "stateMutability": "nonpayable",
      "type": "function"
    },
    {
      "inputs": [
        {
          "internalType": "address payable",
          "name": "newVault",
          "type": "address"
        }
      ],
      "name": "setVault",
      "outputs": [],
      "stateMutability": "nonpayable",
      "type": "function"
    },
    {
      "inputs": [
        {
          "internalType": "address payable",
          "name": "to",
          "type": "address"
        },
        {
          "internalType": "uint256",
          "name": "amount",
          "type": "uint256"
        }
      ],
      "name": "simulateVaultTransfer",
      "outputs": [],
      "stateMutability": "nonpayable",
      "type": "function"
    },
    {
      "inputs": [
        {
          "internalType": "bytes4",
          "name": "interfaceId",
          "type": "bytes4"
        }
      ],
      "name": "supportsInterface",
      "outputs": [
        {
          "internalType": "bool",
          "name": "",
          "type": "bool"
        }
      ],
      "stateMutability": "view",
      "type": "function"
    },
    {
      "inputs": [],
      "name": "trustedSigner",
      "outputs": [
        {
          "internalType": "address",
          "name": "",
          "type": "address"
        }
      ],
      "stateMutability": "view",
      "type": "function"
    },
    {
      "inputs": [],
      "name": "vault",
      "outputs": [
        {
          "internalType": "contract InsuranceVault",
          "name": "",
          "type": "address"
        }
      ],
      "stateMutability": "view",
      "type": "function"
    },
    {
      "stateMutability": "payable",
      "type": "receive"
    }
  ],
  "bytecode": "0x608060405262093a806004553480156200001857600080fd5b506040516200406d3803806200406d8339810160408190526200003b916200023d565b81816001600160a01b038216620000995760405162461bcd60e51b815260206004820152601660248201527f496e76616c6964207369676e657220616464726573730000000000000000000060448201526064015b60405180910390fd5b6001600160a01b038116620000f15760405162461bcd60e51b815260206004820152601560248201527f496e76616c6964207661756c7420616464726573730000000000000000000000604482015260640162000090565b620000fe60003362000175565b506200012b7fa49807205ce4d355092ef5a8a18f56e8913cf4a201fbe287825b095693c217753362000175565b50600280546001600160a01b039384166001600160a01b031991821617909155600380549290931691811691909117909155600180556009805490911630179055506200027c9050565b6000828152602081815260408083206001600160a01b038516845290915281205460ff166200021a576000838152602081815260408083206001600160a01b03861684529091529020805460ff19166001179055620001d13390565b6001600160a01b0316826001600160a01b0316847f2f8788117e7eff1d82e926ec794901d17c78024a50270940304540a733656f0d60405160405180910390a45060016200021e565b5060005b92915050565b6001600160a01b03811681146200023a57600080fd5b50565b600080604083850312156200025157600080fd5b82516200025e8162000224565b6020840151909250620002718162000224565b809150509250929050565b613de1806200028c6000396000f3fe60806040526004361061023f5760003560e01c80636def90b71161012e578063a3f685f9116100ab578063c9100bcb1161006f578063c9100bcb14610861578063d547741f1461088e578063f74d5480146108ae578063f99dec74146108e6578063fbfa77cf1461090657600080fd5b8063a3f685f9146106b9578063b04a733b146107fb578063b0529da21461080e578063b87fb65c1461082e578063c634b78e1461084157600080fd5b806391cfb505116100f257806391cfb5051461062457806391d1485414610644578063974552f9146106645780639a19c7b014610684578063a217fddf146106a457600080fd5b80636def90b7146105755780636e9747ca1461059557806375b238fc146105c25780637d694f79146105e45780638b82e07a1461060457600080fd5b806336568abe116101bc5780635312ea8e116101805780635312ea8e146104d557806356a1c701146104f5578063597a43b5146105155780635f64e78a146105355780636817031b1461055557600080fd5b806336568abe1461044f5780633719f0961461046f5780634059442d1461048f5780634e494b7c146104af578063528331db146104c257600080fd5b806329216c7c1161020357806329216c7c146103c65780632f1ed59e146103e65780632f2ff15d146103f95780632fe1814c1461041957806330d95b531461043957600080fd5b806301ffc9a7146102f357806308b3bf821461032857806319c0d1fa1461034857806320056ed314610368578063248a9ca31461039657600080fd5b366102ee576003546040516000916001600160a01b03169034908381818185875af1925050503d8060008114610291576040519150601f19603f3d011682016040523d82523d6000602084013e610296565b606091505b50509050806102ec5760405162461bcd60e51b815260206004820152601e60248201527f45544820666f7277617264696e6720746f207661756c74206661696c6564000060448201526064015b60405180910390fd5b005b600080fd5b3480156102ff57600080fd5b5061031361030e36600461337f565b610926565b60405190151581526020015b60405180910390f35b34801561033457600080fd5b506102ec6103433660046133c5565b61095d565b34801561035457600080fd5b506102ec610363366004613412565b6109e7565b34801561037457600080fd5b50610388610383366004613412565b610a96565b60405190815260200161031f565b3480156103a257600080fd5b506103886103b1366004613412565b60009081526020819052604090206001015490565b3480156103d257600080fd5b506102ec6103e1366004613412565b610c28565b6102ec6103f436600461342b565b610cdb565b34801561040557600080fd5b506102ec61041436600461346c565b610e80565b34801561042557600080fd5b506102ec61043436600461353f565b610eab565b34801561044557600080fd5b5061038860045481565b34801561045b57600080fd5b506102ec61046a36600461346c565b61110d565b34801561047b57600080fd5b5061038861048a366004613412565b611145565b34801561049b57600080fd5b506102ec6104aa36600461358f565b61134f565b6102ec6104bd366004613606565b6115de565b6102ec6104d0366004613654565b611836565b3480156104e157600080fd5b506102ec6104f0366004613412565b611acf565b34801561050157600080fd5b506102ec61051036600461368f565b611b6d565b34801561052157600080fd5b506102ec61053036600461353f565b611c1a565b34801561054157600080fd5b506102ec6105503660046136ac565b611dea565b34801561056157600080fd5b506102ec61057036600461368f565b611e6e565b34801561058157600080fd5b506102ec610590366004613412565b611f1a565b3480156105a157600080fd5b506105b56105b0366004613412565b611fc3565b60405161031f919061371e565b3480156105ce57600080fd5b50610388600080516020613d8c83398151915281565b3480156105f057600080fd5b506102ec6105ff366004613752565b612098565b34801561061057600080fd5b506102ec61061f3660046137a8565b6121bf565b34801561063057600080fd5b506102ec61063f36600461368f565b6122b3565b34801561065057600080fd5b5061031361065f36600461346c565b6122ee565b34801561067057600080fd5b506102ec61067f3660046136ac565b612317565b34801561069057600080fd5b506102ec61069f36600461368f565b6123cb565b3480156106b057600080fd5b50610388600081565b3480156106c557600080fd5b506107926106d4366004613412565b6040805161010081018252600080825260208201819052918101829052606081018290526080810182905260a0810182905260c0810182905260e081019190915250600090815260056020818152604092839020835161010080820186528254825260018301546001600160a01b03169382019390935260028201549481019490945260038101546060850152600481015460808501529182015460ff808216151560a086015291900416151560c08301526006015460e082015290565b60405161031f9190815181526020808301516001600160a01b03169082015260408083015190820152606080830151908201526080808301519082015260a08083015115159082015260c08083015115159082015260e091820151918101919091526101000190565b6102ec6108093660046137d4565b612489565b34801561081a57600080fd5b506102ec610829366004613412565b6127c4565b61038861083c3660046137d4565b612891565b34801561084d57600080fd5b506102ec61085c36600461368f565b612be1565b34801561086d57600080fd5b5061088161087c366004613412565b612c8b565b60405161031f9190613841565b34801561089a57600080fd5b506102ec6108a936600461346c565b612db7565b3480156108ba57600080fd5b506002546108ce906001600160a01b031681565b6040516001600160a01b03909116815260200161031f565b3480156108f257600080fd5b506102ec6109013660046136ac565b612ddc565b34801561091257600080fd5b506003546108ce906001600160a01b031681565b60006001600160e01b03198216637965db0b60e01b148061095757506301ffc9a760e01b6001600160e01b03198316145b92915050565b600080516020613d8c83398151915261097581612ecb565b60008581526005602090815260408083206006909252909120815487146109ae5760405162461bcd60e51b81526004016102e39061389d565b600301805495151560ff1996871617905560050180549215159315156101000290941661ffff1990921691909117919091179091555050565b60006109f281612ecb565b60008211610a425760405162461bcd60e51b815260206004820152601760248201527f506572696f64206d75737420626520706f73697469766500000000000000000060448201526064016102e3565b600454610a5283620151806138e2565b60048190556040805183815260208101929092527fb792057619e1a3b0e2768725ef4cb4fc3cbf647c992d306e6876522e3fc0cdbc910160405180910390a1505050565b6000600080516020613d8c833981519152610ab081612ecb565b60008381526005602081905260409091200154839060ff16610ae45760405162461bcd60e51b81526004016102e3906138f9565b60008481526006602090815260408083206005909252909120600382015460ff16610b445760405162461bcd60e51b815260206004820152601060248201526f4e6f2070656e64696e6720636c61696d60801b60448201526064016102e3565b6003828101805460ff1916905560058201805461ffff19166101001790555460018281015490840154604051631e55af2160e31b81526001600160a01b039283166004820152602481019190915291169063f2ad790890604401600060405180830381600087803b158015610bb857600080fd5b505af1158015610bcc573d6000803e3d6000fd5b50505050600181810154908301546040519081526001600160a01b039091169087907f636494174e4a0f872de31b104ec14fb50edb1bdc4b1db9f006eaa68a61610f9c9060200160405180910390a35060010154949350505050565b600080516020613d8c833981519152610c4081612ecb565b60008281526005602081905260409091200154829060ff16610c745760405162461bcd60e51b81526004016102e3906138f9565b6000838152600560208181526040808420928301805460ff191690556001830154905193845291926001600160a01b039092169186917fae2eb9a5ff7e26865940377aafb8a569997727d3bc48028ed88199eed260087f910160405180910390a350505050565b60008381526005602081905260409091200154839060ff16610d0f5760405162461bcd60e51b81526004016102e3906138f9565b600084815260056020526040902060018101546001600160a01b03163314610d495760405162461bcd60e51b81526004016102e390613924565b833414610d685760405162461bcd60e51b81526004016102e390613952565b6005810154610100900460ff1615610d925760405162461bcd60e51b81526004016102e390613989565b600281018490556004810154610da99084906139b9565b60048201556003546040516000916001600160a01b03169086908381818185875af1925050503d8060008114610dfb576040519150601f19603f3d011682016040523d82523d6000602084013e610e00565b606091505b5050905080610e215760405162461bcd60e51b81526004016102e3906139cc565b600182015460048301546040516001600160a01b039092169188917f16fe3aa381de20cb3e0fb3f9ae8d20168747df7e26dbc2b381ad5025ee5ca08691610e70918a8252602082015260400190565b60405180910390a3505050505050565b600082815260208190526040902060010154610e9b81612ecb565b610ea58383612ed8565b50505050565b600080516020613d8c833981519152610ec381612ecb565b60008481526005602081905260409091200154849060ff16610ef75760405162461bcd60e51b81526004016102e3906138f9565b600260015403610f195760405162461bcd60e51b81526004016102e390613a01565b6002600155600085815260056020819052604090912090810154610100900460ff1615610f585760405162461bcd60e51b81526004016102e390613989565b80600401544210610f7b5760405162461bcd60e51b81526004016102e390613a38565b6040805160208101889052908101869052466060820152600090608001604051602081830303815290604052805190602001209050610fba8186612f6a565b610fd65760405162461bcd60e51b81526004016102e390613a60565b8451602080870191909120600090815260079091526040908190208054600160ff1991821681179092556005850180549091169055600354908401549151631f9cab4760e21b81526001600160a01b03928316600482015260248101899052911690637e72ad1c90604401600060405180830381600087803b15801561105b57600080fd5b505af115801561106f573d6000803e3d6000fd5b5050505060018201546040518781526001600160a01b039091169088907fae2eb9a5ff7e26865940377aafb8a569997727d3bc48028ed88199eed260087f9060200160405180910390a360018201546040518781526001600160a01b039091169088907ff8590cd6b8c44be7a2bc57131f10e203ec5f7d7f2f761e1508a8cc964ecb9eb7906020015b60405180910390a35050600180555050505050565b6001600160a01b03811633146111365760405163334bd91960e11b815260040160405180910390fd5b6111408282613021565b505050565b6000600080516020613d8c83398151915261115f81612ecb565b60008381526005602081905260409091200154839060ff166111935760405162461bcd60e51b81526004016102e3906138f9565b6002600154036111b55760405162461bcd60e51b81526004016102e390613a01565b600260015560008481526006602090815260408083206005909252909120600382015460ff1661121a5760405162461bcd60e51b815260206004820152601060248201526f4e6f2070656e64696e6720636c61696d60801b60448201526064016102e3565b81600501544211156112665760405162461bcd60e51b815260206004820152601560248201527410db185a5b481c995c5d595cdd08195e1c1a5c9959605a1b60448201526064016102e3565b6003828101805460ff1916905560058201805461ffff19166101001790555460018281015490840154604051631e55af2160e31b81526001600160a01b039283166004820152602481019190915291169063f2ad790890604401600060405180830381600087803b1580156112da57600080fd5b505af11580156112ee573d6000803e3d6000fd5b50505050600181810154908301546040519081526001600160a01b039091169087907f636494174e4a0f872de31b104ec14fb50edb1bdc4b1db9f006eaa68a61610f9c9060200160405180910390a350600101549250505060018055919050565b6002600154036113715760405162461bcd60e51b81526004016102e390613a01565b600260015560008481526005602081905260409091200154849060ff166113aa5760405162461bcd60e51b81526004016102e3906138f9565b600085815260056020526040902060018101546001600160a01b031633146113e45760405162461bcd60e51b81526004016102e390613924565b80600301548511156114345760405162461bcd60e51b815260206004820152601960248201527810db185a5b48195e18d959591cc81cdd5b48185cdcdd5c9959603a1b60448201526064016102e3565b6005810154610100900460ff161561145e5760405162461bcd60e51b81526004016102e390613989565b806004015442106114815760405162461bcd60e51b81526004016102e390613a38565b60008686864660405160200161149a9493929190613a8b565b6040516020818303038152906040528051906020012090506114bc8185612f6a565b6114d85760405162461bcd60e51b81526004016102e390613a60565b8351602080860191909120600090815260078252604090819020805460ff19166001908117909155815160c0810183528a81529283018990529082018790526060820152426080820181905260045460a083019161153691906139b9565b90526000888152600660209081526040918290208351815590830151600182015590820151600282019061156a9082613b47565b50606082015160038201805460ff19169115159190911790556080820151600482015560a09091015160059091015560018201546040516001600160a01b039091169088907fc96b2a45efdafddb0d702bd3f580b163b3de51eaf6181152b2625544b7d0e43e906110f8908a908a90613c07565b6002600154036116005760405162461bcd60e51b81526004016102e390613a01565b600260015560008481526005602081905260409091200154849060ff166116395760405162461bcd60e51b81526004016102e3906138f9565b600085815260056020526040902060018101546001600160a01b031633146116735760405162461bcd60e51b81526004016102e390613924565b8434146116925760405162461bcd60e51b81526004016102e390613952565b6005810154610100900460ff16156116bc5760405162461bcd60e51b81526004016102e390613989565b60408051602081018890529081018690526060810185905246608082015260009060a0016040516020818303038152906040528051906020012090506117028185612f6a565b61171e5760405162461bcd60e51b81526004016102e390613a60565b83516020808601919091206000908152600790915260409020805460ff191660011790556002820186905560048201546117599086906139b9565b60048301556003546040516000916001600160a01b03169088908381818185875af1925050503d80600081146117ab576040519150601f19603f3d011682016040523d82523d6000602084013e6117b0565b606091505b50509050806117d15760405162461bcd60e51b81526004016102e3906139cc565b600183015460048401546040516001600160a01b03909216918a917f16fe3aa381de20cb3e0fb3f9ae8d20168747df7e26dbc2b381ad5025ee5ca08691611820918c8252602082015260400190565b60405180910390a3505060018055505050505050565b6001600160a01b03841661185c5760405162461bcd60e51b81526004016102e390613c28565b6000831161187c5760405162461bcd60e51b81526004016102e390613c57565b6000821161189c5760405162461bcd60e51b81526004016102e390613c8e565b600081116118bc5760405162461bcd60e51b81526004016102e390613cc5565b8234146118db5760405162461bcd60e51b81526004016102e390613952565b60006118e7854261308c565b6000818152600560208190526040909120015490915060ff161561191d5760405162461bcd60e51b81526004016102e390613cfc565b604051806101000160405280828152602001866001600160a01b03168152602001858152602001848152602001834261195691906139b9565b8152600160208083018290526000604080850182905242606095860152868252600580845291819020865181559286015193830180546001600160a01b039095166001600160a01b0319909516949094179093559184015160028201559183015160038301556080830151600483015560a0830151908201805460c085015115156101000261ff00199315159390931661ffff199091161791909117905560e090910151600690910155611a09816130d3565b6003546040516000916001600160a01b03169086908381818185875af1925050503d8060008114611a56576040519150601f19603f3d011682016040523d82523d6000602084013e611a5b565b606091505b5050905080611a7c5760405162461bcd60e51b81526004016102e3906139cc565b6001600160a01b038616827f105d821f4999dd4d79a889f0a0b1a1f6a5366615d06b4b7aef9e0a42a1de8cff8787611ab488426139b9565b60408051938452602084019290925290820152606001610e70565b6000611ada81612ecb565b600260015403611afc5760405162461bcd60e51b81526004016102e390613a01565b600260015560035460405163c107532960e01b8152336004820152602481018490526001600160a01b039091169063c107532990604401600060405180830381600087803b158015611b4d57600080fd5b505af1158015611b61573d6000803e3d6000fd5b50506001805550505050565b6000611b7881612ecb565b6001600160a01b038216611bc75760405162461bcd60e51b8152602060048201526016602482015275496e76616c6964207369676e6572206164647265737360501b60448201526064016102e3565b600280546001600160a01b038481166001600160a01b0319831681179093556040519116919082907f4a297cf5d32586f80d2b0708a39d2da1f46e6ae7722171e1c51dfd685b5b8aa890600090a3505050565b60008381526005602081905260409091200154839060ff16611c4e5760405162461bcd60e51b81526004016102e3906138f9565b60008481526005602052604090206003810154841115611cac5760405162461bcd60e51b815260206004820152601960248201527810db185a5b48195e18d959591cc81cdd5b48185cdcdd5c9959603a1b60448201526064016102e3565b6005810154610100900460ff1615611cd65760405162461bcd60e51b81526004016102e390613989565b80600401544210611cf95760405162461bcd60e51b81526004016102e390613a38565b6040518060c0016040528086815260200185815260200184815260200160011515815260200142815260200160045442611d3391906139b9565b905260008681526006602090815260409182902083518155908301516001820155908201516002820190611d679082613b47565b50606082015160038201805460ff19169115159190911790556080820151600482015560a09091015160059091015560018101546040516001600160a01b039091169086907fc96b2a45efdafddb0d702bd3f580b163b3de51eaf6181152b2625544b7d0e43e90611ddb9088908890613c07565b60405180910390a35050505050565b600080516020613d8c833981519152611e0281612ecb565b60008381526005602081905260409091209081015460ff16611e365760405162461bcd60e51b81526004016102e3906138f9565b8281600401541115611e615782816004016000828254611e569190613d2b565b90915550610ea59050565b6000600482015550505050565b6000611e7981612ecb565b6001600160a01b038216611ec75760405162461bcd60e51b8152602060048201526015602482015274496e76616c6964207661756c74206164647265737360581b60448201526064016102e3565b600380546001600160a01b038481166001600160a01b0319831681179093556040519116919082907f483bdedaaf23706a9800ac1af0d852b34927780d79f9d6ba60a80c7cad75ea3990600090a3505050565b600080516020613d8c833981519152611f3281612ecb565b60008281526005602081905260409091209081015460ff16611f665760405162461bcd60e51b81526004016102e3906138f9565b60058101805460ff19169055611f7d600142613d2b565b600482015560018101546040516001600160a01b039091169084907f8629ba1a018e1397c942e8dcf53afb2cfd0f250c02bc785e041010dfe6bbe00290600090a3505050565b604080518082019091526060815260006020820152600082815260086020526040908190208151808301909252805482908290611fff90613abf565b80601f016020809104026020016040519081016040528092919081815260200182805461202b90613abf565b80156120785780601f1061204d57610100808354040283529160200191612078565b820191906000526020600020905b81548152906001019060200180831161205b57829003601f168201915b50505091835250506001919091015460ff16151560209091015292915050565b600080516020613d8c8339815191526120b081612ecb565b6000858152600560205260409020805486146120de5760405162461bcd60e51b81526004016102e39061389d565b6040518060c0016040528087815260200186815260200185815260200184151581526020014281526020016004544261211791906139b9565b90526000878152600660209081526040918290208351815590830151600182015590820151600282019061214b9082613b47565b50606082015160038201805460ff19169115159190911790556080820151600482015560a09091015160059091015560018101546040516001600160a01b039091169087907fc96b2a45efdafddb0d702bd3f580b163b3de51eaf6181152b2625544b7d0e43e90610e709089908990613c07565b600080516020613d8c8339815191526121d781612ecb565b8147101561221e5760405162461bcd60e51b8152602060048201526014602482015273496e73756666696369656e742062616c616e636560601b60448201526064016102e3565b6000836001600160a01b03168360405160006040518083038185875af1925050503d806000811461226b576040519150601f19603f3d011682016040523d82523d6000602084013e612270565b606091505b5050905080610ea55760405162461bcd60e51b815260206004820152600f60248201526e151c985b9cd9995c8819985a5b1959608a1b60448201526064016102e3565b600080516020613d8c8339815191526122cb81612ecb565b50600980546001600160a01b0319166001600160a01b0392909216919091179055565b6000918252602082815260408084206001600160a01b0393909316845291905290205460ff1690565b600080516020613d8c83398151915261232f81612ecb565b60008381526005602052604090208054841461235d5760405162461bcd60e51b81526004016102e39061389d565b600481018390554283118015906123785750600581015460ff165b15610ea55760058101805460ff1916905560018101546040516001600160a01b039091169085907f8629ba1a018e1397c942e8dcf53afb2cfd0f250c02bc785e041010dfe6bbe00290600090a350505050565b60006123d681612ecb565b6001600160a01b0382166124245760405162461bcd60e51b8152602060048201526015602482015274496e76616c69642061646d696e206164647265737360581b60448201526064016102e3565b336001600160a01b038316036124715760405162461bcd60e51b815260206004820152601260248201527121b0b73737ba103932bb37b5b29039b2b63360711b60448201526064016102e3565b611140600080516020613d8c83398151915283613021565b6002600154036124ab5760405162461bcd60e51b81526004016102e390613a01565b60026001556001600160a01b0385166124d65760405162461bcd60e51b81526004016102e390613c28565b600084116124f65760405162461bcd60e51b81526004016102e390613c57565b600083116125165760405162461bcd60e51b81526004016102e390613c8e565b600082116125365760405162461bcd60e51b81526004016102e390613cc5565b8334146125555760405162461bcd60e51b81526004016102e390613952565b60008585858546604051602001612570959493929190613d3e565b6040516020818303038152906040528051906020012090506125928183612f6a565b6125ae5760405162461bcd60e51b81526004016102e390613a60565b81516020808401919091206000908152600790915260408120805460ff191660011790556125dc874261308c565b6000818152600560208190526040909120015490915060ff16156126125760405162461bcd60e51b81526004016102e390613cfc565b604051806101000160405280828152602001886001600160a01b03168152602001878152602001868152602001854261264b91906139b9565b8152600160208083018290526000604080850182905242606095860152868252600580845291819020865181559286015193830180546001600160a01b039095166001600160a01b0319909516949094179093559184015160028201559183015160038301556080830151600483015560a0830151908201805460c085015115156101000261ff00199315159390931661ffff199091161791909117905560e0909101516006909101556126fe816130d3565b6003546040516000916001600160a01b03169088908381818185875af1925050503d806000811461274b576040519150601f19603f3d011682016040523d82523d6000602084013e612750565b606091505b50509050806127715760405162461bcd60e51b81526004016102e3906139cc565b6001600160a01b038816827f105d821f4999dd4d79a889f0a0b1a1f6a5366615d06b4b7aef9e0a42a1de8cff89896127a98a426139b9565b60408051938452602084019290925290820152606001611820565b60008181526005602081905260409091209081015460ff166127f85760405162461bcd60e51b81526004016102e3906138f9565b80600401544210156128455760405162461bcd60e51b8152602060048201526016602482015275141bdb1a58de481b9bdd08195e1c1a5c9959081e595d60521b60448201526064016102e3565b60058101805460ff1916905560018101546040516001600160a01b039091169083907f8629ba1a018e1397c942e8dcf53afb2cfd0f250c02bc785e041010dfe6bbe00290600090a35050565b60006002600154036128b55760405162461bcd60e51b81526004016102e390613a01565b60026001556001600160a01b0386166128e05760405162461bcd60e51b81526004016102e390613c28565b600085116129005760405162461bcd60e51b81526004016102e390613c57565b600084116129205760405162461bcd60e51b81526004016102e390613c8e565b600083116129405760405162461bcd60e51b81526004016102e390613cc5565b84341461295f5760405162461bcd60e51b81526004016102e390613952565b6000868686864660405160200161297a959493929190613d3e565b60405160208183030381529060405280519060200120905061299c8184612f6a565b6129b85760405162461bcd60e51b81526004016102e390613a60565b82516020808501919091206000908152600790915260408120805460ff191660011790556129e6884261308c565b6000818152600560208190526040909120015490915060ff1615612a1c5760405162461bcd60e51b81526004016102e390613cfc565b604051806101000160405280828152602001896001600160a01b031681526020018881526020018781526020018642612a5591906139b9565b8152600160208083018290526000604080850182905242606095860152868252600580845291819020865181559286015193830180546001600160a01b039095166001600160a01b0319909516949094179093559184015160028201559183015160038301556080830151600483015560a0830151908201805460c085015115156101000261ff00199315159390931661ffff199091161791909117905560e090910151600690910155612b08816130d3565b6003546040516000916001600160a01b03169089908381818185875af1925050503d8060008114612b55576040519150601f19603f3d011682016040523d82523d6000602084013e612b5a565b606091505b5050905080612b7b5760405162461bcd60e51b81526004016102e3906139cc565b6001600160a01b038916827f105d821f4999dd4d79a889f0a0b1a1f6a5366615d06b4b7aef9e0a42a1de8cff8a8a612bb38b426139b9565b6040805193845260208401929092529082015260600160405180910390a35060018055979650505050505050565b6000612bec81612ecb565b6001600160a01b038216612c3a5760405162461bcd60e51b8152602060048201526015602482015274496e76616c69642061646d696e206164647265737360581b60448201526064016102e3565b612c52600080516020613d8c83398151915283612ed8565b506040516001600160a01b038316907f1c4e23de8d72c94b22992bd4d7b6786b215ba876af214ff63e6a0ca38fc97af490600090a25050565b612cc96040518060c0016040528060008019168152602001600081526020016060815260200160001515815260200160008152602001600081525090565b600660008381526020019081526020016000206040518060c00160405290816000820154815260200160018201548152602001600282018054612d0b90613abf565b80601f0160208091040260200160405190810160405280929190818152602001828054612d3790613abf565b8015612d845780601f10612d5957610100808354040283529160200191612d84565b820191906000526020600020905b815481529060010190602001808311612d6757829003601f168201915b5050509183525050600382015460ff16151560208201526004820154604082015260059091015460609091015292915050565b600082815260208190526040902060010154612dd281612ecb565b610ea58383613021565b600080516020613d8c833981519152612df481612ecb565b600083815260056020526040902080548414612e225760405162461bcd60e51b81526004016102e39061389d565b600581015460ff16612e465760405162461bcd60e51b81526004016102e3906138f9565b6000612e5584620151806138e2565b612e5f90426139b9565b90508160040154811115612ec05760405162461bcd60e51b815260206004820152602260248201527f4e6577206578706972792065786365656473206f726967696e616c2065787069604482015261727960f01b60648201526084016102e3565b600490910155505050565b612ed58133613143565b50565b6000612ee483836122ee565b612f62576000838152602081815260408083206001600160a01b03861684529091529020805460ff19166001179055612f1a3390565b6001600160a01b0316826001600160a01b0316847f2f8788117e7eff1d82e926ec794901d17c78024a50270940304540a733656f0d60405160405180910390a4506001610957565b506000610957565b805160208083019190912060009081526007909152604081205460ff1615612fcd5760405162461bcd60e51b815260206004820152601660248201527514da59db985d1d5c9948185b1c9958591e481d5cd95960521b60448201526064016102e3565b7f19457468657265756d205369676e6564204d6573736167653a0a3332000000006000908152601c849052603c8120906130078285613180565b6002546001600160a01b0390811691161495945050505050565b600061302d83836122ee565b15612f62576000838152602081815260408083206001600160a01b0386168085529252808320805460ff1916905551339286917ff6391f5c32d9c69d2a47ea670b442974b53935d1edc7fd64eb21e047a839171b9190a4506001610957565b6040516bffffffffffffffffffffffff19606084901b1660208201526034810182905260009060540160405160208183030381529060405280519060200120905092915050565b60408051608081018252600d8183019081526c54657374204d6574616461746160981b6060830152815260016020808301919091526000848152600890915291909120815181906131249082613b47565b50602091909101516001909101805460ff191691151591909117905550565b61314d82826122ee565b61317c5760405163e2517d3f60e01b81526001600160a01b0382166004820152602481018390526044016102e3565b5050565b60008060008061319086866131aa565b9250925092506131a082826131f7565b5090949350505050565b600080600083516041036131e45760208401516040850151606086015160001a6131d6888285856132b0565b9550955095505050506131f0565b50508151600091506002905b9250925092565b600082600381111561320b5761320b613d75565b03613214575050565b600182600381111561322857613228613d75565b036132465760405163f645eedf60e01b815260040160405180910390fd5b600282600381111561325a5761325a613d75565b0361327b5760405163fce698f760e01b8152600481018290526024016102e3565b600382600381111561328f5761328f613d75565b0361317c576040516335e2f38360e21b8152600481018290526024016102e3565b600080807f7fffffffffffffffffffffffffffffff5d576e7357a4501ddfe92f46681b20a08411156132eb5750600091506003905082613375565b604080516000808252602082018084528a905260ff891692820192909252606081018790526080810186905260019060a0016020604051602081039080840390855afa15801561333f573d6000803e3d6000fd5b5050604051601f1901519150506001600160a01b03811661336b57506000925060019150829050613375565b9250600091508190505b9450945094915050565b60006020828403121561339157600080fd5b81356001600160e01b0319811681146133a957600080fd5b9392505050565b803580151581146133c057600080fd5b919050565b600080600080608085870312156133db57600080fd5b843593506133eb602086016133b0565b92506133f9604086016133b0565b9150613407606086016133b0565b905092959194509250565b60006020828403121561342457600080fd5b5035919050565b60008060006060848603121561344057600080fd5b505081359360208301359350604090920135919050565b6001600160a01b0381168114612ed557600080fd5b6000806040838503121561347f57600080fd5b82359150602083013561349181613457565b809150509250929050565b634e487b7160e01b600052604160045260246000fd5b600082601f8301126134c357600080fd5b813567ffffffffffffffff808211156134de576134de61349c565b604051601f8301601f19908116603f011681019082821181831017156135065761350661349c565b8160405283815286602085880101111561351f57600080fd5b836020870160208301376000602085830101528094505050505092915050565b60008060006060848603121561355457600080fd5b8335925060208401359150604084013567ffffffffffffffff81111561357957600080fd5b613585868287016134b2565b9150509250925092565b600080600080608085870312156135a557600080fd5b8435935060208501359250604085013567ffffffffffffffff808211156135cb57600080fd5b6135d7888389016134b2565b935060608701359150808211156135ed57600080fd5b506135fa878288016134b2565b91505092959194509250565b6000806000806080858703121561361c57600080fd5b843593506020850135925060408501359150606085013567ffffffffffffffff81111561364857600080fd5b6135fa878288016134b2565b6000806000806080858703121561366a57600080fd5b843561367581613457565b966020860135965060408601359560600135945092505050565b6000602082840312156136a157600080fd5b81356133a981613457565b600080604083850312156136bf57600080fd5b50508035926020909101359150565b60005b838110156136e95781810151838201526020016136d1565b50506000910152565b6000815180845261370a8160208601602086016136ce565b601f01601f19169290920160200192915050565b60208152600082516040602084015261373a60608401826136f2565b90506020840151151560408401528091505092915050565b6000806000806080858703121561376857600080fd5b8435935060208501359250604085013567ffffffffffffffff81111561378d57600080fd5b613799878288016134b2565b925050613407606086016133b0565b600080604083850312156137bb57600080fd5b82356137c681613457565b946020939093013593505050565b600080600080600060a086880312156137ec57600080fd5b85356137f781613457565b9450602086013593506040860135925060608601359150608086013567ffffffffffffffff81111561382857600080fd5b613834888289016134b2565b9150509295509295909350565b6020815281516020820152602082015160408201526000604083015160c0606084015261387160e08401826136f2565b9050606084015115156080840152608084015160a084015260a084015160c08401528091505092915050565b602080825260159082015274141bdb1a58de48191bd95cc81b9bdd08195e1a5cdd605a1b604082015260600190565b634e487b7160e01b600052601160045260246000fd5b8082028115828204841417610957576109576138cc565b602080825260119082015270506f6c696379206e6f742061637469766560781b604082015260600190565b6020808252601490820152732737ba103a3432903837b634b1bc9037bbb732b960611b604082015260600190565b60208082526018908201527f496e636f7272656374207072656d69756d20616d6f756e740000000000000000604082015260600190565b602080825260169082015275141bdb1a58de48185b1c9958591e4818db185a5b595960521b604082015260600190565b80820180821115610957576109576138cc565b6020808252818101527f5072656d69756d207472616e7366657220746f207661756c74206661696c6564604082015260600190565b6020808252601f908201527f5265656e7472616e637947756172643a207265656e7472616e742063616c6c00604082015260600190565b6020808252600e908201526d141bdb1a58de48195e1c1a5c995960921b604082015260600190565b602080825260119082015270496e76616c6964207369676e617475726560781b604082015260600190565b84815283602082015260008351613aa98160408501602088016136ce565b6040920191820192909252606001949350505050565b600181811c90821680613ad357607f821691505b602082108103613af357634e487b7160e01b600052602260045260246000fd5b50919050565b601f82111561114057600081815260208120601f850160051c81016020861015613b205750805b601f850160051c820191505b81811015613b3f57828155600101613b2c565b505050505050565b815167ffffffffffffffff811115613b6157613b6161349c565b613b7581613b6f8454613abf565b84613af9565b602080601f831160018114613baa5760008415613b925750858301515b600019600386901b1c1916600185901b178555613b3f565b600085815260208120601f198616915b82811015613bd957888601518255948401946001909101908401613bba565b5085821015613bf75787850151600019600388901b60f8161c191681555b5050505050600190811b01905550565b828152604060208201526000613c2060408301846136f2565b949350505050565b602080825260159082015274496e76616c6964206f776e6572206164647265737360581b604082015260600190565b60208082526018908201527f5072656d69756d206d75737420626520706f7369746976650000000000000000604082015260600190565b6020808252601c908201527f53756d2061737375726564206d75737420626520706f73697469766500000000604082015260600190565b60208082526019908201527f4475726174696f6e206d75737420626520706f73697469766500000000000000604082015260600190565b602080825260159082015274506f6c69637920616c72656164792065786973747360581b604082015260600190565b81810381811115610957576109576138cc565b60609590951b6bffffffffffffffffffffffff19168552601485019390935260348401919091526054830152607482015260940190565b634e487b7160e01b600052602160045260246000fdfea49807205ce4d355092ef5a8a18f56e8913cf4a201fbe287825b095693c21775a264697066735822122029e3f57519b26439c33e274680ea2a2e3e123179591abd760c7f887c20cd557c64736f6c63430008140033",
  "linkReferences": {},
  "deployedLinkReferences": {}
}